Component: ARM Compiler 5.06 update 3 (build 300) Tool: armlink [4d35c9]

==============================================================================

Section Cross References

    main.o(.text) refers to main.o(.emb_text) for MSR_MSP
    main.o(.text) refers to usb_mem.o(.text) for UserToPMABufferCopy
    main.o(.text) refers to usb_regs.o(.text) for SetEPTxValid
    main.o(.text) refers to stm32f10x_rcc.o(.text) for RCC_APB2PeriphClockCmd
    main.o(.text) refers to delay.o(.text) for delay_init
    main.o(.text) refers to sys.o(.text) for NVIC_Configuration
    main.o(.text) refers to myusart.o(.text) for uart_init
    main.o(.text) refers to led.o(.text) for LED_Init
    main.o(.text) refers to hw_config.o(.text) for USB_Interrupts_Config
    main.o(.text) refers to usb_init.o(.text) for USB_Init
    main.o(.text) refers to strtok.o(.text) for strtok
    main.o(.text) refers to atoi.o(.text) for atoi
    main.o(.text) refers to rt_memcpy_v6.o(.text) for __aeabi_memcpy
    main.o(.text) refers to na7600_stm32_inflash.o(.text) for STMFLASH_Write
    main.o(.text) refers to strcmpv7m.o(.text) for strcmp
    main.o(.text) refers to rt_memclr.o(.text) for __aeabi_memclr
    main.o(.text) refers to main.o(.data) for jump2app
    main.o(.text) refers to main.o(.bss) for UsbSendBuffer
==============================================================================

Removing Unused input sections from the image.

    Removing core_cm3.o(.emb_text), (32 bytes).
    Removing stm32f10x_bkp.o(.text), (196 bytes).
    Removing stm32f10x_cec.o(.text), (288 bytes).
    Removing stm32f10x_crc.o(.text), (72 bytes).
    Removing stm32f10x_dbgmcu.o(.text), (48 bytes).
    Removing stm32f10x_iwdg.o(.text), (64 bytes).
    Removing stm32f10x_pwr.o(.text), (204 bytes).
    Removing stm32f10x_rtc.o(.text), (328 bytes).
    Removing stm32f10x_sdio.o(.text), (468 bytes).
    Removing stm32f10x_spi.o(.text), (780 bytes).
    Removing stm32f10x_tim.o(.text), (3610 bytes).
    Removing myusart.o(.data), (4 bytes).
    Removing hw_config.o(.data), (1 bytes).
    Removing usb_pwr.o(.bss), (32 bytes).

14 unused section(s) (total 6127 bytes) removed from the image.

==============================================================================

Image Symbol Table

    Local Symbols

    Symbol Name                              Value     Ov Type        Size  Object(Section)

    ../clib/angel/boardlib.s                 0x00000000   Number         0  boardshut.o ABSOLUTE
    ../clib/angel/boardlib.s                 0x00000000   Number         0  boardinit3.o ABSOLUTE
    ../clib/angel/boardlib.s                 0x00000000   Number         0  boardinit2.o ABSOLUTE
    ../clib/angel/boardlib.s                 0x00000000   Number         0  boardinit1.o ABSOLUTE
    ../clib/angel/dczerorl2.s                0x00000000   Number         0  __dczerorl2.o ABSOLUTE
    ../clib/angel/handlers.s                 0x00000000   Number         0  __scatter_zi.o ABSOLUTE
    ../clib/angel/kernel.s                   0x00000000   Number         0  rtexit2.o ABSOLUTE
    ../clib/angel/kernel.s                   0x00000000   Number         0  rtexit.o ABSOLUTE
    ../clib/angel/kernel.s                   0x00000000   Number         0  __rtentry2.o ABSOLUTE
    ../clib/angel/kernel.s                   0x00000000   Number         0  __rtentry.o ABSOLUTE
    ../clib/angel/kernel.s                   0x00000000   Number         0  __rtentry4.o ABSOLUTE
    ../clib/angel/rt.s                       0x00000000   Number         0  rt_errno_addr.o ABSOLUTE
    ../clib/angel/rt.s                       0x00000000   Number         0  rt_locale_intlibspace.o ABSOLUTE
    ../clib/angel/rt.s                       0x00000000   Number         0  rt_errno_addr_intlibspace.o ABSOLUTE
    ../clib/angel/rt.s                       0x00000000   Number         0  rt_raise.o ABSOLUTE
    ../clib/angel/rt.s                       0x00000000   Number         0  rt_locale.o ABSOLUTE
    ../clib/angel/rt.s                       0x00000000   Number         0  rt_ctype_table.o ABSOLUTE
    ../clib/angel/scatter.s                  0x00000000   Number         0  __scatter.o ABSOLUTE
    ../clib/angel/startup.s                  0x00000000   Number         0  __main.o ABSOLUTE
    ../clib/angel/sys.s                      0x00000000   Number         0  indicate_semi.o ABSOLUTE
    ../clib/angel/sys.s                      0x00000000   Number         0  libspace.o ABSOLUTE
    ../clib/angel/sys.s                      0x00000000   Number         0  use_no_semi_2.o ABSOLUTE
    ../clib/angel/sys.s                      0x00000000   Number         0  sys_stackheap_outer.o ABSOLUTE
    ../clib/angel/sys.s                      0x00000000   Number         0  use_no_semi.o ABSOLUTE
    ../clib/angel/sysapp.c                   0x00000000   Number         0  sys_wrch.o ABSOLUTE
    ../clib/angel/sysapp.c                   0x00000000   Number         0  sys_command.o ABSOLUTE
    ../clib/armsys.c                         0x00000000   Number         0  no_argv.o ABSOLUTE
    ../clib/armsys.c                         0x00000000   Number         0  argv_veneer.o ABSOLUTE
    ../clib/armsys.c                         0x00000000   Number         0  _get_argv_nomalloc.o ABSOLUTE
    ../clib/armsys.c                         0x00000000   Number         0  argv_veneer.o ABSOLUTE
    ../clib/heapalloc.c                      0x00000000   Number         0  hrguard.o ABSOLUTE
    ../clib/heapaux.c                        0x00000000   Number         0  heapauxi.o ABSOLUTE
    ../clib/libinit.s                        0x00000000   Number         0  libshutdown.o ABSOLUTE
    ../clib/libinit.s                        0x00000000   Number         0  libinit2.o ABSOLUTE
    ../clib/libinit.s                        0x00000000   Number         0  libshutdown2.o ABSOLUTE
    ../clib/libinit.s                        0x00000000   Number         0  libinit.o ABSOLUTE
    ../clib/locale.s                         0x00000000   Number         0  lc_ctype_c.o ABSOLUTE
    ../clib/memcpset.s                       0x00000000   Number         0  rt_memcpy_w.o ABSOLUTE
    ../clib/memcpset.s                       0x00000000   Number         0  rt_memclr_w.o ABSOLUTE
    ../clib/memcpset.s                       0x00000000   Number         0  strcmpv7m.o ABSOLUTE
    ../clib/memcpset.s                       0x00000000   Number         0  rt_memclr.o ABSOLUTE
    ../clib/memcpset.s                       0x00000000   Number         0  rt_memcpy_v6.o ABSOLUTE
    ../clib/scanf.c                          0x00000000   Number         0  _chval.o ABSOLUTE
    ../clib/scanf.c                          0x00000000   Number         0  _strtoul.o ABSOLUTE
    ../clib/scanf.c                          0x00000000   Number         0  strtol.o ABSOLUTE
    ../clib/scanf.c                          0x00000000   Number         0  atoi.o ABSOLUTE
    ../clib/signal.c                         0x00000000   Number         0  defsig_rtmem_inner.o ABSOLUTE
    ../clib/signal.c                         0x00000000   Number         0  defsig_other.o ABSOLUTE
    ../clib/signal.c                         0x00000000   Number         0  defsig_segv_inner.o ABSOLUTE
    ../clib/signal.c                         0x00000000   Number         0  defsig_pvfn_inner.o ABSOLUTE
    ../clib/signal.c                         0x00000000   Number         0  defsig_stak_inner.o ABSOLUTE
    ../clib/signal.c                         0x00000000   Number         0  defsig_rtred_inner.o ABSOLUTE
    ../clib/signal.c                         0x00000000   Number         0  defsig_fpe_inner.o ABSOLUTE
    ../clib/signal.c                         0x00000000   Number         0  defsig_abrt_inner.o ABSOLUTE
    ../clib/signal.c                         0x00000000   Number         0  defsig_general.o ABSOLUTE
    ../clib/signal.c                         0x00000000   Number         0  __raise.o ABSOLUTE
    ../clib/signal.c                         0x00000000   Number         0  defsig_cppl_inner.o ABSOLUTE
    ../clib/signal.c                         0x00000000   Number         0  defsig_exit.o ABSOLUTE
    ../clib/signal.c                         0x00000000   Number         0  defsig_rtmem_formal.o ABSOLUTE
    ../clib/signal.c                         0x00000000   Number         0  defsig_rtmem_outer.o ABSOLUTE
    ../clib/signal.s                         0x00000000   Number         0  defsig.o ABSOLUTE
    ../clib/stdlib.c                         0x00000000   Number         0  exit.o ABSOLUTE
    ../clib/string.c                         0x00000000   Number         0  strtok.o ABSOLUTE
    ../clib/string.c                         0x00000000   Number         0  strtok_int.o ABSOLUTE
    ../clib/string.c                         0x00000000   Number         0  strspn.o ABSOLUTE
    ../clib/string.c                         0x00000000   Number         0  strcspn.o ABSOLUTE
    ../fplib/fpinit.s                        0x00000000   Number         0  fpinit.o ABSOLUTE
    ..\CORE\core_cm3.c                       0x00000000   Number         0  core_cm3.o ABSOLUTE
    ..\CORE\startup_stm32f10x_hd.s           0x00000000   Number         0  startup_stm32f10x_hd.o ABSOLUTE
    ..\STM32F10x_FWLib\src\misc.c            0x00000000   Number         0  misc.o ABSOLUTE
    ..\STM32F10x_FWLib\src\stm32f10x_bkp.c   0x00000000   Number         0  stm32f10x_bkp.o ABSOLUTE
    ..\STM32F10x_FWLib\src\stm32f10x_cec.c   0x00000000   Number         0  stm32f10x_cec.o ABSOLUTE
    ..\STM32F10x_FWLib\src\stm32f10x_crc.c   0x00000000   Number         0  stm32f10x_crc.o ABSOLUTE
    ..\STM32F10x_FWLib\src\stm32f10x_dbgmcu.c 0x00000000   Number         0  stm32f10x_dbgmcu.o ABSOLUTE
    ..\STM32F10x_FWLib\src\stm32f10x_exti.c  0x00000000   Number         0  stm32f10x_exti.o ABSOLUTE
    ..\STM32F10x_FWLib\src\stm32f10x_flash.c 0x00000000   Number         0  stm32f10x_flash.o ABSOLUTE
    ..\STM32F10x_FWLib\src\stm32f10x_gpio.c  0x00000000   Number         0  stm32f10x_gpio.o ABSOLUTE
    ..\STM32F10x_FWLib\src\stm32f10x_iwdg.c  0x00000000   Number         0  stm32f10x_iwdg.o ABSOLUTE
    ..\STM32F10x_FWLib\src\stm32f10x_pwr.c   0x00000000   Number         0  stm32f10x_pwr.o ABSOLUTE
    ..\STM32F10x_FWLib\src\stm32f10x_rcc.c   0x00000000   Number         0  stm32f10x_rcc.o ABSOLUTE
    ..\STM32F10x_FWLib\src\stm32f10x_rtc.c   0x00000000   Number         0  stm32f10x_rtc.o ABSOLUTE
    ..\STM32F10x_FWLib\src\stm32f10x_sdio.c  0x00000000   Number         0  stm32f10x_sdio.o ABSOLUTE
    ..\STM32F10x_FWLib\src\stm32f10x_spi.c   0x00000000   Number         0  stm32f10x_spi.o ABSOLUTE
    ..\STM32F10x_FWLib\src\stm32f10x_tim.c   0x00000000   Number         0  stm32f10x_tim.o ABSOLUTE
    ..\STM32F10x_FWLib\src\stm32f10x_usart.c 0x00000000   Number         0  stm32f10x_usart.o ABSOLUTE
    ..\SYSTEM\delay\delay.c                  0x00000000   Number         0  delay.o ABSOLUTE
    ..\SYSTEM\sys\sys.c                      0x00000000   Number         0  sys.o ABSOLUTE
    ..\SYSTEM\usart\myusart.c                0x00000000   Number         0  myusart.o ABSOLUTE
    ..\USB\Configure\src\hw_config.c         0x00000000   Number         0  hw_config.o ABSOLUTE
    ..\USB\Configure\src\stm32_it.c          0x00000000   Number         0  stm32_it.o ABSOLUTE
    ..\USB\Configure\src\usb_desc.c          0x00000000   Number         0  usb_desc.o ABSOLUTE
    ..\USB\Configure\src\usb_endp.c          0x00000000   Number         0  usb_endp.o ABSOLUTE
    ..\USB\Configure\src\usb_istr.c          0x00000000   Number         0  usb_istr.o ABSOLUTE
    ..\USB\Configure\src\usb_prop.c          0x00000000   Number         0  usb_prop.o ABSOLUTE
    ..\USB\Configure\src\usb_pwr.c           0x00000000   Number         0  usb_pwr.o ABSOLUTE
    ..\USB\Core\src\usb_core.c               0x00000000   Number         0  usb_core.o ABSOLUTE
    ..\USB\Core\src\usb_init.c               0x00000000   Number         0  usb_init.o ABSOLUTE
    ..\USB\Core\src\usb_int.c                0x00000000   Number         0  usb_int.o ABSOLUTE
    ..\USB\Core\src\usb_mem.c                0x00000000   Number         0  usb_mem.o ABSOLUTE
    ..\USB\Core\src\usb_regs.c               0x00000000   Number         0  usb_regs.o ABSOLUTE
    ..\USB\Core\src\usb_sil.c                0x00000000   Number         0  usb_sil.o ABSOLUTE
    ..\\CORE\\core_cm3.c                     0x00000000   Number         0  core_cm3.o ABSOLUTE
    NA7600_STM32_INFLASH.c                   0x00000000   Number         0  na7600_stm32_inflash.o ABSOLUTE
    dc.s                                     0x00000000   Number         0  dc.o ABSOLUTE
    led.c                                    0x00000000   Number         0  led.o ABSOLUTE
    main.c                                   0x00000000   Number         0  main.o ABSOLUTE
    main.c                                   0x00000000   Number         0  main.o ABSOLUTE
    stm32f10x_it.c                           0x00000000   Number         0  stm32f10x_it.o ABSOLUTE
    system_stm32f10x.c                       0x00000000   Number         0  system_stm32f10x.o ABSOLUTE
    RESET                                    0x08000000   Section      304  startup_stm32f10x_hd.o(RESET)
    !!!main                                  0x08000130   Section        8  __main.o(!!!main)
    !!!scatter                               0x08000138   Section       52  __scatter.o(!!!scatter)
    !!dczerorl2                              0x0800016c   Section       90  __dczerorl2.o(!!dczerorl2)
    !!handler_zi                             0x080001c8   Section       28  __scatter_zi.o(!!handler_zi)
    .ARM.Collect$$libinit$$00000000          0x080001e4   Section        2  libinit.o(.ARM.Collect$$libinit$$00000000)
    .ARM.Collect$$libinit$$00000002          0x080001e6   Section        0  libinit2.o(.ARM.Collect$$libinit$$00000002)
    .ARM.Collect$$libinit$$00000004          0x080001e6   Section        0  libinit2.o(.ARM.Collect$$libinit$$00000004)
    .ARM.Collect$$libinit$$0000000A          0x080001e6   Section        0  libinit2.o(.ARM.Collect$$libinit$$0000000A)
    .ARM.Collect$$libinit$$0000000C          0x080001e6   Section        0  libinit2.o(.ARM.Collect$$libinit$$0000000C)
    .ARM.Collect$$libinit$$0000000E          0x080001e6   Section        0  libinit2.o(.ARM.Collect$$libinit$$0000000E)
    .ARM.Collect$$libinit$$0000000F          0x080001e6   Section        6  libinit2.o(.ARM.Collect$$libinit$$0000000F)
    .ARM.Collect$$libinit$$00000011          0x080001ec   Section        0  libinit2.o(.ARM.Collect$$libinit$$00000011)
    .ARM.Collect$$libinit$$00000012          0x080001ec   Section       12  libinit2.o(.ARM.Collect$$libinit$$00000012)
    .ARM.Collect$$libinit$$00000013          0x080001f8   Section        0  libinit2.o(.ARM.Collect$$libinit$$00000013)
    .ARM.Collect$$libinit$$00000015          0x080001f8   Section        0  libinit2.o(.ARM.Collect$$libinit$$00000015)
    .ARM.Collect$$libinit$$00000017          0x080001f8   Section        0  libinit2.o(.ARM.Collect$$libinit$$00000017)
    .ARM.Collect$$libinit$$00000019          0x080001f8   Section        0  libinit2.o(.ARM.Collect$$libinit$$00000019)
    .ARM.Collect$$libinit$$0000001B          0x080001f8   Section        0  libinit2.o(.ARM.Collect$$libinit$$0000001B)
    .ARM.Collect$$libinit$$0000001D          0x080001f8   Section        0  libinit2.o(.ARM.Collect$$libinit$$0000001D)
    .ARM.Collect$$libinit$$0000001F          0x080001f8   Section        0  libinit2.o(.ARM.Collect$$libinit$$0000001F)
    .ARM.Collect$$libinit$$00000021          0x080001f8   Section        0  libinit2.o(.ARM.Collect$$libinit$$00000021)
    .ARM.Collect$$libinit$$00000023          0x080001f8   Section        0  libinit2.o(.ARM.Collect$$libinit$$00000023)
    .ARM.Collect$$libinit$$00000025          0x080001f8   Section        0  libinit2.o(.ARM.Collect$$libinit$$00000025)
    .ARM.Collect$$libinit$$0000002C          0x080001f8   Section        0  libinit2.o(.ARM.Collect$$libinit$$0000002C)
    .ARM.Collect$$libinit$$0000002E          0x080001f8   Section        0  libinit2.o(.ARM.Collect$$libinit$$0000002E)
    .ARM.Collect$$libinit$$00000030          0x080001f8   Section        0  libinit2.o(.ARM.Collect$$libinit$$00000030)
    .ARM.Collect$$libinit$$00000032          0x080001f8   Section        0  libinit2.o(.ARM.Collect$$libinit$$00000032)
    .ARM.Collect$$libinit$$00000033          0x080001f8   Section        2  libinit2.o(.ARM.Collect$$libinit$$00000033)
    .ARM.Collect$$libshutdown$$00000000      0x080001fa   Section        2  libshutdown.o(.ARM.Collect$$libshutdown$$00000000)
    .ARM.Collect$$libshutdown$$00000002      0x080001fc   Section        0  libshutdown2.o(.ARM.Collect$$libshutdown$$00000002)
    .ARM.Collect$$libshutdown$$00000004      0x080001fc   Section        0  libshutdown2.o(.ARM.Collect$$libshutdown$$00000004)
    .ARM.Collect$$libshutdown$$00000007      0x080001fc   Section        0  libshutdown2.o(.ARM.Collect$$libshutdown$$00000007)
    .ARM.Collect$$libshutdown$$0000000A      0x080001fc   Section        0  libshutdown2.o(.ARM.Collect$$libshutdown$$0000000A)
    .ARM.Collect$$libshutdown$$0000000C      0x080001fc   Section        0  libshutdown2.o(.ARM.Collect$$libshutdown$$0000000C)
    .ARM.Collect$$libshutdown$$0000000F      0x080001fc   Section        0  libshutdown2.o(.ARM.Collect$$libshutdown$$0000000F)
    .ARM.Collect$$libshutdown$$00000010      0x080001fc   Section        2  libshutdown2.o(.ARM.Collect$$libshutdown$$00000010)
    .ARM.Collect$$rtentry$$00000000          0x080001fe   Section        0  __rtentry.o(.ARM.Collect$$rtentry$$00000000)
    .ARM.Collect$$rtentry$$00000002          0x080001fe   Section        0  __rtentry2.o(.ARM.Collect$$rtentry$$00000002)
    .ARM.Collect$$rtentry$$00000004          0x080001fe   Section        6  __rtentry4.o(.ARM.Collect$$rtentry$$00000004)
    .ARM.Collect$$rtentry$$00000009          0x08000204   Section        0  __rtentry2.o(.ARM.Collect$$rtentry$$00000009)
    .ARM.Collect$$rtentry$$0000000A          0x08000204   Section        4  __rtentry2.o(.ARM.Collect$$rtentry$$0000000A)
    .ARM.Collect$$rtentry$$0000000C          0x08000208   Section        0  __rtentry2.o(.ARM.Collect$$rtentry$$0000000C)
    .ARM.Collect$$rtentry$$0000000D          0x08000208   Section        8  __rtentry2.o(.ARM.Collect$$rtentry$$0000000D)
    .ARM.Collect$$rtexit$$00000000           0x08000210   Section        2  rtexit.o(.ARM.Collect$$rtexit$$00000000)
    .ARM.Collect$$rtexit$$00000002           0x08000212   Section        0  rtexit2.o(.ARM.Collect$$rtexit$$00000002)
    .ARM.Collect$$rtexit$$00000003           0x08000212   Section        4  rtexit2.o(.ARM.Collect$$rtexit$$00000003)
    .ARM.Collect$$rtexit$$00000004           0x08000216   Section        6  rtexit2.o(.ARM.Collect$$rtexit$$00000004)
    .emb_text                                0x0800021c   Section        6  main.o(.emb_text)
    .text                                    0x08000224   Section        0  main.o(.text)
    .text                                    0x080004f4   Section        0  stm32f10x_it.o(.text)
    .text                                    0x08000538   Section        0  system_stm32f10x.o(.text)
    SetSysClockTo72                          0x08000539   Thumb Code   214  system_stm32f10x.o(.text)
    SetSysClock                              0x0800060f   Thumb Code     8  system_stm32f10x.o(.text)
    .text                                    0x08000718   Section        0  na7600_stm32_inflash.o(.text)
    .text                                    0x0800085c   Section        0  led.o(.text)
    .text                                    0x080008ac   Section       64  startup_stm32f10x_hd.o(.text)
    .text                                    0x080008ec   Section        0  misc.o(.text)
    .text                                    0x080009c8   Section        0  stm32f10x_exti.o(.text)
    .text                                    0x08000ae4   Section        0  stm32f10x_flash.o(.text)
    .text                                    0x080010a0   Section        0  stm32f10x_gpio.o(.text)
    .text                                    0x080013fc   Section        0  stm32f10x_rcc.o(.text)
    .text                                    0x080017a0   Section        0  stm32f10x_usart.o(.text)
    .text                                    0x08001bdc   Section        0  delay.o(.text)
    .text                                    0x08001cb0   Section        0  sys.o(.text)
    .text                                    0x08001cbc   Section        0  myusart.o(.text)
    .text                                    0x08001d88   Section        0  hw_config.o(.text)
    IntToUnicode                             0x08001e45   Thumb Code    62  hw_config.o(.text)
    .text                                    0x08001ebc   Section        0  stm32_it.o(.text)
    .text                                    0x08001ed0   Section        0  usb_endp.o(.text)
    .text                                    0x08001f08   Section        0  usb_istr.o(.text)
    .text                                    0x080020d4   Section        0  usb_prop.o(.text)
    .text                                    0x08002308   Section        0  usb_pwr.o(.text)
    .text                                    0x08002460   Section        0  usb_core.o(.text)
    DataStageOut                             0x0800289f   Thumb Code   166  usb_core.o(.text)
    DataStageIn                              0x08002945   Thumb Code   166  usb_core.o(.text)
    NoData_Setup0                            0x080029eb   Thumb Code   290  usb_core.o(.text)
    Data_Setup0                              0x08002b0d   Thumb Code   678  usb_core.o(.text)
    .text                                    0x08002fb0   Section        0  usb_init.o(.text)
    .text                                    0x08002fec   Section        0  usb_int.o(.text)
    .text                                    0x08003328   Section        0  usb_mem.o(.text)
    .text                                    0x08003384   Section        0  usb_regs.o(.text)
    .text                                    0x08003b8c   Section        0  usb_sil.o(.text)
    .text                                    0x08003c0c   Section        2  use_no_semi_2.o(.text)
    .text                                    0x08003c0e   Section        0  atoi.o(.text)
    .text                                    0x08003c28   Section        0  strtok.o(.text)
    .text                                    0x08003c34   Section      138  rt_memcpy_v6.o(.text)
    .text                                    0x08003cbe   Section       68  rt_memclr.o(.text)
    .text                                    0x08003d04   Section      128  strcmpv7m.o(.text)
    .text                                    0x08003d84   Section        0  heapauxi.o(.text)
    .text                                    0x08003d8a   Section        2  use_no_semi.o(.text)
    .text                                    0x08003d8c   Section        8  rt_errno_addr_intlibspace.o(.text)
    .text                                    0x08003d94   Section        0  strtol.o(.text)
    .text                                    0x08003e04   Section        0  strtok_int.o(.text)
    .text                                    0x08003e48   Section      100  rt_memcpy_w.o(.text)
    .text                                    0x08003eac   Section       78  rt_memclr_w.o(.text)
    .text                                    0x08003efc   Section        8  libspace.o(.text)
    .text                                    0x08003f04   Section       16  rt_ctype_table.o(.text)
    .text                                    0x08003f14   Section        0  _strtoul.o(.text)
    .text                                    0x08003fb2   Section        0  strcspn.o(.text)
    .text                                    0x08003fd2   Section        0  strspn.o(.text)
    .text                                    0x08003fee   Section       74  sys_stackheap_outer.o(.text)
    .text                                    0x08004038   Section        8  rt_locale_intlibspace.o(.text)
    .text                                    0x08004040   Section        0  _chval.o(.text)
    .text                                    0x0800405c   Section        0  exit.o(.text)
    locale$$code                             0x08004070   Section       44  lc_ctype_c.o(locale$$code)
    .constdata                               0x0800409c   Section      136  usb_desc.o(.constdata)
    .conststring                             0x08004124   Section        2  main.o(.conststring)
    locale$$data                             0x08004148   Section      272  lc_ctype_c.o(locale$$data)
    __lcctype_c_name                         0x0800414c   Data           2  lc_ctype_c.o(locale$$data)
    __lcctype_c_start                        0x08004154   Data           0  lc_ctype_c.o(locale$$data)
    __lcctype_c_end                          0x08004258   Data           0  lc_ctype_c.o(locale$$data)
    .data                                    0x20000000   Section      154  main.o(.data)
    UpdateFinished                           0x20000096   Data           1  main.o(.data)
    readFlag                                 0x20000098   Data           2  main.o(.data)
    .data                                    0x2000009a   Section        1  stm32f10x_it.o(.data)
    .data                                    0x2000009c   Section       20  system_stm32f10x.o(.data)
    .data                                    0x200000b0   Section       20  stm32f10x_rcc.o(.data)
    APBAHBPrescTable                         0x200000b0   Data          16  stm32f10x_rcc.o(.data)
    ADCPrescTable                            0x200000c0   Data           4  stm32f10x_rcc.o(.data)
    .data                                    0x200000c4   Section        4  delay.o(.data)
    fac_us                                   0x200000c4   Data           1  delay.o(.data)
    fac_ms                                   0x200000c6   Data           2  delay.o(.data)
    .data                                    0x200000c8   Section       26  usb_desc.o(.data)
    .data                                    0x200000e4   Section       72  usb_endp.o(.data)
    .data                                    0x2000012c   Section       68  usb_istr.o(.data)
    .data                                    0x20000170   Section      156  usb_prop.o(.data)
    .data                                    0x2000020c   Section       12  usb_pwr.o(.data)
    .data                                    0x20000218   Section        3  usb_core.o(.data)
    .data                                    0x2000021c   Section       20  usb_init.o(.data)
    .data                                    0x20000230   Section        4  usb_int.o(.data)
    .data                                    0x20000234   Section        4  strtok.o(.data)
    _strtok_saves1                           0x20000234   Data           4  strtok.o(.data)
    .bss                                     0x20000238   Section     4160  main.o(.bss)
    .bss                                     0x20001278   Section     2048  na7600_stm32_inflash.o(.bss)
    .bss                                     0x20001a78   Section       28  usb_init.o(.bss)
    .bss                                     0x20001a94   Section       96  libspace.o(.bss)
    HEAP                                     0x20001af8   Section      512  startup_stm32f10x_hd.o(HEAP)
    Heap_Mem                                 0x20001af8   Data         512  startup_stm32f10x_hd.o(HEAP)
    STACK                                    0x20001cf8   Section     1024  startup_stm32f10x_hd.o(STACK)
    Stack_Mem                                0x20001cf8   Data        1024  startup_stm32f10x_hd.o(STACK)
    __initial_sp                             0x200020f8   Data           0  startup_stm32f10x_hd.o(STACK)

    Global Symbols

    Symbol Name                              Value     Ov Type        Size  Object(Section)

    BuildAttributes$$THM_ISAv4$P$D$K$B$S$PE$A:L22UL41UL21$X:L11$S22US41US21$IEEE1$IW$USESV6$~STKCKD$USESV7$~SHL$OSPACE$ROPI$EBA8$UX$STANDARDLIB$REQ8$PRES8$EABIv2 0x00000000   Number         0  anon$$obj.o ABSOLUTE
    __ARM_use_no_argv                        0x00000000   Number         0  main.o ABSOLUTE
    __ARM_exceptions_init                     - Undefined Weak Reference
    __alloca_initialize                       - Undefined Weak Reference
    __arm_preinit_                            - Undefined Weak Reference
    __cpp_initialize__aeabi_                  - Undefined Weak Reference
    __cxa_finalize                            - Undefined Weak Reference
    __sigvec_lookup                           - Undefined Weak Reference
    _atexit_init                              - Undefined Weak Reference
    _call_atexit_fns                          - Undefined Weak Reference
    _clock_init                               - Undefined Weak Reference
    _fp_trap_init                             - Undefined Weak Reference
    _fp_trap_shutdown                         - Undefined Weak Reference
    _get_lc_collate                           - Undefined Weak Reference
    _get_lc_monetary                          - Undefined Weak Reference
    _get_lc_numeric                           - Undefined Weak Reference
    _get_lc_time                              - Undefined Weak Reference
    _getenv_init                              - Undefined Weak Reference
    _handle_redirection                       - Undefined Weak Reference
    _init_alloc                               - Undefined Weak Reference
    _init_user_alloc                          - Undefined Weak Reference
    _initio                                   - Undefined Weak Reference
    _rand_init                                - Undefined Weak Reference
    _signal_finish                            - Undefined Weak Reference
    _signal_init                              - Undefined Weak Reference
    _terminate_alloc                          - Undefined Weak Reference
    _terminate_user_alloc                     - Undefined Weak Reference
    _terminateio                              - Undefined Weak Reference
    __Vectors_Size                           0x00000130   Number         0  startup_stm32f10x_hd.o ABSOLUTE
    __Vectors                                0x08000000   Data           4  startup_stm32f10x_hd.o(RESET)
    __Vectors_End                            0x08000130   Data           0  startup_stm32f10x_hd.o(RESET)
    __main                                   0x08000131   Thumb Code     8  __main.o(!!!main)
    __scatterload                            0x08000139   Thumb Code     0  __scatter.o(!!!scatter)
    __scatterload_rt2                        0x08000139   Thumb Code    44  __scatter.o(!!!scatter)
    __scatterload_rt2_thumb_only             0x08000139   Thumb Code     0  __scatter.o(!!!scatter)
    __scatterload_null                       0x08000147   Thumb Code     0  __scatter.o(!!!scatter)
    __decompress                             0x0800016d   Thumb Code    90  __dczerorl2.o(!!dczerorl2)
    __decompress1                            0x0800016d   Thumb Code     0  __dczerorl2.o(!!dczerorl2)
    __scatterload_zeroinit                   0x080001c9   Thumb Code    28  __scatter_zi.o(!!handler_zi)
    __rt_lib_init                            0x080001e5   Thumb Code     0  libinit.o(.ARM.Collect$$libinit$$00000000)
    __rt_lib_init_fp_1                       0x080001e7   Thumb Code     0  libinit2.o(.ARM.Collect$$libinit$$00000002)
    __rt_lib_init_heap_1                     0x080001e7   Thumb Code     0  libinit2.o(.ARM.Collect$$libinit$$0000000A)
    __rt_lib_init_lc_common                  0x080001e7   Thumb Code     0  libinit2.o(.ARM.Collect$$libinit$$0000000F)
    __rt_lib_init_preinit_1                  0x080001e7   Thumb Code     0  libinit2.o(.ARM.Collect$$libinit$$00000004)
    __rt_lib_init_rand_1                     0x080001e7   Thumb Code     0  libinit2.o(.ARM.Collect$$libinit$$0000000E)
    __rt_lib_init_user_alloc_1               0x080001e7   Thumb Code     0  libinit2.o(.ARM.Collect$$libinit$$0000000C)
    __rt_lib_init_lc_collate_1               0x080001ed   Thumb Code     0  libinit2.o(.ARM.Collect$$libinit$$00000011)
    __rt_lib_init_lc_ctype_2                 0x080001ed   Thumb Code     0  libinit2.o(.ARM.Collect$$libinit$$00000012)
    __rt_lib_init_alloca_1                   0x080001f9   Thumb Code     0  libinit2.o(.ARM.Collect$$libinit$$0000002E)
    __rt_lib_init_argv_1                     0x080001f9   Thumb Code     0  libinit2.o(.ARM.Collect$$libinit$$0000002C)
    __rt_lib_init_atexit_1                   0x080001f9   Thumb Code     0  libinit2.o(.ARM.Collect$$libinit$$0000001B)
    __rt_lib_init_clock_1                    0x080001f9   Thumb Code     0  libinit2.o(.ARM.Collect$$libinit$$00000021)
    __rt_lib_init_cpp_1                      0x080001f9   Thumb Code     0  libinit2.o(.ARM.Collect$$libinit$$00000032)
    __rt_lib_init_exceptions_1               0x080001f9   Thumb Code     0  libinit2.o(.ARM.Collect$$libinit$$00000030)
    __rt_lib_init_fp_trap_1                  0x080001f9   Thumb Code     0  libinit2.o(.ARM.Collect$$libinit$$0000001F)
    __rt_lib_init_getenv_1                   0x080001f9   Thumb Code     0  libinit2.o(.ARM.Collect$$libinit$$00000023)
    __rt_lib_init_lc_ctype_1                 0x080001f9   Thumb Code     0  libinit2.o(.ARM.Collect$$libinit$$00000013)
    __rt_lib_init_lc_monetary_1              0x080001f9   Thumb Code     0  libinit2.o(.ARM.Collect$$libinit$$00000015)
    __rt_lib_init_lc_numeric_1               0x080001f9   Thumb Code     0  libinit2.o(.ARM.Collect$$libinit$$00000017)
    __rt_lib_init_lc_time_1                  0x080001f9   Thumb Code     0  libinit2.o(.ARM.Collect$$libinit$$00000019)
    __rt_lib_init_return                     0x080001f9   Thumb Code     0  libinit2.o(.ARM.Collect$$libinit$$00000033)
    __rt_lib_init_signal_1                   0x080001f9   Thumb Code     0  libinit2.o(.ARM.Collect$$libinit$$0000001D)
    __rt_lib_init_stdio_1                    0x080001f9   Thumb Code     0  libinit2.o(.ARM.Collect$$libinit$$00000025)
    __rt_lib_shutdown                        0x080001fb   Thumb Code     0  libshutdown.o(.ARM.Collect$$libshutdown$$00000000)
    __rt_lib_shutdown_cpp_1                  0x080001fd   Thumb Code     0  libshutdown2.o(.ARM.Collect$$libshutdown$$00000002)
    __rt_lib_shutdown_fp_trap_1              0x080001fd   Thumb Code     0  libshutdown2.o(.ARM.Collect$$libshutdown$$00000007)
    __rt_lib_shutdown_heap_1                 0x080001fd   Thumb Code     0  libshutdown2.o(.ARM.Collect$$libshutdown$$0000000F)
    __rt_lib_shutdown_return                 0x080001fd   Thumb Code     0  libshutdown2.o(.ARM.Collect$$libshutdown$$00000010)
    __rt_lib_shutdown_signal_1               0x080001fd   Thumb Code     0  libshutdown2.o(.ARM.Collect$$libshutdown$$0000000A)
    __rt_lib_shutdown_stdio_1                0x080001fd   Thumb Code     0  libshutdown2.o(.ARM.Collect$$libshutdown$$00000004)
    __rt_lib_shutdown_user_alloc_1           0x080001fd   Thumb Code     0  libshutdown2.o(.ARM.Collect$$libshutdown$$0000000C)
    __rt_entry                               0x080001ff   Thumb Code     0  __rtentry.o(.ARM.Collect$$rtentry$$00000000)
    __rt_entry_presh_1                       0x080001ff   Thumb Code     0  __rtentry2.o(.ARM.Collect$$rtentry$$00000002)
    __rt_entry_sh                            0x080001ff   Thumb Code     0  __rtentry4.o(.ARM.Collect$$rtentry$$00000004)
    __rt_entry_li                            0x08000205   Thumb Code     0  __rtentry2.o(.ARM.Collect$$rtentry$$0000000A)
    __rt_entry_postsh_1                      0x08000205   Thumb Code     0  __rtentry2.o(.ARM.Collect$$rtentry$$00000009)
    __rt_entry_main                          0x08000209   Thumb Code     0  __rtentry2.o(.ARM.Collect$$rtentry$$0000000D)
    __rt_entry_postli_1                      0x08000209   Thumb Code     0  __rtentry2.o(.ARM.Collect$$rtentry$$0000000C)
    __rt_exit                                0x08000211   Thumb Code     0  rtexit.o(.ARM.Collect$$rtexit$$00000000)
    __rt_exit_ls                             0x08000213   Thumb Code     0  rtexit2.o(.ARM.Collect$$rtexit$$00000003)
    __rt_exit_prels_1                        0x08000213   Thumb Code     0  rtexit2.o(.ARM.Collect$$rtexit$$00000002)
    __rt_exit_exit                           0x08000217   Thumb Code     0  rtexit2.o(.ARM.Collect$$rtexit$$00000004)
    MSR_MSP                                  0x0800021d   Thumb Code     6  main.o(.emb_text)
    iap_load_app                             0x08000225   Thumb Code    36  main.o(.text)
    USB_SendString                           0x08000249   Thumb Code    58  main.o(.text)
    usb_port_set                             0x08000283   Thumb Code    74  main.o(.text)
    SoftReset                                0x080002cd   Thumb Code    38  main.o(.text)
    main                                     0x080002f3   Thumb Code   432  main.o(.text)
    NMI_Handler                              0x080004f5   Thumb Code     2  stm32f10x_it.o(.text)
    HardFault_Handler                        0x080004f7   Thumb Code     4  stm32f10x_it.o(.text)
    MemManage_Handler                        0x080004fb   Thumb Code     4  stm32f10x_it.o(.text)
    BusFault_Handler                         0x080004ff   Thumb Code     4  stm32f10x_it.o(.text)
    UsageFault_Handler                       0x08000503   Thumb Code     4  stm32f10x_it.o(.text)
    SVC_Handler                              0x08000507   Thumb Code     2  stm32f10x_it.o(.text)
    DebugMon_Handler                         0x08000509   Thumb Code     2  stm32f10x_it.o(.text)
    PendSV_Handler                           0x0800050b   Thumb Code     2  stm32f10x_it.o(.text)
    SysTick_Handler                          0x0800050d   Thumb Code     2  stm32f10x_it.o(.text)
    USART1_IRQHandler                        0x0800050f   Thumb Code    32  stm32f10x_it.o(.text)
    SystemInit                               0x08000617   Thumb Code    78  system_stm32f10x.o(.text)
    SystemCoreClockUpdate                    0x08000665   Thumb Code   142  system_stm32f10x.o(.text)
    STMFLASH_Write_NoCheck                   0x08000719   Thumb Code    38  na7600_stm32_inflash.o(.text)
    STMFLASH_ReadHalfWord                    0x0800073f   Thumb Code     6  na7600_stm32_inflash.o(.text)
    STMFLASH_Read                            0x08000745   Thumb Code    34  na7600_stm32_inflash.o(.text)
    STMFLASH_Write                           0x08000767   Thumb Code   222  na7600_stm32_inflash.o(.text)
    Test_Write                               0x08000845   Thumb Code    16  na7600_stm32_inflash.o(.text)
    LED_Init                                 0x0800085d   Thumb Code    72  led.o(.text)
    Reset_Handler                            0x080008ad   Thumb Code     8  startup_stm32f10x_hd.o(.text)
    ADC1_2_IRQHandler                        0x080008c7   Thumb Code     0  startup_stm32f10x_hd.o(.text)
    ADC3_IRQHandler                          0x080008c7   Thumb Code     0  startup_stm32f10x_hd.o(.text)
    CAN1_RX1_IRQHandler                      0x080008c7   Thumb Code     0  startup_stm32f10x_hd.o(.text)
    CAN1_SCE_IRQHandler                      0x080008c7   Thumb Code     0  startup_stm32f10x_hd.o(.text)
    DMA1_Channel1_IRQHandler                 0x080008c7   Thumb Code     0  startup_stm32f10x_hd.o(.text)
    DMA1_Channel2_IRQHandler                 0x080008c7   Thumb Code     0  startup_stm32f10x_hd.o(.text)
    DMA1_Channel3_IRQHandler                 0x080008c7   Thumb Code     0  startup_stm32f10x_hd.o(.text)
    DMA1_Channel4_IRQHandler                 0x080008c7   Thumb Code     0  startup_stm32f10x_hd.o(.text)
    DMA1_Channel5_IRQHandler                 0x080008c7   Thumb Code     0  startup_stm32f10x_hd.o(.text)
    DMA1_Channel6_IRQHandler                 0x080008c7   Thumb Code     0  startup_stm32f10x_hd.o(.text)
    DMA1_Channel7_IRQHandler                 0x080008c7   Thumb Code     0  startup_stm32f10x_hd.o(.text)
    DMA2_Channel1_IRQHandler                 0x080008c7   Thumb Code     0  startup_stm32f10x_hd.o(.text)
    DMA2_Channel2_IRQHandler                 0x080008c7   Thumb Code     0  startup_stm32f10x_hd.o(.text)
    DMA2_Channel3_IRQHandler                 0x080008c7   Thumb Code     0  startup_stm32f10x_hd.o(.text)
    DMA2_Channel4_5_IRQHandler               0x080008c7   Thumb Code     0  startup_stm32f10x_hd.o(.text)
    EXTI0_IRQHandler                         0x080008c7   Thumb Code     0  startup_stm32f10x_hd.o(.text)
    EXTI15_10_IRQHandler                     0x080008c7   Thumb Code     0  startup_stm32f10x_hd.o(.text)
    EXTI1_IRQHandler                         0x080008c7   Thumb Code     0  startup_stm32f10x_hd.o(.text)
    EXTI2_IRQHandler                         0x080008c7   Thumb Code     0  startup_stm32f10x_hd.o(.text)
    EXTI3_IRQHandler                         0x080008c7   Thumb Code     0  startup_stm32f10x_hd.o(.text)
    EXTI4_IRQHandler                         0x080008c7   Thumb Code     0  startup_stm32f10x_hd.o(.text)
    EXTI9_5_IRQHandler                       0x080008c7   Thumb Code     0  startup_stm32f10x_hd.o(.text)
    FLASH_IRQHandler                         0x080008c7   Thumb Code     0  startup_stm32f10x_hd.o(.text)
    FSMC_IRQHandler                          0x080008c7   Thumb Code     0  startup_stm32f10x_hd.o(.text)
    I2C1_ER_IRQHandler                       0x080008c7   Thumb Code     0  startup_stm32f10x_hd.o(.text)
    I2C1_EV_IRQHandler                       0x080008c7   Thumb Code     0  startup_stm32f10x_hd.o(.text)
    I2C2_ER_IRQHandler                       0x080008c7   Thumb Code     0  startup_stm32f10x_hd.o(.text)
    I2C2_EV_IRQHandler                       0x080008c7   Thumb Code     0  startup_stm32f10x_hd.o(.text)
    PVD_IRQHandler                           0x080008c7   Thumb Code     0  startup_stm32f10x_hd.o(.text)
    RCC_IRQHandler                           0x080008c7   Thumb Code     0  startup_stm32f10x_hd.o(.text)
    RTCAlarm_IRQHandler                      0x080008c7   Thumb Code     0  startup_stm32f10x_hd.o(.text)
    RTC_IRQHandler                           0x080008c7   Thumb Code     0  startup_stm32f10x_hd.o(.text)
    SDIO_IRQHandler                          0x080008c7   Thumb Code     0  startup_stm32f10x_hd.o(.text)
    SPI1_IRQHandler                          0x080008c7   Thumb Code     0  startup_stm32f10x_hd.o(.text)
    SPI2_IRQHandler                          0x080008c7   Thumb Code     0  startup_stm32f10x_hd.o(.text)
    SPI3_IRQHandler                          0x080008c7   Thumb Code     0  startup_stm32f10x_hd.o(.text)
    TAMPER_IRQHandler                        0x080008c7   Thumb Code     0  startup_stm32f10x_hd.o(.text)
    TIM1_BRK_IRQHandler                      0x080008c7   Thumb Code     0  startup_stm32f10x_hd.o(.text)
    TIM1_CC_IRQHandler                       0x080008c7   Thumb Code     0  startup_stm32f10x_hd.o(.text)
    TIM1_TRG_COM_IRQHandler                  0x080008c7   Thumb Code     0  startup_stm32f10x_hd.o(.text)
    TIM1_UP_IRQHandler                       0x080008c7   Thumb Code     0  startup_stm32f10x_hd.o(.text)
    TIM2_IRQHandler                          0x080008c7   Thumb Code     0  startup_stm32f10x_hd.o(.text)
    TIM3_IRQHandler                          0x080008c7   Thumb Code     0  startup_stm32f10x_hd.o(.text)
    TIM4_IRQHandler                          0x080008c7   Thumb Code     0  startup_stm32f10x_hd.o(.text)
    TIM5_IRQHandler                          0x080008c7   Thumb Code     0  startup_stm32f10x_hd.o(.text)
    TIM6_IRQHandler                          0x080008c7   Thumb Code     0  startup_stm32f10x_hd.o(.text)
    TIM7_IRQHandler                          0x080008c7   Thumb Code     0  startup_stm32f10x_hd.o(.text)
    TIM8_BRK_IRQHandler                      0x080008c7   Thumb Code     0  startup_stm32f10x_hd.o(.text)
    TIM8_CC_IRQHandler                       0x080008c7   Thumb Code     0  startup_stm32f10x_hd.o(.text)
    TIM8_TRG_COM_IRQHandler                  0x080008c7   Thumb Code     0  startup_stm32f10x_hd.o(.text)
    TIM8_UP_IRQHandler                       0x080008c7   Thumb Code     0  startup_stm32f10x_hd.o(.text)
    UART4_IRQHandler                         0x080008c7   Thumb Code     0  startup_stm32f10x_hd.o(.text)
    UART5_IRQHandler                         0x080008c7   Thumb Code     0  startup_stm32f10x_hd.o(.text)
    USART2_IRQHandler                        0x080008c7   Thumb Code     0  startup_stm32f10x_hd.o(.text)
    USART3_IRQHandler                        0x080008c7   Thumb Code     0  startup_stm32f10x_hd.o(.text)
    USB_HP_CAN1_TX_IRQHandler                0x080008c7   Thumb Code     0  startup_stm32f10x_hd.o(.text)
    WWDG_IRQHandler                          0x080008c7   Thumb Code     0  startup_stm32f10x_hd.o(.text)
    __user_initial_stackheap                 0x080008c9   Thumb Code     0  startup_stm32f10x_hd.o(.text)
    NVIC_PriorityGroupConfig                 0x080008ed   Thumb Code    10  misc.o(.text)
    NVIC_Init                                0x080008f7   Thumb Code   100  misc.o(.text)
    NVIC_SetVectorTable                      0x0800095b   Thumb Code    14  misc.o(.text)
    NVIC_SystemLPConfig                      0x08000969   Thumb Code    34  misc.o(.text)
    SysTick_CLKSourceConfig                  0x0800098b   Thumb Code    40  misc.o(.text)
    EXTI_DeInit                              0x080009c9   Thumb Code    28  stm32f10x_exti.o(.text)
    EXTI_Init                                0x080009e5   Thumb Code   142  stm32f10x_exti.o(.text)
    EXTI_StructInit                          0x08000a73   Thumb Code    16  stm32f10x_exti.o(.text)
    EXTI_GenerateSWInterrupt                 0x08000a83   Thumb Code    16  stm32f10x_exti.o(.text)
    EXTI_GetFlagStatus                       0x08000a93   Thumb Code    22  stm32f10x_exti.o(.text)
    EXTI_ClearFlag                           0x08000aa9   Thumb Code     8  stm32f10x_exti.o(.text)
    EXTI_GetITStatus                         0x08000ab1   Thumb Code    34  stm32f10x_exti.o(.text)
    EXTI_ClearITPendingBit                   0x08000ad3   Thumb Code     8  stm32f10x_exti.o(.text)
    FLASH_SetLatency                         0x08000ae5   Thumb Code    18  stm32f10x_flash.o(.text)
    FLASH_HalfCycleAccessCmd                 0x08000af7   Thumb Code    22  stm32f10x_flash.o(.text)
    FLASH_PrefetchBufferCmd                  0x08000b0d   Thumb Code    22  stm32f10x_flash.o(.text)
    FLASH_Unlock                             0x08000b23   Thumb Code    12  stm32f10x_flash.o(.text)
    FLASH_UnlockBank1                        0x08000b2f   Thumb Code    12  stm32f10x_flash.o(.text)
    FLASH_Lock                               0x08000b3b   Thumb Code    14  stm32f10x_flash.o(.text)
    FLASH_LockBank1                          0x08000b49   Thumb Code    14  stm32f10x_flash.o(.text)
    FLASH_GetBank1Status                     0x08000b57   Thumb Code    48  stm32f10x_flash.o(.text)
    FLASH_WaitForLastOperation               0x08000b87   Thumb Code    38  stm32f10x_flash.o(.text)
    FLASH_ErasePage                          0x08000bad   Thumb Code    72  stm32f10x_flash.o(.text)
    FLASH_EraseAllPages                      0x08000bf5   Thumb Code    68  stm32f10x_flash.o(.text)
    FLASH_WaitForLastBank1Operation          0x08000c39   Thumb Code    38  stm32f10x_flash.o(.text)
    FLASH_EraseAllBank1Pages                 0x08000c5f   Thumb Code    68  stm32f10x_flash.o(.text)
    FLASH_GetReadOutProtectionStatus         0x08000ca3   Thumb Code    20  stm32f10x_flash.o(.text)
    FLASH_EraseOptionBytes                   0x08000cb7   Thumb Code   150  stm32f10x_flash.o(.text)
    FLASH_ProgramWord                        0x08000d4d   Thumb Code   102  stm32f10x_flash.o(.text)
    FLASH_ProgramHalfWord                    0x08000db3   Thumb Code    60  stm32f10x_flash.o(.text)
    FLASH_ProgramOptionByteData              0x08000def   Thumb Code    72  stm32f10x_flash.o(.text)
    FLASH_EnableWriteProtection              0x08000e37   Thumb Code   200  stm32f10x_flash.o(.text)
    FLASH_ReadOutProtection                  0x08000eff   Thumb Code   156  stm32f10x_flash.o(.text)
    FLASH_UserOptionByteConfig               0x08000f9b   Thumb Code    88  stm32f10x_flash.o(.text)
    FLASH_GetUserOptionByte                  0x08000ff3   Thumb Code     8  stm32f10x_flash.o(.text)
    FLASH_GetWriteProtectionOptionByte       0x08000ffb   Thumb Code     6  stm32f10x_flash.o(.text)
    FLASH_GetPrefetchBufferStatus            0x08001001   Thumb Code    20  stm32f10x_flash.o(.text)
    FLASH_ITConfig                           0x08001015   Thumb Code    26  stm32f10x_flash.o(.text)
    FLASH_GetFlagStatus                      0x0800102f   Thumb Code    42  stm32f10x_flash.o(.text)
    FLASH_ClearFlag                          0x08001059   Thumb Code     6  stm32f10x_flash.o(.text)
    FLASH_GetStatus                          0x0800105f   Thumb Code    48  stm32f10x_flash.o(.text)
    GPIO_DeInit                              0x080010a1   Thumb Code   172  stm32f10x_gpio.o(.text)
    GPIO_AFIODeInit                          0x0800114d   Thumb Code    20  stm32f10x_gpio.o(.text)
    GPIO_Init                                0x08001161   Thumb Code   278  stm32f10x_gpio.o(.text)
    GPIO_StructInit                          0x08001277   Thumb Code    16  stm32f10x_gpio.o(.text)
    GPIO_ReadInputDataBit                    0x08001287   Thumb Code    18  stm32f10x_gpio.o(.text)
    GPIO_ReadInputData                       0x08001299   Thumb Code     8  stm32f10x_gpio.o(.text)
    GPIO_ReadOutputDataBit                   0x080012a1   Thumb Code    18  stm32f10x_gpio.o(.text)
    GPIO_ReadOutputData                      0x080012b3   Thumb Code     8  stm32f10x_gpio.o(.text)
    GPIO_SetBits                             0x080012bb   Thumb Code     4  stm32f10x_gpio.o(.text)
    GPIO_ResetBits                           0x080012bf   Thumb Code     4  stm32f10x_gpio.o(.text)
    GPIO_WriteBit                            0x080012c3   Thumb Code    10  stm32f10x_gpio.o(.text)
    GPIO_Write                               0x080012cd   Thumb Code     4  stm32f10x_gpio.o(.text)
    GPIO_PinLockConfig                       0x080012d1   Thumb Code    18  stm32f10x_gpio.o(.text)
    GPIO_EventOutputConfig                   0x080012e3   Thumb Code    26  stm32f10x_gpio.o(.text)
    GPIO_EventOutputCmd                      0x080012fd   Thumb Code     6  stm32f10x_gpio.o(.text)
    GPIO_PinRemapConfig                      0x08001303   Thumb Code   138  stm32f10x_gpio.o(.text)
    GPIO_EXTILineConfig                      0x0800138d   Thumb Code    66  stm32f10x_gpio.o(.text)
    GPIO_ETH_MediaInterfaceConfig            0x080013cf   Thumb Code     8  stm32f10x_gpio.o(.text)
    RCC_DeInit                               0x080013fd   Thumb Code    64  stm32f10x_rcc.o(.text)
    RCC_HSEConfig                            0x0800143d   Thumb Code    70  stm32f10x_rcc.o(.text)
    RCC_GetFlagStatus                        0x08001483   Thumb Code    56  stm32f10x_rcc.o(.text)
    RCC_WaitForHSEStartUp                    0x080014bb   Thumb Code    56  stm32f10x_rcc.o(.text)
    RCC_AdjustHSICalibrationValue            0x080014f3   Thumb Code    20  stm32f10x_rcc.o(.text)
    RCC_HSICmd                               0x08001507   Thumb Code     6  stm32f10x_rcc.o(.text)
    RCC_PLLConfig                            0x0800150d   Thumb Code    24  stm32f10x_rcc.o(.text)
    RCC_PLLCmd                               0x08001525   Thumb Code     6  stm32f10x_rcc.o(.text)
    RCC_SYSCLKConfig                         0x0800152b   Thumb Code    18  stm32f10x_rcc.o(.text)
    RCC_GetSYSCLKSource                      0x0800153d   Thumb Code    10  stm32f10x_rcc.o(.text)
    RCC_HCLKConfig                           0x08001547   Thumb Code    18  stm32f10x_rcc.o(.text)
    RCC_PCLK1Config                          0x08001559   Thumb Code    18  stm32f10x_rcc.o(.text)
    RCC_PCLK2Config                          0x0800156b   Thumb Code    20  stm32f10x_rcc.o(.text)
    RCC_ITConfig                             0x0800157f   Thumb Code    26  stm32f10x_rcc.o(.text)
    RCC_USBCLKConfig                         0x08001599   Thumb Code     8  stm32f10x_rcc.o(.text)
    RCC_ADCCLKConfig                         0x080015a1   Thumb Code    18  stm32f10x_rcc.o(.text)
    RCC_LSEConfig                            0x080015b3   Thumb Code    50  stm32f10x_rcc.o(.text)
    RCC_LSICmd                               0x080015e5   Thumb Code     6  stm32f10x_rcc.o(.text)
    RCC_RTCCLKConfig                         0x080015eb   Thumb Code    12  stm32f10x_rcc.o(.text)
    RCC_RTCCLKCmd                            0x080015f7   Thumb Code     8  stm32f10x_rcc.o(.text)
    RCC_GetClocksFreq                        0x080015ff   Thumb Code   192  stm32f10x_rcc.o(.text)
    RCC_AHBPeriphClockCmd                    0x080016bf   Thumb Code    26  stm32f10x_rcc.o(.text)
    RCC_APB2PeriphClockCmd                   0x080016d9   Thumb Code    26  stm32f10x_rcc.o(.text)
    RCC_APB1PeriphClockCmd                   0x080016f3   Thumb Code    26  stm32f10x_rcc.o(.text)
    RCC_APB2PeriphResetCmd                   0x0800170d   Thumb Code    26  stm32f10x_rcc.o(.text)
    RCC_APB1PeriphResetCmd                   0x08001727   Thumb Code    26  stm32f10x_rcc.o(.text)
    RCC_BackupResetCmd                       0x08001741   Thumb Code     8  stm32f10x_rcc.o(.text)
    RCC_ClockSecuritySystemCmd               0x08001749   Thumb Code     6  stm32f10x_rcc.o(.text)
    RCC_MCOConfig                            0x0800174f   Thumb Code     6  stm32f10x_rcc.o(.text)
    RCC_ClearFlag                            0x08001755   Thumb Code    14  stm32f10x_rcc.o(.text)
    RCC_GetITStatus                          0x08001763   Thumb Code    20  stm32f10x_rcc.o(.text)
    RCC_ClearITPendingBit                    0x08001777   Thumb Code     6  stm32f10x_rcc.o(.text)
    USART_DeInit                             0x080017a1   Thumb Code   134  stm32f10x_usart.o(.text)
    USART_Init                               0x08001827   Thumb Code   210  stm32f10x_usart.o(.text)
    USART_StructInit                         0x080018f9   Thumb Code    24  stm32f10x_usart.o(.text)
    USART_ClockInit                          0x08001911   Thumb Code    34  stm32f10x_usart.o(.text)
    USART_ClockStructInit                    0x08001933   Thumb Code    12  stm32f10x_usart.o(.text)
    USART_Cmd                                0x0800193f   Thumb Code    24  stm32f10x_usart.o(.text)
    USART_ITConfig                           0x08001957   Thumb Code    74  stm32f10x_usart.o(.text)
    USART_DMACmd                             0x080019a1   Thumb Code    18  stm32f10x_usart.o(.text)
    USART_SetAddress                         0x080019b3   Thumb Code    18  stm32f10x_usart.o(.text)
    USART_WakeUpConfig                       0x080019c5   Thumb Code    18  stm32f10x_usart.o(.text)
    USART_ReceiverWakeUpCmd                  0x080019d7   Thumb Code    24  stm32f10x_usart.o(.text)
    USART_LINBreakDetectLengthConfig         0x080019ef   Thumb Code    18  stm32f10x_usart.o(.text)
    USART_LINCmd                             0x08001a01   Thumb Code    24  stm32f10x_usart.o(.text)
    USART_SendData                           0x08001a19   Thumb Code     8  stm32f10x_usart.o(.text)
    USART_GetFlagStatus                      0x08001a21   Thumb Code    26  stm32f10x_usart.o(.text)
    USART_ClearFlag                          0x08001a3b   Thumb Code    18  stm32f10x_usart.o(.text)
    USART_SendString                         0x08001a4d   Thumb Code    54  stm32f10x_usart.o(.text)
    USART_ReceiveData                        0x08001a83   Thumb Code    10  stm32f10x_usart.o(.text)
    USART_SendBreak                          0x08001a8d   Thumb Code    10  stm32f10x_usart.o(.text)
    USART_SetGuardTime                       0x08001a97   Thumb Code    16  stm32f10x_usart.o(.text)
    USART_SetPrescaler                       0x08001aa7   Thumb Code    16  stm32f10x_usart.o(.text)
    USART_SmartCardCmd                       0x08001ab7   Thumb Code    24  stm32f10x_usart.o(.text)
    USART_SmartCardNACKCmd                   0x08001acf   Thumb Code    24  stm32f10x_usart.o(.text)
    USART_HalfDuplexCmd                      0x08001ae7   Thumb Code    24  stm32f10x_usart.o(.text)
    USART_OverSampling8Cmd                   0x08001aff   Thumb Code    22  stm32f10x_usart.o(.text)
    USART_OneBitMethodCmd                    0x08001b15   Thumb Code    24  stm32f10x_usart.o(.text)
    USART_IrDAConfig                         0x08001b2d   Thumb Code    18  stm32f10x_usart.o(.text)
    USART_IrDACmd                            0x08001b3f   Thumb Code    24  stm32f10x_usart.o(.text)
    USART_GetITStatus                        0x08001b57   Thumb Code   104  stm32f10x_usart.o(.text)
    USART_ClearITPendingBit                  0x08001bbf   Thumb Code    30  stm32f10x_usart.o(.text)
    delay_init                               0x08001bdd   Thumb Code    50  delay.o(.text)
    delay_us                                 0x08001c0f   Thumb Code    72  delay.o(.text)
    delay_ms                                 0x08001c57   Thumb Code    72  delay.o(.text)
    NVIC_Configuration                       0x08001cb1   Thumb Code    12  sys.o(.text)
    _sys_exit                                0x08001cbd   Thumb Code     6  myusart.o(.text)
    fputc                                    0x08001cc3   Thumb Code    24  myusart.o(.text)
    uart_init                                0x08001cdb   Thumb Code   166  myusart.o(.text)
    Set_USBClock                             0x08001d89   Thumb Code    18  hw_config.o(.text)
    Enter_LowPowerMode                       0x08001d9b   Thumb Code     8  hw_config.o(.text)
    Leave_LowPowerMode                       0x08001da3   Thumb Code    22  hw_config.o(.text)
    USB_Interrupts_Config                    0x08001db9   Thumb Code    92  hw_config.o(.text)
    Joystick_Send                            0x08001e15   Thumb Code    48  hw_config.o(.text)
    Get_SerialNum                            0x08001e83   Thumb Code    42  hw_config.o(.text)
    USB_LP_CAN1_RX0_IRQHandler               0x08001ebd   Thumb Code     8  stm32_it.o(.text)
    USBWakeUp_IRQHandler                     0x08001ec5   Thumb Code    12  stm32_it.o(.text)
    EP1_OUT_Callback                         0x08001ed1   Thumb Code    40  usb_endp.o(.text)
    EP2_IN_Callback                          0x08001ef9   Thumb Code     2  usb_endp.o(.text)
    USB_Istr                                 0x08001f09   Thumb Code   422  usb_istr.o(.text)
    Joystick_init                            0x080020d5   Thumb Code    30  usb_prop.o(.text)
    Joystick_Reset                           0x080020f3   Thumb Code   172  usb_prop.o(.text)
    Joystick_SetConfiguration                0x0800219f   Thumb Code    14  usb_prop.o(.text)
    Joystick_SetDeviceAddress                0x080021ad   Thumb Code     8  usb_prop.o(.text)
    Joystick_Status_In                       0x080021b5   Thumb Code     2  usb_prop.o(.text)
    Joystick_Status_Out                      0x080021b7   Thumb Code     2  usb_prop.o(.text)
    Joystick_GetProtocolValue                0x080021b9   Thumb Code    20  usb_prop.o(.text)
    Joystick_GetHIDDescriptor                0x080021cd   Thumb Code    14  usb_prop.o(.text)
    Joystick_GetReportDescriptor             0x080021db   Thumb Code    14  usb_prop.o(.text)
    Joystick_Data_Setup                      0x080021e9   Thumb Code   114  usb_prop.o(.text)
    Joystick_SetProtocol                     0x0800225b   Thumb Code    14  usb_prop.o(.text)
    Joystick_NoData_Setup                    0x08002269   Thumb Code    32  usb_prop.o(.text)
    Joystick_GetDeviceDescriptor             0x08002289   Thumb Code    14  usb_prop.o(.text)
    Joystick_GetConfigDescriptor             0x08002297   Thumb Code    14  usb_prop.o(.text)
    Joystick_GetStringDescriptor             0x080022a5   Thumb Code    32  usb_prop.o(.text)
    Joystick_Get_Interface_Setting           0x080022c5   Thumb Code    22  usb_prop.o(.text)
    PowerOn                                  0x08002309   Thumb Code    46  usb_pwr.o(.text)
    PowerOff                                 0x08002337   Thumb Code    22  usb_pwr.o(.text)
    Suspend                                  0x0800234d   Thumb Code    34  usb_pwr.o(.text)
    Resume_Init                              0x0800236f   Thumb Code    30  usb_pwr.o(.text)
    Resume                                   0x0800238d   Thumb Code   194  usb_pwr.o(.text)
    Standard_GetConfiguration                0x08002461   Thumb Code    34  usb_core.o(.text)
    Standard_SetConfiguration                0x08002483   Thumb Code    60  usb_core.o(.text)
    Standard_GetInterface                    0x080024bf   Thumb Code    34  usb_core.o(.text)
    Standard_SetInterface                    0x080024e1   Thumb Code    96  usb_core.o(.text)
    Standard_GetStatus                       0x08002541   Thumb Code   238  usb_core.o(.text)
    Standard_ClearFeature                    0x0800262f   Thumb Code   342  usb_core.o(.text)
    Standard_SetEndPointFeature              0x08002785   Thumb Code   220  usb_core.o(.text)
    Standard_SetDeviceFeature                0x08002861   Thumb Code    30  usb_core.o(.text)
    Standard_GetDescriptorData               0x0800287f   Thumb Code    32  usb_core.o(.text)
    Post0_Process                            0x08002db3   Thumb Code    54  usb_core.o(.text)
    Setup0_Process                           0x08002de9   Thumb Code   170  usb_core.o(.text)
    SetDeviceAddress                         0x08002e93   Thumb Code    70  usb_core.o(.text)
    In0_Process                              0x08002ed9   Thumb Code    98  usb_core.o(.text)
    Out0_Process                             0x08002f3b   Thumb Code    70  usb_core.o(.text)
    NOP_Process                              0x08002f81   Thumb Code     2  usb_core.o(.text)
    USB_Init                                 0x08002fb1   Thumb Code    36  usb_init.o(.text)
    CTR_LP                                   0x08002fed   Thumb Code   616  usb_int.o(.text)
    CTR_HP                                   0x08003255   Thumb Code   178  usb_int.o(.text)
    UserToPMABufferCopy                      0x08003329   Thumb Code    52  usb_mem.o(.text)
    PMAToUserBufferCopy                      0x0800335d   Thumb Code    34  usb_mem.o(.text)
    SetCNTR                                  0x08003385   Thumb Code     6  usb_regs.o(.text)
    GetCNTR                                  0x0800338b   Thumb Code     8  usb_regs.o(.text)
    SetISTR                                  0x08003393   Thumb Code     8  usb_regs.o(.text)
    GetISTR                                  0x0800339b   Thumb Code    10  usb_regs.o(.text)
    GetFNR                                   0x080033a5   Thumb Code    10  usb_regs.o(.text)
    SetDADDR                                 0x080033af   Thumb Code     8  usb_regs.o(.text)
    GetDADDR                                 0x080033b7   Thumb Code    10  usb_regs.o(.text)
    SetBTABLE                                0x080033c1   Thumb Code    14  usb_regs.o(.text)
    GetBTABLE                                0x080033cf   Thumb Code    10  usb_regs.o(.text)
    SetENDPOINT                              0x080033d9   Thumb Code    12  usb_regs.o(.text)
    GetENDPOINT                              0x080033e5   Thumb Code    16  usb_regs.o(.text)
    SetEPType                                0x080033f5   Thumb Code    32  usb_regs.o(.text)
    GetEPType                                0x08003415   Thumb Code    18  usb_regs.o(.text)
    SetEPTxStatus                            0x08003427   Thumb Code    60  usb_regs.o(.text)
    SetEPRxStatus                            0x08003463   Thumb Code    60  usb_regs.o(.text)
    SetDouBleBuffEPStall                     0x0800349f   Thumb Code    54  usb_regs.o(.text)
    GetEPTxStatus                            0x080034d5   Thumb Code    18  usb_regs.o(.text)
    GetEPRxStatus                            0x080034e7   Thumb Code    18  usb_regs.o(.text)
    SetEPTxValid                             0x080034f9   Thumb Code    48  usb_regs.o(.text)
    SetEPRxValid                             0x08003529   Thumb Code    48  usb_regs.o(.text)
    SetEP_KIND                               0x08003559   Thumb Code    38  usb_regs.o(.text)
    ClearEP_KIND                             0x0800357f   Thumb Code    34  usb_regs.o(.text)
    Clear_Status_Out                         0x080035a1   Thumb Code    34  usb_regs.o(.text)
    Set_Status_Out                           0x080035c3   Thumb Code    38  usb_regs.o(.text)
    SetEPDoubleBuff                          0x080035e9   Thumb Code    38  usb_regs.o(.text)
    ClearEPDoubleBuff                        0x0800360f   Thumb Code    34  usb_regs.o(.text)
    GetTxStallStatus                         0x08003631   Thumb Code    28  usb_regs.o(.text)
    GetRxStallStatus                         0x0800364d   Thumb Code    30  usb_regs.o(.text)
    ClearEP_CTR_RX                           0x0800366b   Thumb Code    32  usb_regs.o(.text)
    ClearEP_CTR_TX                           0x0800368b   Thumb Code    28  usb_regs.o(.text)
    ToggleDTOG_RX                            0x080036a7   Thumb Code    34  usb_regs.o(.text)
    ToggleDTOG_TX                            0x080036c9   Thumb Code    34  usb_regs.o(.text)
    ClearDTOG_RX                             0x080036eb   Thumb Code    48  usb_regs.o(.text)
    ClearDTOG_TX                             0x0800371b   Thumb Code    48  usb_regs.o(.text)
    SetEPAddress                             0x0800374b   Thumb Code    46  usb_regs.o(.text)
    GetEPAddress                             0x08003779   Thumb Code    18  usb_regs.o(.text)
    SetEPTxAddr                              0x0800378b   Thumb Code    24  usb_regs.o(.text)
    SetEPRxAddr                              0x080037a3   Thumb Code    26  usb_regs.o(.text)
    GetEPTxAddr                              0x080037bd   Thumb Code    22  usb_regs.o(.text)
    GetEPRxAddr                              0x080037d3   Thumb Code    24  usb_regs.o(.text)
    SetEPTxCount                             0x080037eb   Thumb Code    20  usb_regs.o(.text)
    SetEPCountRxReg                          0x080037ff   Thumb Code    48  usb_regs.o(.text)
    SetEPRxCount                             0x0800382f   Thumb Code    68  usb_regs.o(.text)
    GetEPTxCount                             0x08003873   Thumb Code    26  usb_regs.o(.text)
    GetEPRxCount                             0x0800388d   Thumb Code    26  usb_regs.o(.text)
    SetEPDblBuffAddr                         0x080038a7   Thumb Code    44  usb_regs.o(.text)
    SetEPDblBuf0Addr                         0x080038d3   Thumb Code    24  usb_regs.o(.text)
    SetEPDblBuf1Addr                         0x080038eb   Thumb Code    26  usb_regs.o(.text)
    GetEPDblBuf0Addr                         0x08003905   Thumb Code    22  usb_regs.o(.text)
    GetEPDblBuf1Addr                         0x0800391b   Thumb Code    24  usb_regs.o(.text)
    SetEPDblBuffCount                        0x08003933   Thumb Code   186  usb_regs.o(.text)
    SetEPDblBuf0Count                        0x080039ed   Thumb Code    96  usb_regs.o(.text)
    SetEPDblBuf1Count                        0x08003a4d   Thumb Code    96  usb_regs.o(.text)
    GetEPDblBuf0Count                        0x08003aad   Thumb Code    26  usb_regs.o(.text)
    GetEPDblBuf1Count                        0x08003ac7   Thumb Code    26  usb_regs.o(.text)
    GetEPDblBufDir                           0x08003ae1   Thumb Code    62  usb_regs.o(.text)
    FreeUserBuffer                           0x08003b1f   Thumb Code    90  usb_regs.o(.text)
    ToWord                                   0x08003b79   Thumb Code     8  usb_regs.o(.text)
    ByteSwap                                 0x08003b81   Thumb Code    12  usb_regs.o(.text)
    USB_SIL_Init                             0x08003b8d   Thumb Code    28  usb_sil.o(.text)
    USB_SIL_Write                            0x08003ba9   Thumb Code    46  usb_sil.o(.text)
    USB_SIL_Read                             0x08003bd7   Thumb Code    46  usb_sil.o(.text)
    __use_no_semihosting                     0x08003c0d   Thumb Code     2  use_no_semi_2.o(.text)
    atoi                                     0x08003c0f   Thumb Code    26  atoi.o(.text)
    strtok                                   0x08003c29   Thumb Code     6  strtok.o(.text)
    __aeabi_memcpy                           0x08003c35   Thumb Code     0  rt_memcpy_v6.o(.text)
    __rt_memcpy                              0x08003c35   Thumb Code   138  rt_memcpy_v6.o(.text)
    _memcpy_lastbytes                        0x08003c9b   Thumb Code     0  rt_memcpy_v6.o(.text)
    __aeabi_memclr                           0x08003cbf   Thumb Code     0  rt_memclr.o(.text)
    __rt_memclr                              0x08003cbf   Thumb Code    68  rt_memclr.o(.text)
    _memset                                  0x08003cc3   Thumb Code     0  rt_memclr.o(.text)
    strcmp                                   0x08003d05   Thumb Code   128  strcmpv7m.o(.text)
    __use_two_region_memory                  0x08003d85   Thumb Code     2  heapauxi.o(.text)
    __rt_heap_escrow$2region                 0x08003d87   Thumb Code     2  heapauxi.o(.text)
    __rt_heap_expand$2region                 0x08003d89   Thumb Code     2  heapauxi.o(.text)
    __I$use$semihosting                      0x08003d8b   Thumb Code     0  use_no_semi.o(.text)
    __use_no_semihosting_swi                 0x08003d8b   Thumb Code     2  use_no_semi.o(.text)
    __aeabi_errno_addr                       0x08003d8d   Thumb Code     8  rt_errno_addr_intlibspace.o(.text)
    __errno$intlibspace                      0x08003d8d   Thumb Code     0  rt_errno_addr_intlibspace.o(.text)
    __rt_errno_addr$intlibspace              0x08003d8d   Thumb Code     0  rt_errno_addr_intlibspace.o(.text)
    strtol                                   0x08003d95   Thumb Code   112  strtol.o(.text)
    __strtok_internal                        0x08003e05   Thumb Code    64  strtok_int.o(.text)
    __aeabi_memcpy4                          0x08003e49   Thumb Code     0  rt_memcpy_w.o(.text)
    __aeabi_memcpy8                          0x08003e49   Thumb Code     0  rt_memcpy_w.o(.text)
    __rt_memcpy_w                            0x08003e49   Thumb Code   100  rt_memcpy_w.o(.text)
    _memcpy_lastbytes_aligned                0x08003e91   Thumb Code     0  rt_memcpy_w.o(.text)
    __aeabi_memclr4                          0x08003ead   Thumb Code     0  rt_memclr_w.o(.text)
    __aeabi_memclr8                          0x08003ead   Thumb Code     0  rt_memclr_w.o(.text)
    __rt_memclr_w                            0x08003ead   Thumb Code    78  rt_memclr_w.o(.text)
    _memset_w                                0x08003eb1   Thumb Code     0  rt_memclr_w.o(.text)
    __user_libspace                          0x08003efd   Thumb Code     8  libspace.o(.text)
    __user_perproc_libspace                  0x08003efd   Thumb Code     0  libspace.o(.text)
    __user_perthread_libspace                0x08003efd   Thumb Code     0  libspace.o(.text)
    __rt_ctype_table                         0x08003f05   Thumb Code    16  rt_ctype_table.o(.text)
    _strtoul                                 0x08003f15   Thumb Code   158  _strtoul.o(.text)
    strcspn                                  0x08003fb3   Thumb Code    32  strcspn.o(.text)
    strspn                                   0x08003fd3   Thumb Code    28  strspn.o(.text)
    __user_setup_stackheap                   0x08003fef   Thumb Code    74  sys_stackheap_outer.o(.text)
    __rt_locale                              0x08004039   Thumb Code     8  rt_locale_intlibspace.o(.text)
    _chval                                   0x08004041   Thumb Code    28  _chval.o(.text)
    exit                                     0x0800405d   Thumb Code    18  exit.o(.text)
    _get_lc_ctype                            0x08004071   Thumb Code    44  lc_ctype_c.o(locale$$code)
    Joystick_DeviceDescriptor                0x0800409c   Data          18  usb_desc.o(.constdata)
    Joystick_ConfigDescriptor                0x080040ae   Data          41  usb_desc.o(.constdata)
    Joystick_ReportDescriptor                0x080040d7   Data          33  usb_desc.o(.constdata)
    Joystick_StringLangID                    0x080040f8   Data           4  usb_desc.o(.constdata)
    Joystick_StringVendor                    0x080040fc   Data          20  usb_desc.o(.constdata)
    Joystick_StringProduct                   0x08004110   Data          20  usb_desc.o(.constdata)
    Region$$Table$$Base                      0x08004128   Number         0  anon$$obj.o(Region$$Table)
    Region$$Table$$Limit                     0x08004148   Number         0  anon$$obj.o(Region$$Table)
    __ctype                                  0x08004155   Data           0  lc_ctype_c.o(locale$$data)
    jump2app                                 0x20000000   Data           4  main.o(.data)
    Jump_To_Application                      0x20000004   Data           4  main.o(.data)
    JumpAddress                              0x20000008   Data           4  main.o(.data)
    comma                                    0x2000000c   Data           4  main.o(.data)
    next_token                               0x20000010   Data           4  main.o(.data)
    UpPreparOk                               0x20000014   Data          64  main.o(.data)
    UpFinish                                 0x20000054   Data          64  main.o(.data)
    wrFlag                                   0x20000094   Data           2  main.o(.data)
    ReceiveFlag                              0x2000009a   Data           1  stm32f10x_it.o(.data)
    SystemCoreClock                          0x2000009c   Data           4  system_stm32f10x.o(.data)
    AHBPrescTable                            0x200000a0   Data          16  system_stm32f10x.o(.data)
    Joystick_StringSerial                    0x200000c8   Data          26  usb_desc.o(.data)
    UsbReceiveBuffer                         0x200000e4   Data          64  usb_endp.o(.data)
    USB_ReceiveFlg                           0x20000124   Data           1  usb_endp.o(.data)
    CountOut                                 0x20000128   Data           4  usb_endp.o(.data)
    wIstr                                    0x2000012c   Data           2  usb_istr.o(.data)
    bIntPackSOF                              0x2000012e   Data           1  usb_istr.o(.data)
    esof_counter                             0x20000130   Data           4  usb_istr.o(.data)
    wCNTR                                    0x20000134   Data           4  usb_istr.o(.data)
    pEpInt_IN                                0x20000138   Data          28  usb_istr.o(.data)
    pEpInt_OUT                               0x20000154   Data          28  usb_istr.o(.data)
    ProtocolValue                            0x20000170   Data           4  usb_prop.o(.data)
    Device_Table                             0x20000174   Data           2  usb_prop.o(.data)
    Device_Property                          0x20000178   Data          48  usb_prop.o(.data)
    User_Standard_Requests                   0x200001a8   Data          36  usb_prop.o(.data)
    Device_Descriptor                        0x200001cc   Data           8  usb_prop.o(.data)
    Config_Descriptor                        0x200001d4   Data           8  usb_prop.o(.data)
    Joystick_Report_Descriptor               0x200001dc   Data           8  usb_prop.o(.data)
    Mouse_Hid_Descriptor                     0x200001e4   Data           8  usb_prop.o(.data)
    String_Descriptor                        0x200001ec   Data          32  usb_prop.o(.data)
    bDeviceState                             0x2000020c   Data           4  usb_pwr.o(.data)
    fSuspendEnabled                          0x20000210   Data           1  usb_pwr.o(.data)
    ResumeS                                  0x20000211   Data           2  usb_pwr.o(.data)
    remotewakeupon                           0x20000214   Data           4  usb_pwr.o(.data)
    StatusInfo                               0x20000218   Data           2  usb_core.o(.data)
    Data_Mul_MaxPacketSize                   0x2000021a   Data           1  usb_core.o(.data)
    EPindex                                  0x2000021c   Data           1  usb_init.o(.data)
    pInformation                             0x20000220   Data           4  usb_init.o(.data)
    pProperty                                0x20000224   Data           4  usb_init.o(.data)
    SaveState                                0x20000228   Data           2  usb_init.o(.data)
    wInterrupt_Mask                          0x2000022a   Data           2  usb_init.o(.data)
    pUser_Standard_Requests                  0x2000022c   Data           4  usb_init.o(.data)
    SaveRState                               0x20000230   Data           2  usb_int.o(.data)
    SaveTState                               0x20000232   Data           2  usb_int.o(.data)
    UsbSendBuffer                            0x20000238   Data          64  main.o(.bss)
    wrFlash                                  0x20000278   Data        2048  main.o(.bss)
    reFlash                                  0x20000a78   Data        2048  main.o(.bss)
    STMFLASH_BUF                             0x20001278   Data        2048  na7600_stm32_inflash.o(.bss)
    Device_Info                              0x20001a78   Data          28  usb_init.o(.bss)
    __libspace_start                         0x20001a94   Data          96  libspace.o(.bss)
    __temporary_stack_top$libspace           0x20001af4   Data           0  libspace.o(.bss)



==============================================================================

Memory Map of the image

  Image Entry point : 0x08000131

  Load Region LR_IROM1 (Base: 0x08000000, Size: 0x00004490, Max: 0x00040000, ABSOLUTE, COMPRESSED[0x00004310])

    Execution Region ER_IROM1 (Base: 0x08000000, Size: 0x00004258, Max: 0x00040000, ABSOLUTE)

    Base Addr    Size         Type   Attr      Idx    E Section Name        Object

    0x08000000   0x00000130   Data   RO          221    RESET               startup_stm32f10x_hd.o
    0x08000130   0x00000008   Code   RO          746  * !!!main             c_w.l(__main.o)
    0x08000138   0x00000034   Code   RO          934    !!!scatter          c_w.l(__scatter.o)
    0x0800016c   0x0000005a   Code   RO          932    !!dczerorl2         c_w.l(__dczerorl2.o)
    0x080001c6   0x00000002   PAD
    0x080001c8   0x0000001c   Code   RO          936    !!handler_zi        c_w.l(__scatter_zi.o)
    0x080001e4   0x00000002   Code   RO          809    .ARM.Collect$$libinit$$00000000  c_w.l(libinit.o)
    0x080001e6   0x00000000   Code   RO          813    .ARM.Collect$$libinit$$00000002  c_w.l(libinit2.o)
    0x080001e6   0x00000000   Code   RO          815    .ARM.Collect$$libinit$$00000004  c_w.l(libinit2.o)
    0x080001e6   0x00000000   Code   RO          818    .ARM.Collect$$libinit$$0000000A  c_w.l(libinit2.o)
    0x080001e6   0x00000000   Code   RO          820    .ARM.Collect$$libinit$$0000000C  c_w.l(libinit2.o)
    0x080001e6   0x00000000   Code   RO          822    .ARM.Collect$$libinit$$0000000E  c_w.l(libinit2.o)
    0x080001e6   0x00000006   Code   RO          823    .ARM.Collect$$libinit$$0000000F  c_w.l(libinit2.o)
    0x080001ec   0x00000000   Code   RO          825    .ARM.Collect$$libinit$$00000011  c_w.l(libinit2.o)
    0x080001ec   0x0000000c   Code   RO          826    .ARM.Collect$$libinit$$00000012  c_w.l(libinit2.o)
    0x080001f8   0x00000000   Code   RO          827    .ARM.Collect$$libinit$$00000013  c_w.l(libinit2.o)
    0x080001f8   0x00000000   Code   RO          829    .ARM.Collect$$libinit$$00000015  c_w.l(libinit2.o)
    0x080001f8   0x00000000   Code   RO          831    .ARM.Collect$$libinit$$00000017  c_w.l(libinit2.o)
    0x080001f8   0x00000000   Code   RO          833    .ARM.Collect$$libinit$$00000019  c_w.l(libinit2.o)
    0x080001f8   0x00000000   Code   RO          835    .ARM.Collect$$libinit$$0000001B  c_w.l(libinit2.o)
    0x080001f8   0x00000000   Code   RO          837    .ARM.Collect$$libinit$$0000001D  c_w.l(libinit2.o)
    0x080001f8   0x00000000   Code   RO          839    .ARM.Collect$$libinit$$0000001F  c_w.l(libinit2.o)
    0x080001f8   0x00000000   Code   RO          841    .ARM.Collect$$libinit$$00000021  c_w.l(libinit2.o)
    0x080001f8   0x00000000   Code   RO          843    .ARM.Collect$$libinit$$00000023  c_w.l(libinit2.o)
    0x080001f8   0x00000000   Code   RO          845    .ARM.Collect$$libinit$$00000025  c_w.l(libinit2.o)
    0x080001f8   0x00000000   Code   RO          849    .ARM.Collect$$libinit$$0000002C  c_w.l(libinit2.o)
    0x080001f8   0x00000000   Code   RO          851    .ARM.Collect$$libinit$$0000002E  c_w.l(libinit2.o)
    0x080001f8   0x00000000   Code   RO          853    .ARM.Collect$$libinit$$00000030  c_w.l(libinit2.o)
    0x080001f8   0x00000000   Code   RO          855    .ARM.Collect$$libinit$$00000032  c_w.l(libinit2.o)
    0x080001f8   0x00000002   Code   RO          856    .ARM.Collect$$libinit$$00000033  c_w.l(libinit2.o)
    0x080001fa   0x00000002   Code   RO          874    .ARM.Collect$$libshutdown$$00000000  c_w.l(libshutdown.o)
    0x080001fc   0x00000000   Code   RO          884    .ARM.Collect$$libshutdown$$00000002  c_w.l(libshutdown2.o)
    0x080001fc   0x00000000   Code   RO          886    .ARM.Collect$$libshutdown$$00000004  c_w.l(libshutdown2.o)
    0x080001fc   0x00000000   Code   RO          889    .ARM.Collect$$libshutdown$$00000007  c_w.l(libshutdown2.o)
    0x080001fc   0x00000000   Code   RO          892    .ARM.Collect$$libshutdown$$0000000A  c_w.l(libshutdown2.o)
    0x080001fc   0x00000000   Code   RO          894    .ARM.Collect$$libshutdown$$0000000C  c_w.l(libshutdown2.o)
    0x080001fc   0x00000000   Code   RO          897    .ARM.Collect$$libshutdown$$0000000F  c_w.l(libshutdown2.o)
    0x080001fc   0x00000002   Code   RO          898    .ARM.Collect$$libshutdown$$00000010  c_w.l(libshutdown2.o)
    0x080001fe   0x00000000   Code   RO          750    .ARM.Collect$$rtentry$$00000000  c_w.l(__rtentry.o)
    0x080001fe   0x00000000   Code   RO          768    .ARM.Collect$$rtentry$$00000002  c_w.l(__rtentry2.o)
    0x080001fe   0x00000006   Code   RO          780    .ARM.Collect$$rtentry$$00000004  c_w.l(__rtentry4.o)
    0x08000204   0x00000000   Code   RO          770    .ARM.Collect$$rtentry$$00000009  c_w.l(__rtentry2.o)
    0x08000204   0x00000004   Code   RO          771    .ARM.Collect$$rtentry$$0000000A  c_w.l(__rtentry2.o)
    0x08000208   0x00000000   Code   RO          773    .ARM.Collect$$rtentry$$0000000C  c_w.l(__rtentry2.o)
    0x08000208   0x00000008   Code   RO          774    .ARM.Collect$$rtentry$$0000000D  c_w.l(__rtentry2.o)
    0x08000210   0x00000002   Code   RO          810    .ARM.Collect$$rtexit$$00000000  c_w.l(rtexit.o)
    0x08000212   0x00000000   Code   RO          858    .ARM.Collect$$rtexit$$00000002  c_w.l(rtexit2.o)
    0x08000212   0x00000004   Code   RO          859    .ARM.Collect$$rtexit$$00000003  c_w.l(rtexit2.o)
    0x08000216   0x00000006   Code   RO          860    .ARM.Collect$$rtexit$$00000004  c_w.l(rtexit2.o)
    0x0800021c   0x00000006   Code   RO            1    .emb_text           main.o
    0x08000222   0x00000002   PAD
    0x08000224   0x000002d0   Code   RO            2    .text               main.o
    0x080004f4   0x00000044   Code   RO          122    .text               stm32f10x_it.o
    0x08000538   0x000001e0   Code   RO          144    .text               system_stm32f10x.o
    0x08000718   0x00000144   Code   RO          162    .text               na7600_stm32_inflash.o
    0x0800085c   0x00000050   Code   RO          197    .text               led.o
    0x080008ac   0x00000040   Code   RO          222    .text               startup_stm32f10x_hd.o
    0x080008ec   0x000000dc   Code   RO          226    .text               misc.o
    0x080009c8   0x0000011c   Code   RO          295    .text               stm32f10x_exti.o
    0x08000ae4   0x000005bc   Code   RO          310    .text               stm32f10x_flash.o
    0x080010a0   0x0000035c   Code   RO          322    .text               stm32f10x_gpio.o
    0x080013fc   0x000003a4   Code   RO          364    .text               stm32f10x_rcc.o
    0x080017a0   0x0000043c   Code   RO          438    .text               stm32f10x_usart.o
    0x08001bdc   0x000000d4   Code   RO          450    .text               delay.o
    0x08001cb0   0x0000000c   Code   RO          464    .text               sys.o
    0x08001cbc   0x000000cc   Code   RO          476    .text               myusart.o
    0x08001d88   0x00000134   Code   RO          495    .text               hw_config.o
    0x08001ebc   0x00000014   Code   RO          521    .text               stm32_it.o
    0x08001ed0   0x00000038   Code   RO          552    .text               usb_endp.o
    0x08001f08   0x000001cc   Code   RO          568    .text               usb_istr.o
    0x080020d4   0x00000234   Code   RO          589    .text               usb_prop.o
    0x08002308   0x00000158   Code   RO          612    .text               usb_pwr.o
    0x08002460   0x00000b50   Code   RO          631    .text               usb_core.o
    0x08002fb0   0x0000003c   Code   RO          646    .text               usb_init.o
    0x08002fec   0x0000033c   Code   RO          669    .text               usb_int.o
    0x08003328   0x0000005c   Code   RO          693    .text               usb_mem.o
    0x08003384   0x00000808   Code   RO          705    .text               usb_regs.o
    0x08003b8c   0x00000080   Code   RO          717    .text               usb_sil.o
    0x08003c0c   0x00000002   Code   RO          731    .text               c_w.l(use_no_semi_2.o)
    0x08003c0e   0x0000001a   Code   RO          733    .text               c_w.l(atoi.o)
    0x08003c28   0x0000000c   Code   RO          735    .text               c_w.l(strtok.o)
    0x08003c34   0x0000008a   Code   RO          738    .text               c_w.l(rt_memcpy_v6.o)
    0x08003cbe   0x00000044   Code   RO          740    .text               c_w.l(rt_memclr.o)
    0x08003d02   0x00000002   PAD
    0x08003d04   0x00000080   Code   RO          742    .text               c_w.l(strcmpv7m.o)
    0x08003d84   0x00000006   Code   RO          744    .text               c_w.l(heapauxi.o)
    0x08003d8a   0x00000002   Code   RO          748    .text               c_w.l(use_no_semi.o)
    0x08003d8c   0x00000008   Code   RO          754    .text               c_w.l(rt_errno_addr_intlibspace.o)
    0x08003d94   0x00000070   Code   RO          756    .text               c_w.l(strtol.o)
    0x08003e04   0x00000044   Code   RO          758    .text               c_w.l(strtok_int.o)
    0x08003e48   0x00000064   Code   RO          760    .text               c_w.l(rt_memcpy_w.o)
    0x08003eac   0x0000004e   Code   RO          762    .text               c_w.l(rt_memclr_w.o)
    0x08003efa   0x00000002   PAD
    0x08003efc   0x00000008   Code   RO          764    .text               c_w.l(libspace.o)
    0x08003f04   0x00000010   Code   RO          782    .text               c_w.l(rt_ctype_table.o)
    0x08003f14   0x0000009e   Code   RO          784    .text               c_w.l(_strtoul.o)
    0x08003fb2   0x00000020   Code   RO          786    .text               c_w.l(strcspn.o)
    0x08003fd2   0x0000001c   Code   RO          788    .text               c_w.l(strspn.o)
    0x08003fee   0x0000004a   Code   RO          790    .text               c_w.l(sys_stackheap_outer.o)
    0x08004038   0x00000008   Code   RO          795    .text               c_w.l(rt_locale_intlibspace.o)
    0x08004040   0x0000001c   Code   RO          797    .text               c_w.l(_chval.o)
    0x0800405c   0x00000012   Code   RO          802    .text               c_w.l(exit.o)
    0x0800406e   0x00000002   PAD
    0x08004070   0x0000002c   Code   RO          800    locale$$code        c_w.l(lc_ctype_c.o)
    0x0800409c   0x00000088   Data   RO          539    .constdata          usb_desc.o
    0x08004124   0x00000002   Data   RO            4    .conststring        main.o
    0x08004126   0x00000002   PAD
    0x08004128   0x00000020   Data   RO          930    Region$$Table       anon$$obj.o
    0x08004148   0x00000110   Data   RO          799    locale$$data        c_w.l(lc_ctype_c.o)


    Execution Region RW_IRAM1 (Base: 0x20000000, Size: 0x000020f8, Max: 0x0000c000, ABSOLUTE, COMPRESSED[0x000000b8])

    Base Addr    Size         Type   Attr      Idx    E Section Name        Object

    0x20000000   0x0000009a   Data   RW            5    .data               main.o
    0x2000009a   0x00000001   Data   RW          123    .data               stm32f10x_it.o
    0x2000009b   0x00000001   PAD
    0x2000009c   0x00000014   Data   RW          145    .data               system_stm32f10x.o
    0x200000b0   0x00000014   Data   RW          365    .data               stm32f10x_rcc.o
    0x200000c4   0x00000004   Data   RW          451    .data               delay.o
    0x200000c8   0x0000001a   Data   RW          540    .data               usb_desc.o
    0x200000e2   0x00000002   PAD
    0x200000e4   0x00000048   Data   RW          553    .data               usb_endp.o
    0x2000012c   0x00000044   Data   RW          569    .data               usb_istr.o
    0x20000170   0x0000009c   Data   RW          590    .data               usb_prop.o
    0x2000020c   0x0000000c   Data   RW          614    .data               usb_pwr.o
    0x20000218   0x00000003   Data   RW          632    .data               usb_core.o
    0x2000021b   0x00000001   PAD
    0x2000021c   0x00000014   Data   RW          648    .data               usb_init.o
    0x20000230   0x00000004   Data   RW          670    .data               usb_int.o
    0x20000234   0x00000004   Data   RW          736    .data               c_w.l(strtok.o)
    0x20000238   0x00001040   Zero   RW            3    .bss                main.o
    0x20001278   0x00000800   Zero   RW          163    .bss                na7600_stm32_inflash.o
    0x20001a78   0x0000001c   Zero   RW          647    .bss                usb_init.o
    0x20001a94   0x00000060   Zero   RW          765    .bss                c_w.l(libspace.o)
    0x20001af4   0x00000004   PAD
    0x20001af8   0x00000200   Zero   RW          220    HEAP                startup_stm32f10x_hd.o
    0x20001cf8   0x00000400   Zero   RW          219    STACK               startup_stm32f10x_hd.o


==============================================================================

Image component sizes


      Code (inc. data)   RO Data    RW Data    ZI Data      Debug   Object Name

       212         18          0          4          0       1043   delay.o
       308         16          0          0          0       2855   hw_config.o
        80          8          0          0          0        467   led.o
       726         82          2        154       4160     260924   main.o
       220         22          0          0          0       1809   misc.o
       204          8          0          0          0       2695   myusart.o
       324          8          0          0       2048     213806   na7600_stm32_inflash.o
        64         26        304          0       1536        804   startup_stm32f10x_hd.o
        20          0          0          0          0        630   stm32_it.o
       284         10          0          0          0       4443   stm32f10x_exti.o
      1468         34          0          0          0       8214   stm32f10x_flash.o
       860         38          0          0          0       5741   stm32f10x_gpio.o
        68         10          0          1          0       1606   stm32f10x_it.o
       932         36          0         20          0       8920   stm32f10x_rcc.o
      1084         20          0          0          0       8793   stm32f10x_usart.o
        12          0          0          0          0        453   sys.o
       480         38          0         20          0       1751   system_stm32f10x.o
      2896        114          0          3          0       8051   usb_core.o
         0          0        136         26          0       1073   usb_desc.o
        56         14          0         72          0       1417   usb_endp.o
        60         24          0         20         28       4014   usb_init.o
       828         34          0          4          0       1851   usb_int.o
       460         38          0         68          0       1647   usb_istr.o
        92          6          0          0          0       1354   usb_mem.o
       564         46          0        156          0       7650   usb_prop.o
       344         26          0         12          0       2755   usb_pwr.o
      2056         20          0          0          0      11929   usb_regs.o
       128          8          0          0          0       1418   usb_sil.o

    ----------------------------------------------------------------------
     14832        704        476        564       7772     568113   Object Totals
         0          0         32          0          0          0   (incl. Generated)
         2          0          2          4          0          0   (incl. Padding)

    ----------------------------------------------------------------------

      Code (inc. data)   RO Data    RW Data    ZI Data      Debug   Library Member Name

        90          0          0          0          0          0   __dczerorl2.o
         8          0          0          0          0         68   __main.o
         0          0          0          0          0          0   __rtentry.o
        12          0          0          0          0          0   __rtentry2.o
         6          0          0          0          0          0   __rtentry4.o
        52          8          0          0          0          0   __scatter.o
        28          0          0          0          0          0   __scatter_zi.o
        28          0          0          0          0         68   _chval.o
       158          0          0          0          0         92   _strtoul.o
        26          0          0          0          0         80   atoi.o
        18          0          0          0          0         80   exit.o
         6          0          0          0          0        152   heapauxi.o
        44         10        272          0          0         76   lc_ctype_c.o
         2          0          0          0          0          0   libinit.o
        20          0          0          0          0          0   libinit2.o
         2          0          0          0          0          0   libshutdown.o
         2          0          0          0          0          0   libshutdown2.o
         8          4          0          0         96         68   libspace.o
        16          4          0          0          0         76   rt_ctype_table.o
         8          4          0          0          0         68   rt_errno_addr_intlibspace.o
         8          4          0          0          0         68   rt_locale_intlibspace.o
        68          0          0          0          0         68   rt_memclr.o
        78          0          0          0          0         80   rt_memclr_w.o
       138          0          0          0          0         68   rt_memcpy_v6.o
       100          0          0          0          0         80   rt_memcpy_w.o
         2          0          0          0          0          0   rtexit.o
        10          0          0          0          0          0   rtexit2.o
       128          0          0          0          0         68   strcmpv7m.o
        32          0          0          0          0         80   strcspn.o
        28          0          0          0          0         80   strspn.o
        12          6          0          4          0         68   strtok.o
        68          4          0          0          0         84   strtok_int.o
       112          0          0          0          0         88   strtol.o
        74          0          0          0          0         80   sys_stackheap_outer.o
         2          0          0          0          0         68   use_no_semi.o
         2          0          0          0          0         68   use_no_semi_2.o

    ----------------------------------------------------------------------
      1404         44        272          4        100       1876   Library Totals
         8          0          0          0          4          0   (incl. Padding)

    ----------------------------------------------------------------------

      Code (inc. data)   RO Data    RW Data    ZI Data      Debug   Library Name

      1396         44        272          4         96       1876   c_w.l

    ----------------------------------------------------------------------
      1404         44        272          4        100       1876   Library Totals

    ----------------------------------------------------------------------

==============================================================================


      Code (inc. data)   RO Data    RW Data    ZI Data      Debug   

     16236        748        748        568       7872     566241   Grand Totals
     16236        748        748        184       7872     566241   ELF Image Totals (compressed)
     16236        748        748        184          0          0   ROM Totals

==============================================================================

    Total RO  Size (Code + RO Data)                16984 (  16.59kB)
    Total RW  Size (RW Data + ZI Data)              8440 (   8.24kB)
    Total ROM Size (Code + RO Data + RW Data)      17168 (  16.77kB)

==============================================================================

