:020000040800F2
:10000000F8200020AD080008F5040008F7040008F7
:10001000FB040008FF0400080305000800000000BE
:1000200000000000000000000000000007050008BC
:1000300009050008000000000B0500080D05000878
:10004000C7080008C7080008C7080008C708000854
:10005000C7080008C7080008C7080008C708000844
:10006000C7080008C7080008C7080008C708000834
:10007000C7080008C7080008C7080008C708000824
:10008000C7080008C7080008C7080008C708000814
:10009000BD1E0008C7080008C7080008C7080008F8
:1000A000C7080008C7080008C7080008C7080008F4
:1000B000C7080008C7080008C7080008C7080008E4
:1000C000C7080008C7080008C7080008C7080008D4
:1000D000C70800080F050008C7080008C70800087F
:1000E000C7080008C7080008C51E0008C7080008A0
:1000F000C7080008C7080008C7080008C7080008A4
:10010000C7080008C7080008C7080008C708000893
:10011000C7080008C7080008C7080008C708000883
:10012000C7080008C7080008C7080008C708000873
:1001300000F002F800F063F80AA090E8000C824496
:100140008344AAF10107DA4501D100F058F8AFF273
:10015000090EBAE80F0013F0010F18BFFB1A43F0A5
:1001600001031847C43F0000E43F00000A444FF079
:10017000000C10F8013B13F0070408BF10F8014B06
:100180001D1108BF10F8015B641E05D010F8016B4B
:10019000641E01F8016BF9D113F0080F1EBF10F8AF
:1001A000014BAD1C0C1B09D16D1E58BF01F801CBD2
:1001B000FAD505E014F8016B01F8016B6D1EF9D555
:1001C0009142D6D37047000000230024002500266A
:1001D000103A28BF78C1FBD8520728BF30C148BFAA
:1001E0000B6070471FB503F027FF040000200021BB
:1001F00003F03EFF401C60601FBD10B510BD03F052
:10020000F6FE1146FFF7EEFF00F073F803F026FF4D
:1002100003B4FFF7F2FF03BC01F050FD80F3088840
:100220007047000010B5044620689E490840B0F1B0
:10023000005F08D160689C4908602068FFF7EEFF06
:1002400099480068804710BD70B504460D460026E9
:1002500009E014F8012B3046711CCEB293490A54C0
:10026000AE4200D102E020780028F2D100BF402247
:100270004FF48C718D4803F057F8022003F03CF9DD
:1002800070BD10B504460121042001F025FA3CB1EF
:100290008748006880B220F002008549086014E0B9
:1002A0008348006880B240F00200814908608148BC
:1002B000006820F47F207F4908600846006840F409
:1002C0004C30086000207C49086010BD012080F39C
:1002D000138800BF00BF7948006800F4E0607849E7
:1002E0000843001D75490860BFF34F8F00BF00BF72
:1002F000FEE70024734D0026A046A146002701F02A
:100300006DFC01F0D5FC4FF4E13001F0E6FC00F0AB
:10031000A5FA0020FFF7B5FF4FF4967001F09BFCA3
:100320000120FFF7AEFF01F047FD01F02DFD02F0C7
:100330003FFEB5E0644800782A287BD162484078C7
:1003400055287FD16048807850287BD15E48C0789E
:10035000472877D15C480079522873D100205B4947
:1003600008705B480168584803F05EFC074609E0E6
:10037000384603F04CFC814655480168002003F0E4
:1003800053FC0746002FF3D140215248FFF75CFF92
:1003900056E04E480078012852D100204B490870A1
:1003A000403608F101084C4908194022464903F03B
:1003B00041FCE11704EB5151C912A4EBC12101BB6F
:1003C0001DE04FF480624449284600F0CCF94FF418
:1003D00080624249284600F0B5F940493E4803F0A2
:1003E00091FC60B94FF400613B4803F068FC05F5EF
:1003F00000650024012030491039086000E0E0E782
:1004000019E04E4517DB4FF480623349284600F06F
:10041000AAF94FF40061304803F051FC0024294D43
:1004200001202F4908702F49088001222E4800F032
:100430009AF906E006E040344021234803F03FFCEF
:10044000A7E702E00020214908704FF47A7001F01C
:1004500002FC2648006808B9012000E0002023497A
:1004600008601F48007801280CD100201C49087042
:100470001448406800F07F40B0F1006F02D111488D
:10048000FFF7D0FE1A480088012809D10D484068BE
:1004900000F07F40B0F1006F02D10A48FFF7C2FEC2
:1004A00048E700000000FE2F000000203802002076
:1004B000405C004004080140B00121420CED00E026
:1004C0000000FA0500000108E400002024010020DB
:1004D0000C0000201400002078020020780A002080
:1004E000960000209400002004F8FF1F888122421B
:1004F00098000020704700BFFEE700BFFEE700BF86
:10050000FEE700BFFEE7704770477047704710B5C1
:1005100040F22551064801F01EFB38B10120054983
:10052000087040F22551024801F087FA10BD000022
:10053000003801409A0000200CB500200190009086
:100540006C48006840F480306A49086000BF694820
:10055000006800F4003000900198401C0190009861
:1005600018B90198B0F5A06FF1D16248006800F4A5
:10057000003010B10120009001E0002000900098B0
:10058000012843D15C48006840F010005A490860D7
:100590000846006820F0030008600846006840F044
:1005A0000200086053484068524948600846406865
:1005B00048600846406840F48060486008464068EB
:1005C00020F47C1048600846406840F4E810486019
:1005D0000846006840F08070086000BF4548006829
:1005E00000F000700028F9D04248406820F0030075
:1005F000404948600846406840F00200486000BF3B
:100600003C48406800F00C000828F9D10CBD10B53A
:10061000FFF792FF10BD10B53648006840F00100AA
:100620003449086008464068344908403149486008
:1006300008460068324908402E49086008460068AC
:1006400020F4802008600846406820F4FE004860DE
:100650004FF41F008860FFF7DAFF4FF00060294970
:10066000086010BD10B5002100200022214B5B68FE
:1006700003F00C0121B1042906D0082928D107E094
:10068000214B224C236027E01F4B204C236023E0AA
:10069000184B5B6803F47010164B5B6803F48032F0
:1006A000022303EB904022B9194B4343174C2360BC
:1006B0000DE0104B5B6803F4003323B1144B43434C
:1006C000124C236003E0104B4343104C236003E0C3
:1006D0000D4B0E4C236000BF00BF064B5B68C3F39D
:1006E00003130C4CE15C094B1B68CB40074C2360A7
:1006F00010BD000000100240002002400000FFF882
:10070000FFFFF6FE08ED00E000127A009C000020DA
:1007100000093D00A00000202DE9F04105460E46ED
:100720001746002407E036F81410284600F041FB75
:10073000AD1C601C84B2BC42F5DBBDE8F081014613
:100740000888704730B503460C461546002207E07E
:100750001846FFF7F4FF24F812009B1C501C82B2CD
:10076000AA42F5DB30BD2DE9F05F80468A46174688
:10077000B8F1006F02D33748804501D3BDE8F09F40
:1007800000F0CFF9A8F1006B4FEADB26CBF3490963
:10079000C9F58064A74200DC3C464DE04FF00061A3
:1007A00001EBC6204A142C49FFF7CCFF00250BE0D3
:1007B00009EB0500284931F810004FF6FF71884217
:1007C00000D003E0681C85B2A542F1DB00BFA54262
:1007D0001BDA4FF0006101EBC62000F0E7F90025BD
:1007E00008E03AF8150005EB09011B4A22F8110050
:1007F000681C85B2A542F4DB4FF0006101EBC62016
:100800004A141549FFF788FF04E022465146404646
:10081000FFF782FFA74200D10FE0761C4FF00009DE
:100820000AEB440AA044381B87B2B7F5806F02DD9B
:100830004FF4806400E03C46B0E700BF00F07DF973
:1008400000BF9BE713B50446012201A92046FFF72C
:100850008AFF1CBD000004087812002008B50121A1
:10086000242000F039FF4FF48070ADF80000102014
:100870008DF8030003208DF802006946094800F056
:100880006FFC4FF48071074800F017FD0420ADF8AD
:1008900000006946044800F063FC0421024800F0AF
:1008A0000CFD08BD000801400014014009488047C4
:1008B00009480047FEE7FEE7FEE7FEE7FEE7FEE742
:1008C000FEE7FEE7FEE7FEE704480549054A064B5A
:1008D000704700001706000831010008F81A0020D0
:1008E000F8200020F81C0020F81C002031490143AA
:1008F000314A1160704770B5002100230F22C4787F
:1009000004B32D4C246804F4E064C4F5E064210AC7
:10091000C1F10403CA40447804FA03F18478144016
:1009200021430901254C0678A155047804F01F05E0
:100930000124AC4005786D11AD0005F1E025C5F846
:10094000004109E0047804F01F050124AC401C4D6F
:100950000678761145F8264070BD1A4A0A400243CF
:10096000154B1B1F1A60704739B1134A121D1268CC
:100970000243114B1B1D1A6006E00F4A121D12683C
:1009800082430D4B1B1D1A607047042808D14FF09D
:10099000E021096941F004014FF0E022116107E014
:1009A0004FF0E021096921F004014FF0E0221161CC
:1009B000704700000000FA050CED00E000E400E0E4
:1009C00080E100E080FFFF1F002044490860091D0E
:1009D0000860091D0860091D086041483F4914313D
:1009E0000860704700213D498279002A3AD00A46C2
:1009F000126803689A430B461A600A1D126803685E
:100A00009A430B1D1A60027911440A6803681A435D
:100A10000A60324A0832126803689A432F4B08333F
:100A20001A601A1D126803689A432C4B0C331A6023
:100A30004279102A0ED11A1F126803681A43274BF5
:100A400008331A601A1D126803681A43234B0C33CB
:100A50001A600DE02149427911440A6803681A437B
:100A60000A6005E0027911440A6803689A430A6043
:100A700070470021016001710C21417100218171D9
:100A800070471649103109680143144A1032116049
:100A9000704701460020114A143212680A400AB118
:100AA000012000E0002070470C49143108607047B5
:100AB000014600200022094B1B6803EA0102074B94
:100AC00014331B680B4013B10AB1012000E0002071
:100AD000704702491431086070470000000401406B
:100AE000FFFF0F0001460020FE4A106800F03800AA
:100AF000084310607047FB49096821F00801F94A72
:100B0000116011460968014311607047F549096891
:100B100021F01001F34A1160114609680143116088
:100B20007047F148EF494860F04848607047EE4828
:100B3000EC494860ED4848607047EA48006940F079
:100B40008000E84908617047E648006940F080008D
:100B5000E449086170470420E249C96801F00101D5
:100B600009B101200EE0DF49C96801F0040109B1B3
:100B7000022007E0DB49C96801F0100109B1032038
:100B800000E00420704700B502460423FFF7E3FFAE
:100B9000034603E0FFF7DFFF0346521E012B01D19E
:100BA000002AF7D102B90523184600BD30B5044626
:100BB00004254FF43020FFF7E6FF0546042D17D13A
:100BC000C848006940F00200C6490861084644610F
:100BD000006940F0400008614FF43020FFF7D3FF78
:100BE0000546C048006941F6FD710840BD490861ED
:100BF000284630BD10B504244FF43020FFF7C3FF62
:100C00000446042C16D1B748006940F00400B549E9
:100C100008610846006940F0400008614FF4302048
:100C2000FFF7B1FF0446AF48006941F6FB71084089
:100C3000AC490861204610BD00B502460423FFF709
:100C40008AFF034603E0FFF786FF0346521E012B8F
:100C500001D1002AF7D102B90523184600BD10B50D
:100C600004244FF43020FFF7E7FF0446042C16D18C
:100C70009C48006940F004009A49086108460069F0
:100C800040F0400008614FF43020FFF7D5FF0446E4
:100C90009448006941F6FB7108409249086120467A
:100CA00010BD00208F49C96901F0020109B101207E
:100CB00000E00020704730B5A5250424FFF7F1FFC0
:100CC00000B100254FF43020FFF75DFF0446042CEF
:100CD0003AD185488349886084488860084600691D
:100CE00040F0200008610846006940F040000861BB
:100CF0004FF43020FFF747FF0446042C1BD17948FE
:100D0000006941F6DF7108407649086108460069CC
:100D100040F01000086176480580E002FFF733FFDD
:100D20000446052C10D06F48006941F6EF71084069
:100D30006C49086108E0052C06D06A48006941F654
:100D4000EF71084067490861204630BD78B5064616
:100D50000C46042500200090E802FFF714FF05462A
:100D6000042D24D15F48006940F001005D4908610D
:100D70003480E802FFF707FF0546042D10D1B01CB0
:100D80000090200C00990880E802FFF7FCFE054661
:100D90005448006941F6FE7108405249086106E076
:100DA0005048006941F6FE7108404E4908612846E6
:100DB00078BD70B504460D460426F002FFF7E3FE49
:100DC0000646042E11D14748006940F0010045490C
:100DD00008612580F002FFF7D6FE0646414800690B
:100DE00041F6FE7108403F490861304670BD70B55C
:100DF00005460E460424E002FFF7C5FE0446042C17
:100E000017D13948374988603848886008460069F2
:100E100040F0100008612E80E002FFF7B4FE0446A7
:100E2000052C06D02F48006941F6EF7108402D4986
:100E30000861204670BD2DE9F04304464FF6FF7669
:100E40003746B046B1460425E443E6B2C4F307276B
:100E5000C4F307484FEA1469E802FFF794FE054619
:100E6000042D49D120481F498860204888600846E1
:100E7000006940F010000861FF2E06D01C480830C1
:100E80000680E802FFF77FFE0546042D08D1FF2FFC
:100E900006D017480A300780E802FFF774FE0546BF
:100EA000042D0AD1B8F1FF0F07D011480C30A0F87B
:100EB0000080E802FFF767FE0546042D0AD1B9F16C
:100EC000FF0F07D00A480E30A0F80090E802FFF7A5
:100ED0005AFE0546052D0FD00248006941F6EF7114
:100EE000084007E00020024023016745AB89EFCDB1
:100EF00000F8FF1F664908612846BDE8F08330B559
:100F0000054604244FF43020FFF73DFE0446042C30
:100F100041D160485E4988605F4888600846006942
:100F200040F0200008610846006940F04000086178
:100F30004FF43020FFF727FE0446042C22D15448FA
:100F4000006941F6DF7108405149086108460069AF
:100F500040F0100008611DB100205049088002E0F7
:100F6000A5204E4908804FF43020FFF70CFE0446C0
:100F7000052C10D04648006941F6EF7108404449FD
:100F8000086108E0052C06D04148006941F6DF7190
:100F900008403F490861204630BDF0B505460E4681
:100FA000174604243B483A4988603B488860E00281
:100FB000FFF7E9FD0446042C19D13548006940F0DB
:100FC00010003349086147F0F800304328433349A3
:100FD000891C0880E002FFF7D6FD0446052C06D0E8
:100FE0002B48006941F6EF71084029490861204605
:100FF000F0BD2748C069800870472548006A7047DF
:1010000000202349096801F0200109B1012000E016
:101010000020704729B11E4A126902431C4B1A6115
:1010200004E01B4A12698243194B1A61704701465A
:101030000020012908D1164AD26902F001020AB142
:10104000012008E0002006E0114AD2680A400AB1F7
:10105000012000E0002070470D49C860704704205F
:101060000B49C96801F0010109B101200EE00849EE
:10107000C96801F0040109B1022007E00449C96808
:1010800001F0100109B1032000E0042070470000C6
:101090000020024023016745AB89EFCD00F8FF1F18
:1010A00010B50446CC48844208D10121042000F048
:1010B0002DFB0021042000F029FB46E0C7488442B4
:1010C00008D10121082000F021FB0021082000F0B8
:1010D0001DFB3AE0C248844208D10121102000F0F3
:1010E00015FB0021102000F011FB2EE0BD488442CA
:1010F00008D10121202000F009FB0021202000F070
:1011000005FB22E0B848844208D10121402000F0CC
:10111000FDFA0021402000F0F9FA16E0B3488442BD
:1011200008D10121802000F0F1FA0021802000F098
:10113000EDFA0AE0AE48844207D10121801500F0A3
:10114000E5FA0021A01500F0E1FA10BD10B501216B
:10115000084600F0DBFA0021012000F0D7FA10BDAC
:101160002DE9F0410246002500260020002300243E
:10117000002791F803C00CF00F0591F803C00CF0A4
:10118000100CBCF1000F03D091F802C04CEA050529
:1011900091F800C0BCF1000F31D0146800202BE0A2
:1011A0004FF0010C0CFA00F3B1F800C00CEA030692
:1011B0009E4220D183004FF00F0C0CFA03F7BC4382
:1011C00005FA03FC4CEA040491F803C0BCF1280FB3
:1011D00006D14FF0010C0CFA00FCC2F814C00AE072
:1011E00091F803C0BCF1480F05D14FF0010C0CFA87
:1011F00000FCC2F810C0401C0828D1D31460B1F81C
:1012000000C0BCF1FF0F34DD546800202EE000F177
:10121000080C4FF0010808FA0CF3B1F800C00CEA12
:1012200003069E4221D183004FF00F0C0CFA03F706
:10123000BC4305FA03FC4CEA040491F803C0BCF17A
:10124000280F05D100F1080C08FA0CF8C2F8148038
:1012500091F803C0BCF1480F07D100F1080C4FF022
:10126000010808FA0CF8C2F81080401C0828CED3F8
:101270005460BDE8F0814FF6FF710180022181705A
:101280000421C17070470246002093680B400BB1E7
:10129000012000E0002070470146886880B2704756
:1012A00002460020D3680B400BB1012000E0002073
:1012B00070470146C86880B270470161704741615C
:1012C00070470AB1016100E041617047C160704739
:1012D0004FF480320A43826181618261826982694E
:1012E000704702460020434B18684FF68073184041
:1012F00040EA021008433F4B186070473E49C861FE
:101300007047F0B50A46002300240021002500F0B4
:101310000046B6F1004F02D1364EF16901E0354E7C
:101320007168C0F3034583B200F44016B6F5401F60
:1013300008D121F070612F4E766826F070662D4F2F
:101340007E6012E000F48016B6F5801F06D10326F9
:1013500006FA05F4A14341F0706106E0460D36013E
:1013600003FA06F6B14341F0706122B1460D360131
:1013700003FA06F6314300F00046B6F1004F02D101
:101380001C4EF16101E01B4E7160F0BD30B50022D2
:101390008B071C0F0F2303FA04F2164B08338C1033
:1013A00053F824309343134C08348D1044F82530FF
:1013B00023468C1053F824308C07240F00FA04F4D1
:1013C00023430C4C08348D1044F8253030BD0A49B5
:1013D000DC3108607047000000080140000C01404B
:1013E000001001400014014000180140001C0140A1
:1013F000002001400000014000002042DF4800685A
:1014000040F00100DD49086008464068DC490840BA
:10141000DA49486008460068DA490840D749086058
:101420000846006820F4802008600846406820F4E0
:10143000FE0048604FF41F0088607047CF4909687C
:1014400021F48031CD4A11601146096821F48021D0
:101450001160B0F5803F03D0B0F5802F0ED106E0CB
:10146000C649096841F48031C44A116007E0C349A4
:10147000096841F4A021C14A116000E000BF00BF2B
:10148000704710B501460022002300204A11012AAE
:1014900002D1BA4C236806E0022A02D1B74C236A73
:1014A00001E0B64C636A01F01F02012494401C4025
:1014B0000CB1012000E0002010BD38B500200090E4
:1014C0000024002500BF3120FFF7DBFF0546009810
:1014D000401C00900098B0F5A06F01D0002DF2D014
:1014E0003120FFF7CEFF08B1012400E000242046A0
:1014F00038BD01460020A14A106820F0F80040EAFB
:10150000C10010607047A049086070470246002083
:101510009A4B586820F47C1042EA01031843974B19
:101520005860704798490866704701460020934A02
:10153000506820F003000843506070478F484068AF
:1015400000F00C007047014600208C4A506820F0E3
:10155000F00008435060704701460020874A5068F9
:1015600020F4E06008435060704701460020834A41
:10157000506820F4605040EAC1005060704729B1C3
:101580007E4A527A02437D4B5A7204E07B4A527A79
:1015900082437A4B5A7270477B49D8310860704752
:1015A00001460020754A506820F4404008435060CE
:1015B00070470021714A20321170704A82F8201061
:1015C000012802D004280AD104E001216B4A20320C
:1015D000117005E00521694A2032117000E000BF5A
:1015E00000BF70476949086070476449096A014350
:1015F000624A11627047654944390860704730B5E6
:1016000000210022002400235C4D6D6805F00C01D0
:1016100021B1042905D0082923D105E05C4D0560DE
:1016200022E05B4D05601FE0544D6D6805F47012BB
:10163000524D6D6805F48034022505EB92421CB9C9
:10164000544D554305600BE04C4D6D6805F4003575
:101650001DB1504D5543056002E04D4D55430560A9
:1016600002E04B4D056000BF00BF444D6D6805F0C2
:10167000F0010909484D6B5C0568DD4045603F4D50
:101680006D6805F4E061090A434D6B5C4568DD4017
:1016900085603A4D6D6805F46051C90A3E4D6B5C3A
:1016A0004568DD40C560354D6D6805F44041890BE6
:1016B0003A4D6B5CC568B5FBF3F5056130BD29B1EA
:1016C0002E4A526902432D4B5A6104E02B4A52695B
:1016D00082432A4B5A61704729B1284A92690243D2
:1016E000264B9A6104E0254A92698243234B9A6112
:1016F000704729B1214AD2690243204BDA6104E0E4
:101700001E4AD26982431D4BDA61704729B11B4AD8
:10171000D2680243194BDA6004E0184AD268824367
:10172000164BDA60704729B1144A12690243134B11
:101730001A6104E0114A12698243104B1A61704722
:1017400012494039086070470F49C86470470B4917
:10175000C87170470948406A40F080700749486284
:10176000704701460020054A92680A400AB10120EC
:1017700000E0002070470149887270470010024065
:101780000000FFF8FFFFF6FE0000424280044242E4
:1017900000127A0000093D00B0000020C0000020C7
:1017A00010B50446F748844209D101218803FFF7A8
:1017B000ADFF00214FF48040FFF7A8FF32E0F24870
:1017C000844209D101214804FFF7ADFF00214FF405
:1017D0000030FFF7A8FF25E0EC48844209D1012141
:1017E0008804FFF7A0FF00214FF48020FFF79BFF44
:1017F00018E0E748844209D10121C804FFF793FFAC
:1018000000214FF40020FFF78EFF0BE0E1488442F7
:1018100008D101210805FFF786FF00214FF4801051
:10182000FFF781FF10BD2DE9F04786B005460E4653
:101830000024A24600BFA1460027B08900B100BF26
:101840002F462C8A4CF6FF700440F08804432C820B
:10185000AC894EF6F3100440B08831890843718991
:1018600008430443AC81AC8A4FF6FF400440B08982
:101870000443AC8201A8FFF7C2FEC248874202D1EE
:10188000DDF810A001E0DDF80CA0A88900F400400C
:1018900040B10AEBCA0000EB0A1031684900B0FB06
:1018A000F1F807E00AEBCA0000EB0A103168890082
:1018B000B0FBF1F86420B8FBF0F0040120096421CA
:1018C00001FB1089A88900F4004040B1322000EBF0
:1018D000C900B0FBF1F000F00700044308E032203B
:1018E00000EB09106421B0FBF1F000F00F0004439D
:1018F0002C8106B0BDE8F0874FF41651016000213D
:101900008180C18001810C2141810021818170474A
:1019100010B502460020108A4FF2FF0318400B88D2
:101920004C8823438C882343CC882343184310825C
:1019300010BD0021018041808180C180704721B1AC
:10194000828942F40052828104E082894DF6FF735D
:101950001A4082817047F0B5034600240026002516
:10196000002040F66A17B94200D100BF1846C1F303
:10197000421401F01F06012707FA06F5012C01D1D8
:101980000C3004E0022C01D1103000E014301AB108
:1019900007682F43076002E00768AF430760F0BDA8
:1019A0001AB1838A0B43838202E0838A8B4383824A
:1019B0007047028A4FF6F0731A400282028A0A4385
:1019C0000282704782894FF2FF731A4082818289B6
:1019D0000A438281704721B1828942F002028281EA
:1019E00004E082894FF6FD731A4082817047028AB3
:1019F0004FF6DF731A400282028A0A43028270475E
:101A000021B1028A42F48042028204E0028A4BF64B
:101A1000FF731A4002827047C1F308028280704748
:101A200002460020B1F5007F00D100BF13880B40B3
:101A30000BB1012000E00020704701F40072B2F504
:101A4000007F00D100BFCA4302807047F0B507464F
:101A50000D461646002440213846FFF7EEFF00BF32
:101A60000CE0295D3846FFF7D7FF00BF402138461C
:101A7000FFF7D6FF0028F9D0601C84B2B442F0DB37
:101A8000F0BD01468888C0F308007047818941F0A5
:101A9000010181817047028BD2B20283028B42EA3C
:101AA000012202837047028B02F47F420283028B81
:101AB0000A430283704721B1828A42F02002828267
:101AC00004E0828A4FF6DF731A408282704721B1A8
:101AD000828A42F01002828204E0828A4FF6EF731B
:101AE0001A408282704721B1828A42F008028282C3
:101AF00004E0828A4FF6F7731A408282704721B160
:101B0000828942F40042828103E08289C2F30E029C
:101B10008281704721B1828A42F40062828204E0AD
:101B2000828A4FF2FF731A4082827047828A4FF690
:101B3000FB731A408282828A0A438282704721B1F3
:101B4000828A42F00202828204E0828A4FF6FD73AA
:101B50001A408282704770B5024600240023002597
:101B6000002040F66A16B14200D100BFC1F3421511
:101B700001F01F03012606FA03F3012D0CD196890B
:101B8000334010E00038014000440040004800406D
:101B9000004C004000500040022D02D1168A334014
:101BA00001E0968A33400C12012606FA04F41688E6
:101BB000344013B10CB1012000E0002070BD10B51D
:101BC0000022002340F66A14A14200D100BF0A128D
:101BD00001249440A3B2DC43048010BD10B56FF023
:101BE0000400FEF7D2FE2E4800682E49B0FBF1F04B
:101BF0002D4908700846007800EB4001C1EBC01089
:101C00004FF6FF7101EAC0002849088010BD014667
:101C1000254A12784A434FF0E0235A6100229A6124
:101C20001A46126942F001021A6100BF4FF0E02229
:101C3000106900F001021AB100F48032002AF5D0D8
:101C40004FF0E022126922F001024FF0E0231A6106
:101C500000229A6170470146144A12884A434FF0A5
:101C6000E0235A6100229A611A46126942F0010289
:101C70001A6100BF4FF0E022106900F001021AB1B2
:101C800000F48032002AF5D04FF0E022126922F0F1
:101C900001024FF0E0231A6100229A6170470000B0
:101CA0009C00002000127A00C4000020C600002022
:101CB00010B54FF4A060FEF719FE10BD014600BF3D
:101CC000704700BF2E4A128802F04002002AF9D065
:101CD000C2B22B4B1B1D1A80704710B586B004464C
:101CE000012144F20400FFF7F7FC4FF40070ADF857
:101CF000040018208DF8070003208DF8060001A9C4
:101D00002048FFF72DFA4FF48060ADF8040004205E
:101D10008DF8070003208DF8060001A91948FFF788
:101D20001FFA1748FFF73CFD02940020ADF80C00A5
:101D3000ADF80E00ADF81000ADF814000C20ADF8B1
:101D4000120002A90E48FFF76EFD012240F2255154
:101D50000B48FFF700FE01210948FFF7F0FD2520A1
:101D60008DF8000002208DF8010000208DF802009F
:101D700001208DF803006846FEF7BDFD06B010BDDA
:101D8000003801400008014010B50020FFF704FCB6
:101D90000121C805FFF7ADFC10BD032043490860D1
:101DA00070474348817A19B10521404A116002E029
:101DB00001213E4A116070470EB54FF4A060FEF756
:101DC00095FD4FF48020FEF784FE4FF480200090B4
:101DD00008208DF8050001208DF806006846FEF702
:101DE00001FE14208DF8080002208DF80900002063
:101DF0008DF80A0001208DF80B0002A8FEF77BFD8C
:101E00002A208DF8080001208DF8090002A8FEF7AD
:101E100072FD0EBDF8B504460D4616461F4600205D
:101E200000908DF800408DF801508DF802608DF81B
:101E3000037004226946812001F0B6FE012001F002
:101E40005BFBF8BD30B50B46002100BF16E00A244D
:101E5000B4EB107F05D9302404EB107403F8114063
:101E600005E0412404EB10740A3C03F81140000122
:101E700000254C00641C1D554C1CE1B29142E6DB70
:101E800030BD70B50B480468001D0568001D06686C
:101E9000344454B1082208492046FFF7D3FF0422F6
:101EA000054910312846FFF7CDFF70BD0C02002018
:101EB000781A0020E8F7FF1FCA00002010B500F0D4
:101EC00023F810BD10B54FF48020FEF702FE10BDC0
:101ED00010B5012001F0DAFC0849086008460088C6
:101EE00082B29821064801F039FA012001F01CFB6A
:101EF00001200449087010BD70470000280100202F
:101F0000E40000202401002010B588B000246848B7
:101F10000068684908800846008800F40040664967
:101F20000988084008B101F061F86248008800F4AF
:101F3000806061490988084030B14FF6FF305C4944
:101F400008605E49486880475A48008800F400509D
:101F500059490988084018B14DF6FF705449086086
:101F60005448008800F4805053490988084030B133
:101F70004EF6FF704E490860002000F007FA4D4809
:101F8000008800F400604C490988084060B14C4862
:101F9000007810B100F0DAF902E0022000F0F6F962
:101FA0004FF2FF70424908604248008800F4007018
:101FB00041490988084040B14FF6FF503C4908604C
:101FC00040480078401C3F4908703A48008800F4B7
:101FD0008070394909880840002866D04FF6FF60B4
:101FE00033490860081D006800F40040002856D0FE
:101FF00035480068401C34490860084600680328DA
:1020000050D92B48001F006800F00800002849D173
:102010002748001F006880B22C490860002408E0AF
:102020002B4901EB8400D0F8000C80B24DF824005D
:10203000641C082CF4D32548006840F001002349B3
:1020400008600846006880B21949091F08601F48E7
:10205000006820F001001D4908600846006880B251
:102060001349091F086000BF1148006800F4806030
:102070000028F9D04FF6FF300D490860002408E031
:102080005DF8240080B2124A02EB8401C1F8000C12
:10209000641C082CF4D300200B49086002E00020E7
:1020A00009490860072000F071F908B010BD000070
:1020B000445C00402C0100202A020020780100200E
:1020C000100200202E0100203001002034010020E9
:1020D0000050004010B5FFF7D4FE00207F4909688A
:1020E000887200F011F901F051FD00207C49086070
:1020F00010BD10B5002079490968887277490968D0
:10210000C8727848C079754909684872002001F0A2
:1021100057F94FF40071002001F06CF910210020F4
:1021200001F081F91821002001F03BFB582100202B
:1021300001F02BFB002001F033FA6B4890F82C10D3
:10214000002001F074FB002001F0EEF900210120D5
:1021500001F050F99821012001F023FB40210120DA
:1021600001F065FB4FF44051012001F07AF90021A4
:10217000022001F03FF94FF48C71022001F005FBC1
:102180004021022001F031FB2021022001F04BF917
:10219000002000F07EFE01205149086010BD534828
:1021A000817A11B105214E4A1160704704204C49D3
:1021B0000860704770477047014629B90120474AB7
:1021C00012681082002070474948FCE710B50446A9
:1021D0004849204600F053FB10BD10B5044646495F
:1021E000204600F04CFB10BD70B504460025062CBF
:1021F0001AD13A480068007800F07F00012813D116
:1022000036480068407978B93448006880782228D8
:1022100002D1AFF2390512E03048006880782128F9
:102220000DD1AFF257050AE02C480068007800F0A5
:102230007F00212803D1032C01D1AFF283050DB912
:10224000022070BD25480068856100212348006890
:1022500041820020A8470020F3E720480068C178A9
:10226000234801600020704700B502461B48006803
:10227000007800F07F00212804D10B2A02D1FFF75B
:10228000ECFF00BD0220FCE710B504461B492046C8
:1022900000F0F5FA10BD10B504461949204600F0CB
:1022A000EEFA10BD70B505460C480068C478042CE1
:1022B00001DD002070BD134800EBC401284600F08A
:1022C000DEFAF7E70246002901DD02207047002A06
:1022D00001DD0220FAE70020F8E7000020020020DC
:1022E0000C020020AE40000878010020781A00207F
:1022F00070010020E4010020DC010020CC0100205E
:10230000D4010020EC01002001215148016000208F
:10231000504A1080104600884D4A10600020121D5F
:1023200010604FF4E0504B4A108010460088484A35
:102330001060002070470120454908600020091DF9
:1023400008600320091F08600020704710B540484E
:10235000006884B244F008043D480460006884B218
:1023600044F004043A480460FFF717FD10BD10B5AF
:102370003748006884B224F0040435480460FFF74D
:1023800010FD4FF43F403249086010BD70B505465E
:10239000072D01D0304805702F48007808284ED20C
:1023A000DFE800F004111A202B384E4F2B4800684C
:1023B00028B9FFF7DCFF06202749087002E0052056
:1023C0002549087041E0FFF7D2FF04202249087038
:1023D00001202249086038E002201F49487003208C
:1023E000087032E01C484078401E1B49487008467F
:1023F000407808B90420087027E01548006884B2C6
:1024000044F01004124804600520134908700A20A3
:1024100048701AE010484078401E0F49487008463E
:10242000407858B90A48006884B224F0100408487B
:1024300004600620087000200849086005E000BF1D
:1024400000BF06200449087000BF00BF70BD000037
:10245000405C00402A0200201102002014020020EB
:1024600010B504462CB90120F649096808820020FD
:1024700010BDF549096808688047F24800680A30CD
:10248000F6E710B5EF480068C078F049497888420F
:1024900013DCEC480068807878B9EA4800688088E6
:1024A00058B9E8480068C078E64909688872E64982
:1024B000096848688047002010BD0220FCE710B57D
:1024C00004462CB90120DF4909680882002010BDAC
:1024D000DD49096888688047DA4800680C30F6E70B
:1024E00010B5D84B1B68D978D64B1B685879D84B98
:1024F0001B689A6990470446D2480068807AE8B120
:102500003CB9D0480068007918B9CE480068807896
:1025100008B1022010BD8CB9CB490968C868804752
:10252000C84800684079C7490968C872C54800684A
:10253000C078C449096808730020EBE70220E9E786
:1025400010B504462CB90220BE4909680882002053
:1025500010BD0020BF490880BA480068007800F02C
:102560007F0018BBB7490968487A00F0200131B1F3
:10257000B849097841F00201B64A117005E0B54941
:10258000097801F0FD01B34A117000F0400131B14A
:10259000B049097841F00101AE4A117005E0AD493A
:1025A000097801F0FE01AB4A11703AE0A5480068D5
:1025B000007800F07F00012801D1A648C8E7A148B3
:1025C0000068007800F07F00022828D19D4A126838
:1025D000517901F00F0001F080027AB19E4B03EBBC
:1025E0008002D2F8002C02F03002102A16D1994A4B
:1025F000127842F00102974B1A700FE0964B03EBF2
:102600008002D2F8002C02F44052B2F5805F05D16E
:10261000904A127842F001028E4B1A7001E00020BD
:1026200096E789490968086980478A4890E72DE953
:10263000F04784480068007800F07F08B8F1000F88
:102640000AD180480068407A00F0DF007D490968BF
:1026500048720020BDE8F087B8F1020F7ED17948BA
:102660000068408818B977480068007908B10220EE
:10267000F0E7DFF8D89173480068477927F08005C4
:102680002C4670480068407900F0800038B17249EB
:1026900001EB8400D0F8000C00F0300606E06E4933
:1026A00001EB8400D0F8000C00F4405699F80000CB
:1026B000A84204D91EB163480068807A08B9022094
:1026C000C8E707F0800080B1634901EB8400D0F8CF
:1026D000000C00F0300010284BD1E0B201F01DF8E2
:1026E000E0B2302100F09FFE43E05B4901EB840043
:1026F000D0F8000C00F44050B0F5805F39D1E4B957
:10270000564A92F82C10E0B201F091F8524A02EBCE
:102710008401D1F8001C4BF68F7201EA020080F4AC
:10272000805080F4005040F4004141F080014A4B59
:1027300003EB8402C2F8001C1BE0E0B200F0D5FFFE
:10274000454A02EB8401D1F8001C4BF68F7201EA76
:10275000020080F4805080F4005000E00FE040F46C
:10276000004141F080013C4B03EB8402C2F8001CA5
:1027700000BF354909684869804700206AE700BF03
:10278000022067E72DE9F0412E480068467926F0DF
:1027900080073C462B480068407900F0800038B143
:1027A0002D4901EB8400D0F8000C00F0300506E064
:1027B000294901EB8400D0F8000C00F4405523486F
:1027C0000078A04208D91F480068408820B91DB190
:1027D0001C480068807A10B90220BDE8F08106F03C
:1027E0008000A0B11C4A02EB8401D1F8001C48F61D
:1027F000BF7201EA020080F0100040F4004141F095
:102800008001154B03EB8402C2F8001C14E0124A4D
:1028100002EB8401D1F8001C4BF68F7201EA020032
:1028200080F4805040F4004141F080010A4B03EBFA
:102830008402C2F8001C00BF034909688869804708
:102840000020CAE7200200202C0200207401002092
:1028500024020020180200200050004078010020CF
:1028600010B5F7480068407A40F02000F449096844
:102870004872F4490968C8698047002010BD10B546
:102880000246EF480068438A32B98888C01AEC4C87
:1028900024682082002010BD08681844FBE72DE959
:1028A000F041E748006800F110042688A068C0B134
:1028B000BEB1A588B54200D93546A8B2A1688847FF
:1028C00007462088401B20806088284460800020C4
:1028D00000F07FFF8046AAB24146384600F03EFD38
:1028E00000BF208850B14FF44050D74908800021E4
:1028F000084600F07AFF3020D44908802088A1885B
:10290000884204DB0320CE490968087218E0208859
:10291000002804DD0520CA490968087210E02088F3
:1029200070B90620C649096808720021C8480068C5
:1029300080B2801CC74A42F810103020C34908807A
:10294000BDE8F0812DE9F047BD48006800F11005B1
:102950002E88BB480068077AD6B9042F18D1BE4824
:10296000007801280FD10021B948006880B2801C8E
:10297000B84A42F810103020B449088000BF002047
:10298000B549087003E007271020B049088027E008
:10299000AC88A64201D8042000E002200746B442D9
:1029A00000D93446A0B2A96888478046002000F0CC
:1029B00005FF8146A2B24946404600F0B5FCA1B2EF
:1029C000002000F012FF2888001B2880688820441F
:1029D000688030209D49088000029B49088000BF24
:1029E000974909680F72BDE8F08770B502269448D0
:1029F0000068447892480068007800F07F00002862
:102A000044D1092C03D1FFF73CFD06465FE0052CBD
:102A100014D18B480068C0787F280BDC8848006898
:102A2000807838B986480068808818B9844800687A
:102A3000807A08B1082565E0002648E0032C0ED115
:102A40007F480068C078012807D17D4800688088E9
:102A500018B9FFF705FF064639E0022637E0012CDA
:102A600035D177480068C07801280DD174480068D6
:102A7000808848B972480068407A00F0200018B198
:102A8000FFF7D5FD064622E0022620E06C480068EC
:102A9000007800F07F00012805D10B2C17D1FFF73B
:102AA0001FFD064613E066480068007800F07F00CE
:102AB00002280BD1012C03D1FFF7B9FD064606E031
:102AC000032C04D1FFF75EFE064600E002264EB15D
:102AD000E0B2624A1268516988470646032E01D166
:102AE00009250FE00EB108250CE006250021584805
:102AF000006880B2801C574A42F8101030205349B9
:102B0000088000BF4E4909680D7270BD2DE9F84F6D
:102B10004B48006845780027BA46062D1BD1484827
:102B20000068007800F07F00002813D1444909684C
:102B30008878012803D149490968CF690AE0022849
:102B400003D1464909680F6A04E0032802D14349CA
:102B500009684F6AADE0002D67D1394800684088A8
:102B6000002862D136480068C08802285DD1344808
:102B700000680079002858D131480068007800F0DA
:102B80007F0030B92E480068808810B9AFF24F67D7
:102B90008FE02B480068007800F07F00012811D1F9
:102BA0002749096848792D4909688A6900219047B1
:102BB00000287ED122480068807A002879D0AFF2C0
:102BC0007F6776E01E480068007800F07F000228EA
:102BD0006FD11B480068407900F00F061848006864
:102BE000407900F0700916480068407900F08000D4
:102BF00038B11B4901EB8600D0F8000C00F030081A
:102C000006E0174901EB8600D0F8000C00F44058AC
:102C100014480078B0424CD9B9F1000F49D1B8F14D
:102C2000000F46D0AFF2E76743E0082D1CD10448FF
:102C30000068007800F07F00D8BBAFF2DB7738E0A7
:102C4000200200202C02002030020020320200204E
:102C5000505C0040006000401A0200202402002066
:102C600000500040740100200A2D22D1C5480068A0
:102C7000007800F07F0001281BD1C2480068807AEC
:102C8000B8B1C0480068408898B9BE48006800796B
:102C900078B9BC480068C08801280AD1B9490968D8
:102CA0004879B94909688A690021904708B9AFF2A3
:102CB000F17757B1B3480068A0F812A0B148006896
:102CC00087610020B84700240FE0AE4A12685078B0
:102CD000AD4A1268116988470446032C05D10920C2
:102CE000A84909680872BDE8F88FA6480068008AFC
:102CF0004FF6FF71884204D10920A2490968087281
:102D0000F1E7022C03D09F480068008A20B9082010
:102D10009C4909680872E6E79A480068007800F064
:102D20008000E0B397480068C0880090954800682C
:102D3000008A0099884204D992490098096808825B
:102D400023E090480068008A8E490968C988884253
:102D50001BDA8C480068008A8B49096891F82C10AE
:102D6000884203DA0020894908700EE0854800682F
:102D7000008A8549096891F82C1090FBF1F201FB5B
:102D8000120010B90120814908707F48006890F84E
:102D90002C107C4800688182FFF7D4FD07E0FFE734
:102DA000032078490968087200037949088000BF48
:102DB00099E710B5774890F82C10002000F037FD07
:102DC00070480068007A082805D1400270490880E0
:102DD0001020714908806B480068007A092801D1E9
:102DE000012010BD0020FCE738B501246B480068C5
:102DF00080B2001D6A4931F8100080B201EB40003A
:102E0000009060480068007A092832D00098007865
:102E10005C49096808700098401C00900098007890
:102E20005849096848700098401C0090009800EBD1
:102E300044000090009931F8020B009100F0A0FED0
:102E4000504909684880009800EB440000900099C0
:102E500031F8020B009100F093FE4A49096888801E
:102E6000009800EB440000900098008845490968EC
:102E7000C880012043490968087242480068C08838
:102E800010B9FFF7B2FD01E0FFF740FEFFF791FF39
:102E900038BD30B50146434B1A78002014E00306D4
:102EA000414C04EB9353D3F8003C48F68F74234015
:102EB00048F280042343C4B2234304063A4D05EB91
:102EC0009454C4F8003C401C9042E8D341F0800385
:102ED000324C241F236030BD10B52A480068047AA4
:102EE000022C01D0042C05D1FFF72CFD25480068E9
:102EF000047A1CE0062C19D1224800684078052885
:102F00000ED120480068007800F07F0040B91D49CC
:102F10000968C878FFF7BDFF24490968086A804737
:102F20001949096888688047082400E00824154981
:102F300009680C72FFF73DFF10BD10B5114800681D
:102F4000047A022C01D0042C01D1082412E0032CB5
:102F500001D0052C05D1FFF7A2FC0A480068047ACD
:102F600008E0072C05D108490968C868804708248B
:102F700000E00824034909680C72FFF71AFF10BD2E
:102F80007047000020020020240200201A020020C6
:102F9000300200207801002032020020505C004006
:102FA0000060004074010020005000402C0200200E
:102FB00010B50848084908600220096808720748E7
:102FC0000749086007480849086005490968086812
:102FD000804710BD781A00202002002078010020D0
:102FE00024020020A80100202C02002008B50020A7
:102FF000009022E1C448008800F00F00C349087027
:103000000846007800287CD1C1480068C149088082
:103010000846008800F03000BF490880BD4800889D
:1030200000F44050BB490880B94909684BF6BF72AB
:1030300001EA020080F4005080F0200040F40041DA
:1030400041F08001B24A1160AF48008800F01000E2
:1030500090BB1046006848F60F71084011460860A2
:10306000FFF73AFFAA4909684BF6BF7201EA02006E
:10307000A849098801F4805109B180F48050A5491C
:10308000098801F4005109B180F40050A24909886F
:1030900001F0100109B180F010009F49098801F08A
:1030A000200109B180F0200081B241F4004141F0DB
:1030B0008001974A116008BDFFE79548006880B21B
:1030C0000090BDF8000000F40060B0B390480068C4
:1030D000C0F30E0048F68F7108408D490860FFF775
:1030E00083FE8B4909684BF6BF7201EA02008949E9
:1030F000098801F4805109B180F48050854909881C
:1031000000E056E001F4005109B180F4005082491A
:10311000098801F0100109B180F010007E4909888A
:1031200001F0200109B180F0200081B241F400419A
:1031300041F08001764A1160BDE7FFE7BDF800006D
:1031400000F40040002878D071480068C0F30E00F9
:1031500048F68F7108406E490860FFF7EEFE6C4933
:1031600009684BF6BF7201EA02006A49098801F456
:10317000805109B180F480506649098801F40051FA
:1031800009B180F400506449098801F0100109B1C7
:1031900080F010006049098801F0200109B180F039
:1031A000200081B241F4004141F08001584A116091
:1031B00081E756480078594901EB8000D0F8000CAF
:1031C00080B20090BDF8000000F40040C0B14F484C
:1031D000007801EB8000D0F8000CC0F30E0048F638
:1031E0008F710840494909784C4A02EB8101C1F8C6
:1031F000000C46490978491E494A52F82100804787
:10320000BDF8000000F08000B8B1404800784349A4
:1032100001EB8000D0F8000C48F60F7108403B49E4
:1032200009783E4A02EB8101C1F8000C3749097860
:10323000491E3C4A52F82100804735484430006816
:1032400080B23149088000F4004000287FF4D2AEFB
:1032500000BF30E710B500244AE047F6FF702C4964
:10326000443108602848008800F00F0027490870A2
:1032700008460078294901EB8000D0F8000C84B2A0
:1032800004F40040C8B12148007801EB8000D0F878
:10329000000CC0F30E0048F68F7108401B490978F6
:1032A0001E4A02EB8101C1F8000C18490978491E39
:1032B0001B4A52F8210080471AE004F08000B8B1A0
:1032C00012480078154901EB8000D0F8000C48F650
:1032D0000F7108400D490978104A02EB8101C1F8CD
:1032E000000C0A490978491E0E4A52F8210080470D
:1032F00007484430006880B20349088000F4004069
:103300000028AAD110BD00002C0100201C020020C2
:10331000005C0040300200203202002000500040DB
:103320005401002038010020F0B5144604F1010CCE
:103330004FEA6C07DFF848C00CEB41033D460AE05A
:103340000678401C90F800C046EA0C2223F8022BB5
:103350009B1C401C6D1E002DF2D1F0BDF0B5561C1B
:103360007510074E06EB41042B4605E034F8047B4C
:1033700020F8017B401C5B1E002BF7D1F0BD000044
:1033800000600040FA4908607047F948006880B260
:103390007047F749091D08607047F548001D00682F
:1033A00080B27047F2480830006880B27047F04938
:1033B0000C3108607047EE480C30006880B27047EE
:1033C0004FF6F8710140EA4A103211607047E84840
:1033D0001030006880B27047E64B03EB8002C2F801
:1033E000001C70470146E34A02EB8100D0F8000C54
:1033F00080B2704710B5DF4B03EB8002D2F8002C8F
:1034000048F68F131A400A43DA4C04EB8003C3F8E2
:10341000002C10BD0146D74A02EB8100D0F8000C09
:1034200000F4C060704730B5D24C04EB8003D3F891
:10343000003C48F6BF7403EA040201F010030BB12C
:1034400082F0100201F020030BB182F0200242F45E
:10345000004343F08003C74D05EB8004C4F8003CF3
:1034600030BD30B5C34C04EB8003D3F8003C4BF6C1
:103470008F7403EA040201F480530BB182F480528A
:1034800001F400530BB182F4005242F4004343F0C4
:103490008003B84D05EB8004C4F8003C30BD30B566
:1034A00003460C461846FFF79DFF0546012C07D141
:1034B00025F48050AF4A02EB8301C1F8000C08E00C
:1034C000022C06D125F01000AA4A02EB8301C1F8B4
:1034D000000C30BD0146A74A02EB8100D0F8000C79
:1034E00000F0300070470146A24A02EB8100D0F89C
:1034F000000C00F44050704710B59E4B03EB800267
:10350000D2F8002C48F6BF7302EA030181F01001E3
:1035100081F0200141F4004242F08002954C04EB1E
:103520008003C3F8002C10BD10B5924B03EB800252
:10353000D2F8002C4BF68F7302EA030181F480511C
:1035400081F4005141F4004242F08002894C04EBC6
:103550008003C3F8002C10BD864A02EB8001D1F82D
:10356000001C41F4807148F68F72114048F28002CD
:103570001143804B03EB8002C2F8001C70477D4A68
:1035800002EB8001D1F8001C48F68F62114048F22E
:1035900080021143774B03EB8002C2F8001C704796
:1035A000744A02EB8001D1F8001C48F68F6211408A
:1035B00048F2800211436F4B03EB8002C2F8001CFB
:1035C00070476C4A02EB8001D1F8001C41F4807115
:1035D00048F68F72114048F280021143654B03EBAD
:1035E0008002C2F8001C7047624A02EB8001D1F8E9
:1035F000001C41F4807148F68F72114048F280023D
:1036000011435C4B03EB8002C2F8001C7047594A1F
:1036100002EB8001D1F8001C48F68F62114048F29D
:1036200080021143534B03EB8002C2F8001C704729
:103630000146504A02EB8100D0F8000C00F0300047
:10364000102801D1012070470020FCE70146494ABB
:1036500002EB8100D0F8000C00F44050B0F5805F20
:1036600001D1012070470020FCE7424A02EB8001B3
:10367000D1F8001CC1F30E0148F68F7211403D4B8A
:1036800003EB8002C2F8001C70473A4A02EB80014B
:10369000D1F8001C48F60F721140364B03EB800244
:1036A000C2F8001C7047334A02EB8001D1F8001CBD
:1036B00048F68F7211404CF2800211432D4B03EB00
:1036C0008002C2F8001C70472A4A02EB8001D1F840
:1036D000001C48F68F72114048F2C0021143254B7E
:1036E00003EB8002C2F8001C7047224A02EB800103
:1036F000D1F8001C01F4804171B102EB8001D1F8D6
:10370000001C48F68F7211404CF280021143194B95
:1037100003EB8002C2F8001C7047164A02EB8001DE
:10372000D1F8001C01F0400171B102EB8001D1F829
:10373000001C48F68F72114048F2C00211430D4B35
:1037400003EB8002C2F8001C704710B5094B03EB75
:103750008002D2F8002C48F68F731A4048F280039A
:103760001A430A43034C04EB8003C3F8002C10BD3A
:10377000405C0040005000400146FC4A02EB8100E2
:10378000D0F8000C00F00F00704710B54A1052003E
:10379000F74B1B689BB203EBC003F64C44F81320B5
:1037A00010BD10B54A105300F14A126892B202EBF4
:1037B000C002121DEF4C44F8123010BD0146EC4817
:1037C000006880B200EBC100EA4A32F8100080B213
:1037D00070470146E648006880B200EBC100001D5A
:1037E000E44A32F8100080B27047E14A126892B29F
:1037F00002EBC002921CDF4B43F8121070470246E6
:103800003E290BDD481101F01F030BB9431E98B28E
:103810004FF4004343EA8023136007E0481001F0AF
:1038200001030BB1431C98B283021360704710B5BB
:103830000246CF48006880B200EBC200801DCD4C2C
:1038400004EB40033E290BDD481101F01F040CB9C5
:10385000441EA0B24FF4004444EA80241C6007E0F8
:10386000481001F001040CB1441CA0B284021C6099
:1038700010BD0146BE48006880B200EBC100801C4C
:10388000BC4A32F81000C0F3090070470146B8483E
:10389000006880B200EBC100801DB64A32F810000B
:1038A000C0F30900704730B54B105B00B04C246882
:1038B000A4B204EBC004AF4D45F8143053105C00C3
:1038C000AB4B1B689BB203EBC0031B1D45F81340B9
:1038D00030BD10B54A105200A54B1B689BB203EBDC
:1038E000C003A44C44F8132010BD10B54A10530077
:1038F0009F4A126892B202EBC002121D9D4C44F81E
:10390000123010BD01469A48006880B200EBC10039
:10391000984A32F8100080B2704701469448006817
:1039200080B200EBC100001D924A32F8100080B254
:10393000704730B50B46012B1FD18D49096889B2FC
:1039400001EBC001891C8B4D05EB41043E2A0BDDC8
:10395000511102F01F050DB94D1EA9B24FF40045DB
:1039600045EA8125256007E0511002F001050DB1FF
:103970004D1CA9B28D0225600AE0022B08D17C49BA
:10398000096889B201EBC001891C7A4C44F8112006
:10399000012B1FD17649096889B201EBC001891D4D
:1039A000744D05EB41043E2A0BDD511102F01F0559
:1039B0000DB94D1EA9B24FF4004545EA8125256099
:1039C00007E0511002F001050DB14D1CA9B28D02A6
:1039D00025600AE0022B08D16549096889B201EB2C
:1039E000C001891D634C44F8112030BD30B5034639
:1039F00001291FD15E48006880B200EBC300801C23
:103A00005C4D05EB40043E2A0BDD501102F01F0512
:103A10000DB9451EA8B24FF4004545EA8025256042
:103A200007E0501002F001050DB1451CA8B2850257
:103A300025600AE0022908D14D48006880B200EBF9
:103A4000C300801C4B4C44F8102030BD30B50346F9
:103A500001291FD14648006880B200EBC300801DD9
:103A6000444D05EB40043E2A0BDD501102F01F05CA
:103A70000DB9451EA8B24FF4004545EA80252560E2
:103A800007E0501002F001050DB1451CA8B28502F7
:103A900025600AE0022908D13548006880B200EBB1
:103AA000C300801D334C44F8102030BD014630481F
:103AB000006880B200EBC100801C2E4A32F8100072
:103AC000C0F30900704701462948006880B200EB46
:103AD000C100801D274A32F81000C0F3090070476A
:103AE00001462348006880B200EBC100801D214AD6
:103AF00032F8100000F47C4008B1012070471C48E7
:103B0000006880B200EBC100801C1A4A32F8100035
:103B1000C0F3090008B10220F0E70020EEE710B57D
:103B2000012910D1114B03EB8002D2F8002C48F68A
:103B30008F731A4048F2C0031A430C4C04EB800305
:103B4000C3F8002C11E002290FD1084B03EB8002CF
:103B5000D2F8002C48F68F731A404CF280031A43B7
:103B6000024C04EB8003C3F8002C10BD0050004051
:103B7000505C004000600040024641EA022070476D
:103B80000146CAB20B1243EA0220704700201D49C9
:103B900008604FF43F401C490880084600881949D6
:103BA000091F0860002070472DE9F04104460E46C9
:103BB000154604F07F00FFF701FE0746AAB239461A
:103BC0003046FFF7B1FBA9B204F07F00FFF70DFE0E
:103BD0000020BDE8F0812DE9F04104460E460025A5
:103BE00004F07F00FFF752FE054604F07F00FFF768
:103BF000F0FD07462A4639463046FFF7AFFB284618
:103C0000BDE8F081445C00402A020020704770B596
:103C1000064600F0BBF80468054630460A2200213B
:103C200000F0B8F82C6070BD014A00F0EBB800005D
:103C300034020020032A40F2308010F0030C00F020
:103C4000158011F8013BBCF1020F624498BF11F8D6
:103C500001CB00F8013B38BF11F8013BA2F104028F
:103C600098BF00F801CB38BF00F8013B11F0030307
:103C700000F0EA80083AC0F0088051F8043B083AA6
:103C800051F804CBA0E80810F5E7121D5CBF51F80D
:103C9000043B40F8043BAFF30080D20724BF11F887
:103CA000013B11F801CB48BF11F8012B24BF00F8EC
:103CB000013B00F801CB48BF00F8012B70474FF0E3
:103CC00000020429C0F0128010F0030C00F0F08014
:103CD000CCF1040CBCF1020F18BF00F8012BA8BFF7
:103CE00020F8022BA1EB0C0100F0E2B85FEAC17CE6
:103CF00024BF00F8012B00F8012B48BF00F8012B6E
:103D0000704700004FF0013C50F8042B51F8043B81
:103D10009A4221D1A2EB0C03934313EACC1317D19F
:103D200050F8042B51F8043B9A4215D1A2EB0C0336
:103D3000934313EACC130BD150F8042B51F8043BF6
:103D40009A4209D1A2EB0C03934313EACC13DBD0C4
:103D50004FF00000704700BFD01A01BAB1FA81F1EC
:103D600001F0180122FA01F0CB40C1F12001DBB2D1
:103D7000C0B2C01A2CFA01F3D11A914311EAC3114F
:103D8000E6D17047704770477047704700487047EA
:103D9000941A00202DE9F04791460F4680460446CC
:103DA000002614F8015B2DB100F0ACF80068405D0E
:103DB000C007F6D12B2D02D02D2D18D0641E4A46F7
:103DC0003946204600F0A6F827B13968A14201D152
:103DD000C7F800804FF0020471050BD5404200285F
:103DE00003DDFFF7D3FF0460A007BDE8F08746F4CA
:103DF0008066E4E70028F8DAFFF7C8FF04606FF098
:103E00000040F2E72DE9F04115460E46040002D1CC
:103E10002C6804B90BA4204600F0DBF80444207899
:103E200070B127463146384600F0C3F80444207884
:103E300010B1002004F8010B38462C60BDE8F08179
:103E40000027F9E70000000010B5203AC0F00B8011
:103E5000B1E81850203AA0E81850B1E81850A0E88E
:103E60001850BFF4F5AF5FEA027C24BFB1E81850E8
:103E7000A0E8185044BF18C918C0BDE810405FEA58
:103E8000827C24BF51F8043B40F8043B08BF7047D4
:103E9000D20728BF31F8023B48BF11F8012B28BFD9
:103EA00020F8023B48BF00F8012B70474FF000029A
:103EB00000B5134694469646203922BFA0E80C5020
:103EC000A0E80C50B1F12001BFF4F7AF090728BFFB
:103ED000A0E80C5048BF0CC05DF804EB890028BF77
:103EE00040F8042B08BF704748BF20F8022B11F0A0
:103EF000804F18BF00F8012B704700000048704742
:103F0000941A002010B500F097F8001D10BD00BFF6
:103F1000610100002DE9F05F824615468B460027BF
:103F20000AF10104B9460078302801D09DB113E0B0
:103F300014F8010B0127782803D0582801D045B187
:103F40000AE00DB1102D07D1002714F8010B102540
:103F500002E0082500E00A250026B0460EE005FB39
:103F6000080005FB06F101271FFA80F801EB104657
:103F7000B6F5803F00D3B94614F8010B294600F08E
:103F80005FF80028EBDABBF1000F05D00FB1641E1B
:103F900000E05446CBF80040B9F1000F06D0FFF71F
:103FA000F5FE02210160C81EBDE8F09F48EA064008
:103FB000FAE730B503461D781DB10A4603E0AC426E
:103FC00001D1181A30BD12F8014B002CF7D15B1C3F
:103FD000F1E730B503461D783DB10A4612F8014BB2
:103FE0001CB1AC42FAD15B1CF5E7181A30BD75461E
:103FF000FFF784FFAE4605006946534620F00700F0
:10400000854618B020B5FCF75FFCBDE820404FF0B6
:1040100000064FF000074FF000084FF0000B21F0B2
:104020000701AC46ACE8C009ACE8C009ACE8C0097F
:10403000ACE8C0098D46704700487047B41A0020AC
:104040003A2800D2303820F02002412A01D3A2F1D0
:104050003700884201D34FF0FF30704710B5044657
:10406000AFF300802046BDE81040FCF7D1B8000057
:1040700010B500290AD00878002807D005487844F0
:10408000FFF740FE002801D0002010BD0248784410
:1040900010BD0000CA000000C200000012010002B2
:1040A00000000040341278560002010203010902A8
:1040B0002900010100C032090400000203000000D1
:1040C0000921100100012221000705010240001012
:1040D00007058202400020058C0901A10109031592
:1040E000002600FF750895168102090415002600B8
:1040F000FF750895169102C00403090414034D00CE
:1041000079005500530042005F0048004900440018
:104110001403530054004D00330032005F0055007B
:10412000530042003A0000005842000800000020FE
:10413000380200006C01000810430008380200201B
:10414000C01E0000C801000810010000430000006C
:10415000F8FFFFFF004040404040404040404141A8
:10416000414141404040404040404040404040404C
:1041700040404040400502020202020202020202E6
:1041800002020202022020202020202020202002E3
:104190000202020202029090909090901010101073
:1041A000101010101010101010101010101010100F
:1041B00002020202020288888888888808080808A3
:1041C000080808080808080808080808080808086F
:1041D0000202020240000000000000000000000097
:1041E00000000000000000000000000000000000CF
:1041F00000000000000000000000000000000000BF
:1042000000000000000000000000000000000000AE
:10421000000000000000000000000000000000009E
:10422000000000000000000000000000000000008E
:10423000000000000000000000000000000000007E
:10424000000000000000000000000000000000006E
:104250000000000000000000C11324414208000FCC
:1042600032555047523A5052455041523A4F4B39CD
:1042700040073E46494E49534884A24A0468090112
:10428000020304060708090C69103C020406B41472
:104290001A03531254124D123302113202530213F5
:1042A000812F1408F91E2A0808E9040A15D11829D3
:1042B000044123030113D5201B08F30413B5211B6C
:1042C00008B7041AE9041369221B08C5041A8904F3
:1042D0001A97041AA504415A40701A9F24091658C7
:1042E0001AAD1C139C403308121AAE0832291AD793
:1042F0000832211AC00832091AF80832041AFC08D8
:1043000032144B10410822C873201A199B01250052
:0400000508000131BD
:00000001FF
