:020000040800F2
:1000000000040020FD2F0008192D00081B2D0008FA
:100010001D2D00081F2D0008212D000800000000E4
:10002000000000000000000000000000232D000878
:10003000252D000800000000272D0008292D0008AC
:100040008D30000891300008953000089930000884
:100050009D300008A1300008A5300008A930000834
:10006000AD300008B1300008B5300008B9300008E4
:10007000BD300008C1300008C5300008C930000894
:10008000CD300008D1300008D5300008D930000844
:10009000AD2F0008E1300008E5300008E930000825
:1000A000ED300008F1300008F5300008F9300008A4
:1000B000FD30000801310008053100080931000851
:1000C0000D31000811310008153100081931000800
:1000D0001D3100082B2D00082531000829310008AA
:1000E0002D31000831310008B52F000839310008E2
:1000F0003D31000841310008453100084931000810
:100100004D310008513100085531000859310008BF
:100110005D3100086131000865310008693100086F
:100120006D3100087131000875310008793100081F
:1001300010B50400A4B2002C06D1DFF8DC0B006877
:1001400001210182002008E0DFF8D00B0068006880
:100150008047DFF8C40B00680A3010BD80B5DFF8B7
:10016000C00B4078DFF8B01B0968C97888421AD301
:10017000DFF8A40B00688078002814D1DFF8980B12
:100180000068808800280ED1DFF88C0B0068DFF84B
:10019000881B0968C9788172DFF8800B00684068A5
:1001A0008047002000E0022002BD10B50400A4B288
:1001B000002C06D1DFF8600B0068012101820020CD
:1001C00008E0DFF8580B006880688047DFF8480BCC
:1001D00000680C3010BD10B5DFF83C0B0068C1782A
:1001E000DFF8340B00684079DFF8BC2B12689269A5
:1001F00090470400DFF8200B0068807A00282AD09E
:10020000E4B2002C0BD1DFF8100B00680079002855
:1002100005D1DFF8040B00688078002801D00220A7
:100220001AE0E4B2002C16D1DFF8F00A0068C068CA
:100230008047DFF8E40A0068DFF8DC1A09684979CA
:10024000C172DFF8D40A0068DFF8CC1A0968C978EF
:100250000173002000E0022010BD10B50400A4B21C
:10026000002C06D1DFF8B00A0068022101820020CC
:1002700081E0DFF8380B00210180DFF89C0A00687C
:1002800000787F2108422BD1DFF88C1A0968497A5F
:100290000800810608D5DFF8141B097851F0020127
:1002A000DFF8082B117007E0DFF8001B097811F068
:1002B000FD01DFF8F82A1170410608D5DFF8EC1AC5
:1002C000097851F00101DFF8E42A11704CE0DFF801
:1002D000DC1A097811F0FE01DFF8D02A117043E032
:1002E000DFF8340A0068007810F07F00012802D19E
:1002F000DFF8B80A3FE0DFF8200A0068007810F065
:100300007F0002282ED1DFF8102A126852791100DE
:1003100011F00F0210000A0611D5C0B2DFF8902AC2
:1003200052F8202012F03002102A1DD1DFF87C2A6A
:10033000127852F00102DFF8743A1A7014E0C0B279
:10034000DFF86C2A52F8202012F44052B2F5805F98
:100350000AD1DFF8582A127852F00102DFF84C3A3D
:100360001A7001E0002006E0DFF8B00900680069BB
:100370008047DFF8380A10BD2DE9F843DFF8980907
:100380000068007810F07F000400002C0BD1DFF82B
:1003900088090068407A10F0DF00DFF87C190968EE
:1003A000487200209CE0022C40F09980DFF8680938
:1003B00000684088002805D1DFF85C0900680079F2
:1003C000002801D002208BE0DFF854090600DFF896
:1003D000480900684079804638F0800081464F46E1
:1003E000DFF8340900684079000607D5DFF8C00956
:1003F00050F8270010F03000050006E0DFF8B009E3
:1004000050F8270010F4405005003078814507D29D
:10041000002D05D0DFF800090068807A002801D19E
:1004200002205DE04046000611D5DFF8840950F84F
:10043000270010F0300010284AD13800C0B200F078
:1004400080FD30213800C0B200F0E9FC40E0DFF868
:10045000600950F8270010F44050B0F5805F37D1A4
:10046000002F1DD1DFF84C0990F82C1089B238000C
:10047000C0B200F0C9FDDFF8381951F827104BF66B
:100480008F721140080090F4805090F40050DFF813
:10049000201948F28002104380B241F8270017E08B
:1004A0003800C0B200F035FDDFF8041951F827100C
:1004B0004BF68F721140080090F4805090F4005079
:1004C000DFF8EC1848F28002104380B241F82700B0
:1004D000DFF84808006840698047002000E00220FB
:1004E000BDE8F283F8B5DFF8300800684079040011
:1004F00034F0800006003500DFF81C080068407901
:10050000000607D5DFF8A80850F8250010F03000E5
:10051000070006E0DFF8980850F8250010F4405076
:100520000700DFF8FC07007885420DD2DFF8E80706
:1005300000684088002807D1002F05D0DFF8D807D1
:100540000068807A002801D102202DE020000006FA
:1005500012D5DFF85C1851F8251048F6BF7211402B
:10056000080090F01000DFF8481848F280021043AD
:1005700080B241F8250011E0DFF8341851F8251059
:100580004BF68F721140080090F48050DFF820186D
:1005900048F28002104380B241F82500DFF87C0762
:1005A0000068806980470020F2BD80B5DFF86807E9
:1005B0000068407A50F02000DFF85C170968487244
:1005C000DFF858070068C0698047002002BD10B4FA
:1005D0000200DFF844070068408A030092B2002A54
:1005E00007D18888C01ADFF83047246820820020AD
:1005F00001E00868181810BC7047F8B5DFF8180754
:1006000000681030040020880500A06800281BD076
:10061000002D19D0A0880700BD4200D22F0038005D
:1006200080B2A168884706002088C01B20806088AF
:1006300038186080002000F0CDFC3A0092B2010032
:1006400089B2300002F0FDF9208800280CD0DFF8D4
:1006500068074FF4405101800021002000F0C7FCE2
:10066000DFF85807302101802088A188884205D30F
:10067000DFF8A4060068032101721DE0208801282C
:1006800005D3DFF8940600680521017214E0208884
:10069000002811D1DFF88006006806210172DFF81A
:1006A0002007006880B2DFF81C17002241F81020F4
:1006B000DFF8080730210180F1BD2DE9F041DFF8B6
:1006C000580600681030040020880500DFF848064E
:1006D0000068007A0600002D21D1042E1FD1DFF81A
:1006E000E8060078012813D1DFF8D406006880B24C
:1006F000DFF8D016002241F81020DFF8C0063021C4
:10070000018004200600DFF8C0060021017005E02A
:1007100007200600DFF8A406102101802EE0A08843
:100720008046A84501D3042600E00226454500D2B4
:10073000A846404680B2A16888470700002000F024
:100740003CFC424692B2010089B2380002F058F9EE
:10075000414689B2002000F04AFC2088B0EB080036
:100760002080608818EB00006080DFF850063021A0
:100770000180DFF844064FF440510180DFF898050E
:1007800000680672BDE8F08170B502200400DFF851
:100790008805006840780500DFF87C05006800786F
:1007A0007F21084255D1092D03D1FFF7D7FC040062
:1007B00073E0052D1DD1DFF860050068C078802842
:1007C00011D2DFF854050068807800280BD1DFF8DB
:1007D000480500688088002805D1DFF83C050068DE
:1007E000807A002802D0082006007CE00020040067
:1007F00053E0032D12D1DFF820050068C0780128EE
:1008000009D1DFF8140500688088002803D1FFF7BC
:10081000CCFE040041E0022004003EE0012D3CD16A
:10082000DFF8F4040068C07801280FD1DFF8E8048D
:1008300000688088002809D1DFF8DC040068407A6D
:10084000800603D5FFF798FD040026E0022004008F
:1008500023E0DFF8C4040068007810F07F0001286E
:1008600005D10B2D19D1FFF7B6FC040015E0DFF818
:10087000A8040068007810F07F0002280BD1012D39
:1008800003D1FFF779FD040007E0032D05D1FFF741
:1008900029FE040001E002200400E4B2002C0DD087
:1008A0002800C0B2DFF800150968496988470400CC
:1008B000E4B2032C02D10920060014E0E4B2002CBB
:1008C00002D0082006000EE006200600DFF8F00443
:1008D000006880B2DFF8EC14002241F81020DFF845
:1008E000DC0430210180DFF830040068067270BD3E
:1008F0002DE9F04782B0DFF8200400684078060058
:100900000020040000208146062E28D1DFF80804CC
:10091000006800787F21084240F0D180DFF8F813AA
:10092000096889780800C0B2012805D1DFF8781479
:100930000968C9690C00C2E0C0B2022805D1DFF81D
:1009400068140968096A0C00B9E0C0B2032840F0D5
:10095000B680DFF854140968496A0C00AFE0002E35
:1009600078D1DFF8B40300684088002872D1DFF83E
:10097000A8030068C08802286CD1DFF89C030068D7
:100980000079002866D1DFF89003006800787F21A5
:10099000084209D1DFF8800300688088002803D16D
:1009A000DFF8280404008AE0DFF86C0300680078B0
:1009B00010F07F00012815D10021DFF85C030068EA
:1009C0004079DFF8E423126892699047002876D1D5
:1009D000DFF844030068807A002870D0DFF8EC0369
:1009E00004006CE0DFF830030068007810F07F004E
:1009F000022864D1DFF820030068407910F00F006E
:100A00000700DFF814030068407910F0700080469A
:100A1000C14800684079000607D5DFF8940350F814
:100A2000270010F03000824606E0DFF8840350F81B
:100A3000270010F440508246B948007887423ED2E1
:100A4000B8F1000F3BD1BAF1000F38D0DFF87C03CA
:100A5000040034E0082E09D1AF48006800787F21F7
:100A600008422CD1DFF86803040028E00A2E26D1C2
:100A7000A9480068007810F07F0001281FD1A6481F
:100A80000068807A00281AD0A348006840880028AF
:100A900015D1A14800680079002810D19E4800684F
:100AA000C08801280BD100219B4800684079BE4ACC
:100AB000126892699047002801D1C64804002000BE
:100AC00000280BD094480068A0F812909248006863
:100AD00084610020A047002005000FE08E480068D8
:100AE0004078B1490968096988470500EDB2032DCE
:100AF00004D1894800680921017264E086480068D1
:100B0000008A4FF6FF71884204D1834800680921AA
:100B1000017258E0EDB2022D04D07F480068008ACF
:100B2000002804D17C480068082101724BE07A4813
:100B30000068007800063ED577480068C0880090BD
:100B4000009875490968098A884204D27248006889
:100B50000099018225E070480068008A6E490968A2
:100B6000C98888421DD26C480068008A8E4909688D
:100B700091F82C1089B2884203D293480021017069
:100B80000FE065480068008A8749096891F82C10D1
:100B900090FBF1F201FB1200002802D18A480121EA
:100BA00001705D4800688049096891F82C108182C5
:100BB000FFF783FD07E058480068032101727E4873
:100BC0004FF440510180BDE8F38738B5012005009E
:100BD00081487B49096889B2804A32F8111010EBCC
:100BE000410004004C480068007A092826D04A4891
:100BF000006821780170641C4748006821784170C2
:100C0000641CADB214EB45042000841C008800F085
:100C10003BFA414909684880ADB214EB4504200015
:100C2000841C008800F030FA3B4909688880ADB226
:100C300014EB4504384800682188C18036480068B4
:100C40000121017234480068C088002802D1FFF7F2
:100C50009BFD01E0FFF74CFE00F064F832BD10B5DB
:100C60002D480068007A0400022C01D0042C06D123
:100C7000FFF723FD28480068007A04001EE0062CD8
:100C80001AD125480068407805280ED1224800680E
:100C900000787F21084208D11F480068C07800F022
:100CA0005FF81E480068006A80473F480068806817
:100CB00080470820040001E008200400164800686E
:100CC000047200F02FF810BD10B513480068007AC8
:100CD0000400022C01D0042C02D10820040015E0ED
:100CE000032C01D0052C06D1FFF787FC0A480068C9
:100CF000007A04000AE0072C06D12B480068C0687F
:100D000080470820040001E0082004000248006831
:100D1000047200F007F810BD881E0020901E00200D
:100D20000C06002080B5234890F82C1089B20020D2
:100D300000F06AF92A480068007A082806D11E489F
:100D40004FF4805101801D48102101802448006823
:100D5000007A092801D1012000E00020C0B202BDC4
:100D600030B4204B1B781A0000231900914214D292
:100D70000B00DBB20E4C54F8233048F68F7423403E
:100D80000C00E4B2234348F2800423430C00E4B295
:100D9000074D45F82430491CE8E7C0B250F0800305
:100DA000114C236030BC70478C1E0020801E002038
:100DB000005C004000050020B41E0020B61E00208C
:100DC000505C004004600040BC1E00205B02000834
:100DD00031010008AB0100080060004008600040DD
:100DE000881E00200C0600204C5C0040704700006C
:100DF0004FF6F8710140DFF8782211607047C0B2F9
:100E0000DFF8702252F8202048F68F131A400A4368
:100E100092B2C0B2DFF85C3243F82020704710B4C1
:100E2000C0B2DFF8503253F8203048F6BF74234088
:100E30001A00CB0601D592F010028B0601D592F074
:100E40002002C0B2DFF82C3248F28004224392B272
:100E500043F8202010BC704710B4C0B2DFF8143241
:100E600053F820304BF68F7423401A00CB0401D581
:100E700092F480528B0401D592F40052C0B2DFF894
:100E8000F43148F28004224392B243F8202010BC8F
:100E90007047C0B2DFF8DC2152F8202048F6BF735B
:100EA0001A40110091F0100191F02001C0B2DFF85A
:100EB000C42148F28003194389B242F820107047D8
:100EC000C0B2DFF8B02152F820204BF68F731A40E1
:100ED000110091F4805191F40051C0B2DFF89421D7
:100EE00048F28003194389B242F820107047C0B21B
:100EF000DFF8801151F8201048F68F62114048F257
:100F00008002114389B2C0B2DFF8682142F8201094
:100F10007047C0B2DFF85C1151F8201049040FD5BA
:100F2000C0B2DFF8501151F8201048F68F7211400E
:100F30004CF280021143C0B2DFF8382142F8201091
:100F40007047C0B2DFF82C1151F8201049060FD5B8
:100F5000C0B2DFF8201151F8201048F68F7211400E
:100F600048F2C0021143C0B2DFF8082142F8201055
:100F7000704710B4DFF8F820126892B2C0B212EBDA
:100F8000C002DFF8F43089B24C08A4B2640043F820
:100F9000124010BC704710B4DFF8D420126892B22F
:100FA000C0B212EBC002DFF8D43089B24C08A4B250
:100FB000640043F8124010BC7047DFF8B4100968B1
:100FC00089B2C0B211EBC000DFF8AC1051F81000CC
:100FD00080B27047DFF89810096889B2C0B211EB8F
:100FE000C000DFF8981051F8100080B27047DFF8A9
:100FF0008020126892B2C0B212EBC002DFF88030DB
:1010000089B243F81210704730B4DFF864301B68BF
:101010009BB2C0B213EBC003DFF8684014EB43038C
:101020001A0089B23F290CD389B24C0923001F242E
:10103000214200D15B1E9BB29B0253F4004313601C
:1010400008E089B24C082300CC0700D55B1C9BB29A
:101050009B02136030BC70470549096889B2C0B271
:1010600011EBC000074951F810008005800D704752
:10107000505C0040005C00400060004008600040A0
:10108000046000400C60004001000B001A0089B2AF
:10109000D2B2130253EA1123180080B27047000045
:1010A00010B504005B4884420AD101214FF480400E
:1010B00000F007FF00214FF4804000F002FF36E00F
:1010C000554884420AD101215FF4003000F008FF46
:1010D00000215FF4003000F003FF28E04F48844215
:1010E0000AD101215FF4802000F0FAFE00215FF4B4
:1010F000802000F0F5FE1AE0494884420AD101211F
:101100005FF4002000F0ECFE00215FF4002000F00E
:10111000E7FE0CE04348844209D101215FF48010CE
:1011200000F0DEFE00215FF4801000F0D9FE10BD5B
:101130002DE9F04786B004000D00002006000020D5
:101140000700002080460020814600208246A889B2
:101150000028A246208A06004CF6FF700640E88868
:1011600006432682A08906004EF6F3100640A888A2
:1011700029890843698908430643A681A08A060095
:101180004FF6FF400640A8890643A68200A800F05B
:1011900008FE2048824502D10398070001E002982A
:1011A0000700A089000408D5192000FB07F0296872
:1011B0004900B0FBF1F0804607E0192000FB07F082
:1011C00029688900B0FBF1F080466420B8FBF0F09C
:1011D000000106003009642101FB10808146A089CE
:1011E000000409D55FEAC90032306421B0FBF1F098
:1011F00010F00700064308E05FEA0910323064216E
:10120000B0FBF1F010F00F000643268106B0BDE8F8
:10121000F0870000003801400044004000480040D2
:10122000004C004000500040C9B2002904D082891F
:1012300052F40052828103E0828922F400528281BA
:101240007047F0B400273B0000273C0000273D001A
:1012500000273E0040F66A1789B2B94206000F0027
:10126000FFB27F09FFB23B0089B211F01F073C00BB
:101270000127A7403D00012B01D10C3604E0022BD1
:1012800001D1103600E01436D2B2002A03D03768FC
:101290002F43376002E03768AF433760F0BC7047D8
:1012A00089B28A0589B2CA430280704770B40200CD
:1012B00000263300002634000026350000263000CA
:1012C00040F66A1689B2B1420E00F6B27609F6B25D
:1012D000350089B211F01F063400012616FA04F415
:1012E000012D02D19689344006E0022D02D1168AE2
:1012F000344001E0968A344089B20E0AB6B2330017
:10130000012616FA03F316883340002C04D0002B74
:1013100002D00126300001E000263000C0B270BCCF
:101320007047000070B504000D0000200600207812
:10133000002808D0F6B28B4821783154641C761C02
:10134000F6B2AE42F3D140224FF48C71854801F0E1
:1013500057FB0220FFF79DFD70BD10B50400012171
:10136000042000F090FDE4B2002C07D07E48006815
:1013700080B230F002007C49086015E07A480068CD
:1013800080B250F00200784908607848006830F474
:101390007F20764908607548006850F44C307349E6
:1013A000086073480021016010BD2DE9F84F00204E
:1013B000040000200500002006006E480700002001
:1013C000804600208146002082460020834601F0AE
:1013D000D3FA01F023FE5FF4E13001F075F901F07A
:1013E00009FC0020FFF7B9FF4FF4967001F0D8FA1E
:1013F0000120FFF7B2FF01F066F801F049F801F0B3
:101400006BFC5D4800782A2840F080805A4840787C
:1014100055287BD158488078502877D15648C078D5
:10142000472873D15448007952286FD1534800217E
:10143000017053480168504801F004FC8346BBF139
:10144000000F0AD0584601F0E1FD82464C48016881
:10145000002001F0F7FB8346F1E740214948FFF700
:1014600061FF464800780128FBD144480021017003
:1014700018F1400819F1010940223F49424830184B
:1014800001F04BFD4FF4006096FBF0F101FB1061A1
:1014900000291FD14FF480623B49380000F0C8FB9F
:1014A0004FF480623949380000F064FC374936480F
:1014B00001F0F0FB0028EDD14FF40062002132482A
:1014C00001F036FD17F500670020060030480121C5
:1014D000016014E0D04512DB4FF480622A493800E5
:1014E00000F0A6FB4FF400620021274801F020FD28
:1014F000002006001F4807000120050009E04036D3
:10150000402200211C4801F013FDAAE71B480021DE
:1015100001704FF47A7001F043FAEDB2012D7FF4BF
:1015200070AF002005001348040012480068040052
:10153000104800680A490840B0F1005F7FF461AFCD
:101540001448154909680160144812490968016086
:101550000848006801F07AFD10480068804750E7AD
:101560000000FE2F141E0020405C004004080140D3
:10157000B001214200000108C0040020BD1E00206F
:101580000006002080040020140E00201416002005
:10159000A00121427C1E002004000108781E0020CA
:1015A00080B500F0BEFF8C4800680021817200F019
:1015B000BBFC01F017FC89480021016001BD80B52A
:1015C0008548006800218172834800680021C1724B
:1015D000814800688249C97941720020FFF708FC00
:1015E0004FF400710020FFF70AFC10210020FFF7E4
:1015F00016FC18210020FFF7CEFC58210020FFF731
:10160000B8FC0020FFF773FC764890F82C1089B2E4
:101610000020FFF7F9FC0020FFF752FC0021012019
:10162000FFF7EDFB98210120FFF7B5FC40210120D9
:10163000FFF7EAFC4FF440510120FFF70DFC0021B9
:101640000220FFF7DCFB4FF48C710220FFF791FCC6
:1016500040210220FFF7CBFC20210220FFF7DFFB17
:101660000020FFF77DFB5D480121016001BD5E495F
:101670000800817A002902D0584905220A60704783
:1016800056480421016070477047704738B5040020
:1016900000200500E4B2062C1BD14F4800680078FA
:1016A00010F07F00012814D14B48006840790028D1
:1016B0000FD1494800688078222802D14B480500A4
:1016C00013E045480068807821280ED1484805007D
:1016D0000BE041480068007810F07F00212804D119
:1016E000E4B2032C01D1434805002800002801D1B1
:1016F000022009E038480068856137480068002109
:1017000041820020A847002032BD10B504003248B5
:101710000068007810F07F00212805D1E4B20B2C7E
:1017200002D100F044F800E0022010BD10B5040022
:101730003149200080B2FEF74AFF10BD10B5040009
:101740002E49200080B2FEF742FF10BD38B50400DC
:1017500021480068C0780500EDB2052D01D30020B6
:1017600007E0EDB2264810EBC501200080B2FEF77D
:101770002EFF32BD10B504002249200080B2FEF7D2
:1017800026FF10BD10B504001F49200080B2FEF7EF
:101790001EFF10BD0200C9B2012901D3022005E0DD
:1017A000D2B2012A01D3022000E0002070470A488B
:1017B0000068C07801001548C9B201600020704778
:1017C000010089B2002905D1034800680122028284
:1017D000002000E00D487047881E0020A01E002059
:1017E0008C2D000800050020541E002075170008ED
:1017F00085170008C1170008D8050020E005002063
:1018000054050020E8050020F00500209C1E002063
:1018100080B50020ADF8000087480068874908803F
:10182000000440F107818548008810F00F008449CA
:10183000087083480078002840F0C08081488249C1
:10184000096801807F48008810F030007F490880D7
:101850007C48008810F440507A4908807A49096829
:1018600089B24BF6BF721140080090F4005090F01E
:10187000200080B248F280010843734908606F4835
:101880000088C0062FD47048006880B248F60F71F7
:1018900008406D490860FFF7E2F96B49096889B2B1
:1018A0004BF6BF721140080066490988C90401D58A
:1018B00090F4805063490988890401D590F4005060
:1018C00062490988C90601D590F010005F4909886E
:1018D000890601D590F0200080B248F280010843CB
:1018E00059490860A6E058480068ADF80000BDF806
:1018F000000000052ED55448006840F68F7108405E
:1019000051490860FFF761F94F49096889B24BF600
:10191000BF72114008004B490988C90401D590F4F1
:10192000805048490988890401D590F400504749FE
:101930000988C90601D590F0100044490988890634
:1019400001D590F0200080B248F2800108433E4962
:1019500008606FE0BDF8000000047FF55DAF3A4815
:10196000006840F68F71084037490860FFF7ACF90E
:101970003549096889B24BF6BF72114008003149F8
:101980000988C90401D590F480502E49098889043A
:1019900001D590F400502D490988C90601D590F071
:1019A00010002A490988890601D590F0200080B2EC
:1019B00048F280010843244908603BE02048007851
:1019C000214951F82000ADF80000BDF800000004E6
:1019D00014D51B4800781C4951F8200040F68F713F
:1019E000084017490978184A42F82100144800783D
:1019F000174911EB800050F8040C8047BDF8000037
:101A000000067FF509AF0E4800780F4951F8200015
:101A100080B248F60F710840094909780A4A42F82D
:101A20002100074800780B4911EB800050F8040CA6
:101A30008047F1E601BD0000445C0040B81E002074
:101A4000BE1E0020B41E0020005C0040B61E002018
:101A5000AC0500209005002010B588B000200400DF
:101A60005E485F49096801805C4800885D490988D3
:101A70000840000401D5FFF7CBFE584800885949BB
:101A800009880840400506D555484FF6FF310160EA
:101A900055484068804751480088524909880840A5
:101AA000800403D54E484DF6FF7101604B48008815
:101AB0004C4909880840C00406D549484EF6FF71D4
:101AC0000160002000F06DFA44480088454909880B
:101AD000084000050DD545480078002802D000F0E8
:101AE0003CFA02E0022000F05CFA3D484FF2FF7140
:101AF00001603A4800883B4909880840800508D5BC
:101B000037484FF6FF51016039480078401C38498A
:101B1000087032480088334909880840C0055AD502
:101B20002F484FF6FF6101603248006800044CD531
:101B300031480068401C304908602F48006804287C
:101B400046D32E480068000742D42D482B49096827
:101B500089B2016000200400082C08D200A829499D
:101B600051F8241089B240F82410641CF4E724488A
:101B7000006850F0010022490860204820490968A7
:101B800089B201601E48016821F0010101601B4813
:101B90001B49096889B20160114800684005FBD5FE
:101BA0000F484FF6FF31016000200400082C08D2D6
:101BB000144800A951F8241089B240F82410641C7C
:101BC000F4E70D480021016002E00B4800210160AC
:101BD000072000F0E6F908B010BD00BFB81E0020D5
:101BE000445C0040B21E00200005002010060020CA
:101BF000BF1E0020485C0040941E0020405C004056
:101C0000981E0020005C0040F8B504000D0016008E
:101C100000200700BFB2B6B2B74208D2BFB235F853
:101C20001710200000F0CEFBA41C7F1CF2E7F1BDD2
:101C30002DE9F84F04000D001600B4F1006F02D337
:101C40004948844200D38CE000F078FBB4F1006096
:101C500083465FEADB2080464FF40060BBFBF0F177
:101C600001FB10B148088146D9F5806082461FFA11
:101C70008AFAB6B2B24500D3B2464FF480623B490D
:101C80004FF400605FF0006300FB083000F072F872
:101C900000200700BFB21FFA8AFA57450DD21FFA7B
:101CA00089F9BFB217EB0900304931F810004FF63F
:101CB000FF71884201D17F1CECE7BFB21FFA8AFA9C
:101CC000574527D24FF400605FF0006100FB081019
:101CD00000F048FB00200700BFB21FFA8AFA574500
:101CE0000CD2BFB21FFA89F919EB07001F49BFB226
:101CF00035F8172021F810207F1CEDE74FF48062A3
:101D00001A494FF400605FF0006300FB0830FFF7F2
:101D10007BFF05E0524692B229002000FFF774FFD6
:101D2000B6B21FFA8AFA564502D100F012FB18E04B
:101D300018F10108002081461FFA8AFA15EB4A05BE
:101D40001FFA8AFA1AEB0404B6EB0A0640F20140C5
:101D5000B6B2864203D34FF4806082468DE7B24626
:101D60008BE7BDE8F18F0000000004081406002096
:101D700000887047F8B504000D0016000020070029
:101D8000BFB2B6B2B74208D22000FFF7F1FFBFB230
:101D900025F81700A41C7F1CF2E7F1BD5949086023
:101DA000704730B40025290000252A0000252B00AB
:101DB00000252C00524D2D6815F00C0529000D0052
:101DC000002D04D0042D05D0082D06D026E04E4D60
:101DD000056025E04C4D056022E0494D2D6815F465
:101DE00070152A00464D2D6815F480352B00920C95
:101DF000921C002B04D1454D05FB02F505600FE058
:101E00003F4D2D68AD0304D5404D05FB02F505603F
:101E100006E03D4D05FB02F5056001E03A4D056029
:101E2000374D2D6815F0F00529000909384D4D5D35
:101E30002C000568E5404560314D2D6815F4E065DE
:101E40002900090A324D4D5D2C004568E54085604A
:101E50002B4D2D6815F460552900C90A2C4D4D5D98
:101E60002C004568E540C560254D2D6815F44045BA
:101E70002900890B274D4D5D2C00C568B5FBF4F595
:101E8000056130BC7047C9B2002905D0224A1268EA
:101E90000243214B1A6004E01F4A126882431E4B22
:101EA0001A607047C9B2002905D01C4A1268024363
:101EB0001A4B1A6004E0194A12688243174B1A60E1
:101EC0007047C9B2002905D0154A12680243144B65
:101ED0001A6004E0124A12688243114B1A6070477C
:101EE000C9B2002905D00F4A126802430D4B1A608F
:101EF00004E00C4A126882430A4B1A6070470000E3
:101F000004100240D800424200127A0000093D004D
:101F1000C805002004060020181002401C100240D2
:101F20000C1002401010024001200100524889B2FA
:101F300001605248002202804F48504A12880260D5
:101F40004F48002202604D484FF4E05202804A4858
:101F50004A4A128802600020704710B5464800685F
:101F6000040054F008044448A4B2046042480068E5
:101F7000040054F004044048A4B2046000F092FA53
:101F800010BD10B53C480068040024F004043A4831
:101F9000A4B2046000F08AFA37484FF43F41016070
:101FA00010BD38B50400E4B2072C01D035480470E8
:101FB00034480078002808D002281DD013D3042804
:101FC0002ED020D305283AD051E02F4800680028B1
:101FD00005D1FFF7D6FF2B48062101704AE02948BA
:101FE0000521017046E0FFF7CCFF2648042101706F
:101FF0002548012101603DE022480221417021482D
:102000000321017036E01F484078401E1D4948708A
:102010001C48407800282DD11A480421017029E07D
:1020200015480068050055F010051348ADB205606D
:1020300014480521017013480A2141701AE0114823
:102040004078401E0F4948700E484078002811D152
:1020500009480068050025F010050748ADB2056085
:1020600008480621017008480021016002E0054887
:102070000621017031BD0000405C0040B21E00200E
:10208000445C0040A41E0020A81E002080B54E48DD
:10209000006850F001004C4908604C4800684C4909
:1020A00008404A490860484800684A49084046498B
:1020B00008604548016821F48021016043480068B8
:1020C00030F4FE004149086043485FF41F0101609D
:1020D00000F005F841485FF00061016001BD80B586
:1020E00000F001F801BD82B00020019000200090B6
:1020F0003548006850F48030334908603248006841
:1021000010F4003000900198401C019000980028C5
:1021100003D10198B0F5A06FF0D12B48006880037F
:1021200002D50120009001E00020009000980128D5
:1021300047D12B48006850F0100029490860284812
:10214000006880088000264908602548006850F033
:102150000200234908601D481C49096801601B48AA
:102160001A49096801601948006850F480601749ED
:1021700008601648006830F47C1014490860134861
:10218000006850F4E810114908600F48006850F0EA
:1021900080700D4908600C4800688001FBD50B4831
:1021A000006880088000094908600848006850F00D
:1021B0000200064908600548006810F00C00082875
:1021C000F9D102B070470000001002400410024034
:1021D0000000FFF8FFFFF6FE0810024008ED00E0E7
:1021E00000200240F0B55FF0000C62465FF0000C8A
:1021F00063465FF0000C64465FF0000C65465FF0DC
:10220000000C66465FF0000C674691F803C01CF0B6
:102210000F0C624691F803C05FEACC6C03D591F8CD
:1022200002C05CEA020291F800C05FEA0C6C3AD08E
:10223000D0F800C066465FF0000C6446082C31D22E
:102240005FF0010C1CFA04FC6546B1F800C015EA09
:102250000C0C6346AB4223D15FEA840C65465FF009
:102260000F0C1CFA05FC6746BE4312FA05FC5CEA3B
:10227000060691F803C0BCF1280F06D15FF0010CEF
:102280001CFA04FCC0F814C00AE091F803C0BCF1C9
:10229000480F05D15FF0010C1CFA04FCC0F810C017
:1022A000641CCBE70660B1F800C04FF4807EF445B3
:1022B0003FD3D0F804C066465FF0000C6446082C9B
:1022C00036D25FF0010C14F1080E1CFA0EFC6546C4
:1022D000B1F800C015EA0C0C6346AB4226D15FEAA8
:1022E000840C65465FF00F0C1CFA05FC6746BE4384
:1022F00012FA05FC5CEA060691F803C0BCF1280F4F
:1023000007D15FF0010C14F1080E1CFA0EFCC0F8A6
:1023100014C091F803C0BCF1480F07D15FF0010C65
:1023200014F1080E1CFA0EFCC0F810C0641CC6E7BD
:102330004660F0BD89B2016170470000DFF8080116
:10234000DFF808110160DFF80001DFF80411016017
:102350007047DFF80001006850F08000DFF8F410EB
:102360000860704738B50400042005005FF4302091
:1023700000F076F80500EDB2042D20D1DFF8D4008E
:10238000006850F00200DFF8CC100860DFF8C800E9
:102390000460DFF8C000006850F04000DFF8B410BF
:1023A00008605FF4302000F05BF80500DFF8A4005F
:1023B000006841F6FD710840DFF8981008602800B9
:1023C000C0B232BD70B504000D00042006004FF409
:1023D000005000F045F80600F6B2042E16D1DFF8E2
:1023E0007400006850F00100DFF868100860258074
:1023F0004FF4005000F034F80600DFF85800006891
:1024000041F6FE710840DFF84C1008603000C0B2A1
:1024100070BD0421080011490968C90702D50121CE
:1024200008000FE00D490968490702D5022108009C
:1024300008E00A490968C90602D50321080001E03D
:1024400004210800C0B27047042002402301674500
:10245000AB89EFCD10200240142002400C20024036
:1024600038B5040004200500FFF7D3FF0500EDB2E6
:10247000012D06D1002C04D0FFF7CBFF0500641E10
:10248000F5E7002C01D1052005002800C0B232BDBF
:1024900080B50020FFF782FC01215FF40000FFF708
:1024A00001FD01BD2B480321016070472A49080046
:1024B000817A002903D0274905220A6002E02549D4
:1024C00001220A607047E0B54FF4A06000F056F9B1
:1024D0005FF4802000F043FA5FF480200190082030
:1024E0008DF8090001208DF80A0001A800F0F2F92A
:1024F00014208DF8000002208DF8010000208DF8D6
:10250000020001208DF8030000A800F03CF92A2009
:102510008DF8000001208DF8010000A800F033F9CB
:1025200007BD70B50D48006804000D48006805003F
:102530000C48006806003419002C09D008220A490A
:10254000200000F015F804220849280000F010F8D7
:1025500070BD0000A01E0020541E0020E8F7FF1FE1
:10256000ECF7FF1FF0F7FF1F76050020860500201F
:1025700030B40024230000242300DBB2D2B2934203
:1025800015D2040F0A2C05D2DBB2040F303401F847
:10259000134004E0DBB2040F373401F813400001AC
:1025A000DBB211EB4304002565705B1CE5E730BC32
:1025B000704700002DE9F04F85B080460D46144667
:1025C000474600E07F1C387800F0FAFC0028F9D17B
:1025D00038782D2801D02B2802D117F8019B01E073
:1025E0004FF02B09002C03D4012C01D0252C04DB47
:1025F0000DB1C5F80080002060E0012C0BDB102C31
:1026000016D13878302813D1787840F02000782817
:102610000ED1BF1C0CE03878302818BF0A2407D12F
:10262000787840F02000782808BF1024F1D00824E2
:1026300003973878302803D117F8010F3028FBD0E2
:1026400000260297DFF87CA00AF128008DF804002C
:1026500008E000969DF80410401A5FFA80FB04FB26
:1026600006B67F1C387800F0B5FC224601460AF118
:10267000280000F06BFA0028EBD10398B842B7D0DD
:102680000298381A14F80A10401A10D4012807DAF0
:10269000B6EB0B0004D3B0FBF4F00099884206D0EF
:1026A00000F070FC222101604FF0FF3603E0B9F129
:1026B0002D0F08BF764205B12F60304605B0BDE84A
:1026C000F08F00BFA42B000810B586B004000121D4
:1026D00044F20400FFF7D7FB4FF40070ADF80000A0
:1026E00018208DF8030003208DF8020000A921486E
:1026F000FFF778FD4FF48060ADF8000004208DF8FE
:10270000030003208DF8020000A91A48FFF76AFDB4
:102710001948FEF7C5FC02940020ADF80C0000201B
:10272000ADF80E000020ADF810000020ADF8140048
:102730000C20ADF8120002A90F48FEF7F9FC0122A7
:1027400040F225510C48FEF77CFD01210A48FEF7B6
:102750006BFD25208DF8040002208DF80500002077
:102760008DF8060001208DF8070001A800F00BF895
:1027700006B010BD00080140003801402549014362
:10278000254A11607047F0B4002421000024220083
:102790000F242300C478002C20D01F4C246814F48C
:1027A000E064D4F5E064240A2100D1F1040422009D
:1027B000CB4044789440210084781C402143090197
:1027C0000478164D615504786411154D012607787B
:1027D00017F01F07BE4045F8246009E00478641133
:1027E000104D0126077817F01F07BE4045F82460FA
:1027F000F0BC7047042806D10B49096851F0040168
:10280000094A116004E008490A6822F004020A60DB
:10281000704700000000FA050CED00E000E400E065
:1028200000E100E080E100E010E000E02DE9F0418F
:1028300000F10801026801EB8202406800F0010328
:102840004008400002EB80004FF0000CE6460024F8
:1028500001250CE01CF8018BBE4206D006F8018B66
:10286000641C24B2002CF7D40125BE4212D182424E
:1028700001D1BDE8F08152F8046B03B14E4452F827
:10288000047BBF19F1E7D1F800C08C44091D51F851
:1028900004EBE644F445F6D065B11CF9014B002584
:1028A00006E0D1F800C08C44091D51F804EBE64461
:1028B000F445F6D0002CCDD4002CD5D4BE4218BFA0
:1028C000F4451FBF1CF8018B06F8018B641E24B26F
:1028D000F2D1CAE700221100224A11008279002AAF
:1028E00036D0204A126803689A431E4B1A601E4A6B
:1028F000126803689A431C4B1A60027951180A68DF
:1029000003681A430A60194A126803689A43174B0E
:102910001A60174A126803689A43154B1A60427985
:10292000102A0CD1114A126803681A430F4B1A601F
:102930000F4A126803681A430D4B1A600EE0094AE9
:102940001100427951180A6803681A430A6005E0C9
:10295000027951180A6803689A430A60704705496A
:10296000086070470004014004040140080401406D
:102970000C0401401404014080B57FF00400FFF70F
:1029800039FF184800681849B0FBF1F01749087082
:10299000164800784FF47A7148431549088001BD04
:1029A00080B2134A128802FB00F2124B1A60124ADC
:1029B00000231360114A126852F001020F4B1A6093
:1029C0000E4A1268110011F00112012AF8D00B4AC8
:1029D000136823F001031360074A00231360704754
:1029E000000000000806002000127A00BA1E002035
:1029F000B01E002014E000E018E000E010E000E06D
:102A0000F0B492B212F1010C5FEA6C0C634689B229
:102A1000DFF85CC01CEB410C67461C00002C0ED09C
:102A200090F800C06546401C90F800C055EA0C2C98
:102A300066463E80BF1CBF1C401C641EEEE7F0BC17
:102A4000704770B492B2561C7610330089B2084EAB
:102A500016EB410635001C00002C06D02E680680BF
:102A60002D1D401C401C641EF6E770BC7047000022
:102A7000006000404AB38B0707D011F8013B00F813
:102A8000013B521E21D08B07F7D183071ED1103A8C
:102A900007D330B4B1E83810103AA0E83810F9D2B2
:102AA00030BC530724BFB1E80810A0E8081044BFA9
:102AB00051F8043B40F8043BD20724BF31F8022B05
:102AC00020F8022B44BF0B7803707047083A07D3F5
:102AD000B1E80810083A40F8043B40F804CBF7D2BC
:102AE0005307E4E762F30F2262F31F42401810F02D
:102AF000030308D0C91A1FD3DB0748BF00F8012D14
:102B000028BF20F8022D130030B4144615461039A2
:102B100028BF20E93C00FAD8490728BF20E90C006B
:102B200048BF40F8042D890028BF20F8022D48BF77
:102B300000F8012D30BC7047C91818BF00F8012DEE
:102B4000CB0728BF00F8012D70470000C9B28307EA
:102B500006D0521E22D310F8013B9942F7D11FE054
:102B6000083A13D302F1040241EA012141EA01418A
:102B700050F8043B121F21BF4B40A3F1013C2CEA4B
:102B8000030C1CF0803FF3D0C9B2001F083210F8CC
:102B9000013B521E28BF91EA030FF8D818BF01204D
:102BA000401E704700002115110E0D0C0B0B0A0A78
:102BB0000909090909080808080808080707070794
:102BC0000707070707070707070000003031323300
:102BD0003435363738396162636465666768696AB7
:102BE0006B6C6D6E6F707172737475767778797ABD
:102BF0000000000080B501212420FFF744F94FF4C4
:102C00008070ADF8000010208DF8030003208DF8CF
:102C1000020000A90948FFF7E5FA4FF48071074860
:102C2000FFF788FB0420ADF8000000A90448FFF777
:102C3000D9FA04210248FFF77DFB01BD00080140DD
:102C40000014014038B504460D465CB1204600F042
:102C500026F90419207800280AD10D4800210160C6
:102C6000002032BD0A480468002CEFD1002032BD9C
:102C70002946204600F002F900190178002902D007
:102C8000002100F8011B02490860204632BD00BF48
:102C9000AC1E0020820707D010F8012B11F8013B71
:102CA000BAB19A42F6D014E002680B689A42A2F1D7
:102CB000013301BF934313F0803F50F8042F51F8C4
:102CC000043FF3D010F8012B11F8013B0AB19A42EE
:102CD000F8D0D01A7047000080B509480949016052
:102CE0000748006802210172074808490160084846
:102CF00008490160044800680068804701BD00BFC2
:102D0000881E0020541E00208C1E0020000500207C
:102D1000901E0020300500207047FEE7FEE7FEE72A
:102D2000FEE7704770477047704780B540F2255105
:102D30000648FEF7BBFA002807D0054801210170BC
:102D400040F225510148FEF7ABFA01BD00380140C1
:102D5000BB1E002080B50120FEF77EF90749086000
:102D60000648026892B298210548FFF76AFE0120E2
:102D7000FEF7A6F803480121017001BD841E002062
:102D8000C0040020BD1E0020704700000902290079
:102D9000010100C032090400000203000000092103
:102DA0001001000122210007050102400010070563
:102DB000820240002000000010B5084979441C310F
:102DC000074C7C441A34A14206D0081D0A685118E9
:102DD00088470146A142F8D110BD00BFE4000000C1
:102DE0000C01000006480021016006484FF43F41F5
:102DF00001800548034909880160002070470000F0
:102E0000445C0040B21E0020405C004038B500F039
:102E100021F90200022300240025ED431068A84296
:102E200003D011000220ABBE1460121D5B1EF5D151
:102E300031BD0000058C0901A10109031500260020
:102E4000FF750895168102090415002600FF750814
:102E500095169102C00000000BE050F8041BCB0750
:102E600044BFA9F101035918002341F8043B121F84
:102E7000FAD150F8042B002AEFD1704730B4024643
:102E800000E0521C13783BB10C462578002DF8D099
:102E900014F8015BAB42F8D1101A30BC704730B463
:102EA000024604E014F8015BAB4203D1521C1378D4
:102EB0001BB10C462578002DF4D1101A30BC704798
:102EC00099FFFFFFAC18000014060020000000006E
:102ED0005DF9FFFF0200000002000000A7020000F1
:102EE00021010000000400201102000038B5044652
:102EF000034DE86A010018BF804755F8240032BD31
:102F00000004002000F03AF9002801D0FFF754FF38
:102F10000020FEF74AFA00F0A1F870B504000D0099
:102F20001600320029002000FFF7A4FD200070BD2C
:102F300070B504000D0016002A0031002000FFF7D4
:102F4000D1FD200070BD0000120100020000004011
:102F500034127856000201020301000014034D00F0
:102F600079005500530042005F00480049004400CA
:102F70001403530054004D00330032005F0055002D
:102F80005300420010B5034C2068010018BF804771
:102F9000201D10BD701E002080B5FFF737FF024ACC
:102FA00011001820ABBEFBE72600020080B5FEF73B
:102FB00053FD01BD80B55FF48020FFF7D0FC01BD5B
:102FC00010B504460120FFF791FF2046BDE81040F0
:102FD00000F00AB810B504460120FFF787FF20462D
:102FE000BDE8104000F026B8A0F10901052901D381
:102FF000202801D1012070470020704701488047F8
:10300000014800478D2000082930000810B5040051
:103010000A2200212000FFF7CDFA10BD80B54FF441
:10302000A060FFF7ABFB01BDC046C046C046C0462E
:10303000FFF768FFA0F141011A2938BF203070471F
:1030400007463846FFF7A8FFFBE7000080F3088833
:103050007047704700487047F805002080B5FFF7BB
:10306000EFBF000004030904FFF756BEFFF755BE8B
:10307000FFF754BEFFF753BEFFF752BEFFF751BE36
:10308000FFF750BEFFF74FBEFFF74EBEFFF7FEBF84
:10309000FFF7FEBFFFF7FEBFFFF7FEBFFFF7FEBF64
:1030A000FFF7FEBFFFF7FEBFFFF7FEBFFFF7FEBF54
:1030B000FFF7FEBFFFF7FEBFFFF7FEBFFFF7FEBF44
:1030C000FFF7FEBFFFF7FEBFFFF7FEBFFFF7FEBF34
:1030D000FFF7FEBFFFF7FEBFFFF7FEBFFFF766BFBC
:1030E000FFF7FEBFFFF7FEBFFFF7FEBFFFF7FEBF14
:1030F000FFF7FEBFFFF7FEBFFFF7FEBFFFF7FEBF04
:10310000FFF7FEBFFFF7FEBFFFF7FEBFFFF7FEBFF3
:10311000FFF7FEBFFFF7FEBFFFF7FEBFFFF7FEBFE3
:10312000FFF703BEFFF7FEBFFFF7FEBFFFF7FEBFCF
:10313000FFF7FEBFFFF73EBFFFF7FEBFFFF7FEBF83
:10314000FFF7FEBFFFF7FEBFFFF7FEBFFFF7FEBFB3
:10315000FFF7FEBFFFF7FEBFFFF7FEBFFFF7FEBFA3
:10316000FFF7FEBFFFF7FEBFFFF7FEBFFFF7FEBF93
:10317000FFF7FEBFFFF7FEBFFFF7FEBF012070475E
:103180003A0000E4000382310008FC0003823100B1
:1031900008A8000D555047523A5052455041523AF6
:1031A0004F4BCE000002C10027A1150008BF15003B
:1031B00008891600088B1600088D1600080B1700EA
:1031C00008951700082D1700083D1700084D170037
:1031D00008FC000040FD0028ED0D00086F160008F7
:1031E000ED0D0008ED0D0008ED0D0008ED0D0008D7
:1031F000ED0D0008ED0D0008811600086430000890
:1032000004FD00045C2F000814FD0004702F00086A
:1032100014FD0004740500201AFD000A1A0353006F
:1032200054004D00330032EF0037ED0D0008892DBA
:103230000008ED0D0008ED0D0008ED0D0008ED0D86
:103240000008ED0D0008552D0008ED0D0008ED0DEE
:103250000008ED0D0008ED0D0008ED0D0008ED0D66
:103260000008FC0010010203040102030406070821
:1032700009482F000812FD00048C2D000829FD00CC
:1032800004342E000821FD00049E2D000809FD00D5
:10329000F8FF10803100080204060800A24A040367
:0432A0000100000128
:040000050800302996
:00000001FF
