Component: ARM Compiler 5.06 update 3 (build 300) Tool: armlink [4d35c9]

==============================================================================

Section Cross References

    main.o(.text) refers to delay.o(.text) for delay_init
    main.o(.text) refers to na7600_usart.o(.text) for uart_init
    main.o(.text) refers to led.o(.text) for LED_Init
    main.o(.text) refers to na7600_timer.o(.text) for TIM3_Init
    main.o(.text) refers to na7600_stm32_inflash.o(.text) for STMFLASH_WtiteU16DataToFlash
    main.o(.text) refers to stm32f10x_usart.o(.text) for USART_SendString
    main.o(.text) refers to main.o(.data) for SendBufTemp
    stm32f10x_it.o(.text) refers to stm32f10x_tim.o(.text) for TIM_GetITStatus
    stm32f10x_it.o(.text) refers to stm32f10x_usart.o(.text) for USART_GetITStatus
    stm32f10x_it.o(.text) refers to na7600_timer.o(.data) for Flag10MS
    stm32f10x_it.o(.text) refers to na7600_usart.o(.data) for UpdateFlag
    stm32f10x_it.o(.text) refers to na7600_usart.o(.bss) for USART_ReCodeData
    system_stm32f10x.o(.text) refers to system_stm32f10x.o(.data) for SystemCoreClock
    jumptocode.o(.text) refers to jumptocode.o(.emb_text) for MSR_MSP
    jumptocode.o(.text) refers to jumptocode.o(.data) for JumpToApp
    led.o(.text) refers to stm32f10x_rcc.o(.text) for RCC_APB2PeriphClockCmd
    led.o(.text) refers to stm32f10x_gpio.o(.text) for GPIO_Init
    na7600_stm32_inflash.o(.text) refers to stm32f10x_flash.o(.text) for FLASH_ProgramHalfWord
==============================================================================

Removing Unused input sections from the image.

    Removing spi_flash.o(.text), (980 bytes).
    Removing spi_flash.o(.bss), (1336 bytes).
    Removing spi_flash.o(.data), (1344 bytes).
    Removing core_cm3.o(.emb_text), (32 bytes).
    Removing stm32f10x_bkp.o(.text), (196 bytes).
    Removing stm32f10x_cec.o(.text), (288 bytes).
    Removing stm32f10x_crc.o(.text), (72 bytes).
    Removing stm32f10x_dbgmcu.o(.text), (48 bytes).
    Removing stm32f10x_exti.o(.text), (284 bytes).
    Removing stm32f10x_iwdg.o(.text), (64 bytes).
    Removing stm32f10x_pwr.o(.text), (204 bytes).
    Removing stm32f10x_rtc.o(.text), (328 bytes).
    Removing stm32f10x_sdio.o(.text), (468 bytes).
    Removing stm32f10x_spi.o(.text), (780 bytes).
    Removing sys.o(.text), (12 bytes).

15 unused section(s) (total 6436 bytes) removed from the image.

==============================================================================

Image Symbol Table

    Local Symbols

    Symbol Name                              Value     Ov Type        Size  Object(Section)

    ../clib/angel/boardlib.s                 0x00000000   Number         0  boardinit2.o ABSOLUTE
    ../clib/angel/boardlib.s                 0x00000000   Number         0  boardinit1.o ABSOLUTE
    ../clib/angel/boardlib.s                 0x00000000   Number         0  boardinit3.o ABSOLUTE
    ../clib/angel/boardlib.s                 0x00000000   Number         0  boardshut.o ABSOLUTE
    ../clib/angel/handlers.s                 0x00000000   Number         0  __scatter_zi.o ABSOLUTE
    ../clib/angel/handlers.s                 0x00000000   Number         0  __scatter_copy.o ABSOLUTE
    ../clib/angel/kernel.s                   0x00000000   Number         0  __rtentry.o ABSOLUTE
    ../clib/angel/kernel.s                   0x00000000   Number         0  rtexit2.o ABSOLUTE
    ../clib/angel/kernel.s                   0x00000000   Number         0  __rtentry4.o ABSOLUTE
    ../clib/angel/kernel.s                   0x00000000   Number         0  __rtentry2.o ABSOLUTE
    ../clib/angel/kernel.s                   0x00000000   Number         0  rtexit.o ABSOLUTE
    ../clib/angel/rt.s                       0x00000000   Number         0  rt_raise.o ABSOLUTE
    ../clib/angel/scatter.s                  0x00000000   Number         0  __scatter.o ABSOLUTE
    ../clib/angel/startup.s                  0x00000000   Number         0  __main.o ABSOLUTE
    ../clib/angel/sys.s                      0x00000000   Number         0  sys_stackheap_outer.o ABSOLUTE
    ../clib/angel/sys.s                      0x00000000   Number         0  libspace.o ABSOLUTE
    ../clib/angel/sys.s                      0x00000000   Number         0  indicate_semi.o ABSOLUTE
    ../clib/angel/sys.s                      0x00000000   Number         0  use_no_semi.o ABSOLUTE
    ../clib/angel/sysapp.c                   0x00000000   Number         0  sys_wrch.o ABSOLUTE
    ../clib/angel/sysapp.c                   0x00000000   Number         0  sys_command.o ABSOLUTE
    ../clib/angel/sysapp.c                   0x00000000   Number         0  sys_exit.o ABSOLUTE
    ../clib/armsys.c                         0x00000000   Number         0  argv_veneer.o ABSOLUTE
    ../clib/armsys.c                         0x00000000   Number         0  argv_veneer.o ABSOLUTE
    ../clib/armsys.c                         0x00000000   Number         0  _get_argv_nomalloc.o ABSOLUTE
    ../clib/armsys.c                         0x00000000   Number         0  no_argv.o ABSOLUTE
    ../clib/heapalloc.c                      0x00000000   Number         0  hrguard.o ABSOLUTE
    ../clib/heapaux.c                        0x00000000   Number         0  heapauxi.o ABSOLUTE
    ../clib/libinit.s                        0x00000000   Number         0  libshutdown2.o ABSOLUTE
    ../clib/libinit.s                        0x00000000   Number         0  libinit2.o ABSOLUTE
    ../clib/libinit.s                        0x00000000   Number         0  libshutdown.o ABSOLUTE
    ../clib/libinit.s                        0x00000000   Number         0  libinit.o ABSOLUTE
    ../clib/memcpset.s                       0x00000000   Number         0  rt_memclr.o ABSOLUTE
    ../clib/memcpset.s                       0x00000000   Number         0  rt_memclr_w.o ABSOLUTE
    ../clib/signal.c                         0x00000000   Number         0  defsig_segv_inner.o ABSOLUTE
    ../clib/signal.c                         0x00000000   Number         0  defsig_cppl_inner.o ABSOLUTE
    ../clib/signal.c                         0x00000000   Number         0  defsig_pvfn_inner.o ABSOLUTE
    ../clib/signal.c                         0x00000000   Number         0  defsig_stak_inner.o ABSOLUTE
    ../clib/signal.c                         0x00000000   Number         0  defsig_rtred_inner.o ABSOLUTE
    ../clib/signal.c                         0x00000000   Number         0  defsig_fpe_inner.o ABSOLUTE
    ../clib/signal.c                         0x00000000   Number         0  defsig_abrt_inner.o ABSOLUTE
    ../clib/signal.c                         0x00000000   Number         0  __raise.o ABSOLUTE
    ../clib/signal.c                         0x00000000   Number         0  defsig_rtmem_inner.o ABSOLUTE
    ../clib/signal.c                         0x00000000   Number         0  defsig_exit.o ABSOLUTE
    ../clib/signal.c                         0x00000000   Number         0  defsig_general.o ABSOLUTE
    ../clib/signal.c                         0x00000000   Number         0  defsig_rtmem_formal.o ABSOLUTE
    ../clib/signal.c                         0x00000000   Number         0  defsig_rtmem_outer.o ABSOLUTE
    ../clib/signal.c                         0x00000000   Number         0  defsig_other.o ABSOLUTE
    ../clib/signal.s                         0x00000000   Number         0  defsig.o ABSOLUTE
    ../clib/stdlib.c                         0x00000000   Number         0  exit.o ABSOLUTE
    ../fplib/fpinit.s                        0x00000000   Number         0  fpinit.o ABSOLUTE
    ..\CORE\core_cm3.c                       0x00000000   Number         0  core_cm3.o ABSOLUTE
    ..\CORE\startup_stm32f10x_hd.s           0x00000000   Number         0  startup_stm32f10x_hd.o ABSOLUTE
    ..\STM32F10x_FWLib\src\misc.c            0x00000000   Number         0  misc.o ABSOLUTE
    ..\STM32F10x_FWLib\src\stm32f10x_bkp.c   0x00000000   Number         0  stm32f10x_bkp.o ABSOLUTE
    ..\STM32F10x_FWLib\src\stm32f10x_cec.c   0x00000000   Number         0  stm32f10x_cec.o ABSOLUTE
    ..\STM32F10x_FWLib\src\stm32f10x_crc.c   0x00000000   Number         0  stm32f10x_crc.o ABSOLUTE
    ..\STM32F10x_FWLib\src\stm32f10x_dbgmcu.c 0x00000000   Number         0  stm32f10x_dbgmcu.o ABSOLUTE
    ..\STM32F10x_FWLib\src\stm32f10x_exti.c  0x00000000   Number         0  stm32f10x_exti.o ABSOLUTE
    ..\STM32F10x_FWLib\src\stm32f10x_flash.c 0x00000000   Number         0  stm32f10x_flash.o ABSOLUTE
    ..\STM32F10x_FWLib\src\stm32f10x_gpio.c  0x00000000   Number         0  stm32f10x_gpio.o ABSOLUTE
    ..\STM32F10x_FWLib\src\stm32f10x_iwdg.c  0x00000000   Number         0  stm32f10x_iwdg.o ABSOLUTE
    ..\STM32F10x_FWLib\src\stm32f10x_pwr.c   0x00000000   Number         0  stm32f10x_pwr.o ABSOLUTE
    ..\STM32F10x_FWLib\src\stm32f10x_rcc.c   0x00000000   Number         0  stm32f10x_rcc.o ABSOLUTE
    ..\STM32F10x_FWLib\src\stm32f10x_rtc.c   0x00000000   Number         0  stm32f10x_rtc.o ABSOLUTE
    ..\STM32F10x_FWLib\src\stm32f10x_sdio.c  0x00000000   Number         0  stm32f10x_sdio.o ABSOLUTE
    ..\STM32F10x_FWLib\src\stm32f10x_spi.c   0x00000000   Number         0  stm32f10x_spi.o ABSOLUTE
    ..\STM32F10x_FWLib\src\stm32f10x_tim.c   0x00000000   Number         0  stm32f10x_tim.o ABSOLUTE
    ..\STM32F10x_FWLib\src\stm32f10x_usart.c 0x00000000   Number         0  stm32f10x_usart.o ABSOLUTE
    ..\SYSTEM\delay\delay.c                  0x00000000   Number         0  delay.o ABSOLUTE
    ..\SYSTEM\sys\sys.c                      0x00000000   Number         0  sys.o ABSOLUTE
    ..\\CORE\\core_cm3.c                     0x00000000   Number         0  core_cm3.o ABSOLUTE
    JumpToCode.c                             0x00000000   Number         0  jumptocode.o ABSOLUTE
    JumpToCode.c                             0x00000000   Number         0  jumptocode.o ABSOLUTE
    NA7600_STM32_INFLASH.c                   0x00000000   Number         0  na7600_stm32_inflash.o ABSOLUTE
    NA7600_Timer.c                           0x00000000   Number         0  na7600_timer.o ABSOLUTE
    NA7600_Usart.c                           0x00000000   Number         0  na7600_usart.o ABSOLUTE
    SPI_FLASH.c                              0x00000000   Number         0  spi_flash.o ABSOLUTE
    dc.s                                     0x00000000   Number         0  dc.o ABSOLUTE
    led.c                                    0x00000000   Number         0  led.o ABSOLUTE
    main.c                                   0x00000000   Number         0  main.o ABSOLUTE
    stm32f10x_it.c                           0x00000000   Number         0  stm32f10x_it.o ABSOLUTE
    system_stm32f10x.c                       0x00000000   Number         0  system_stm32f10x.o ABSOLUTE
    RESET                                    0x08010000   Section      304  startup_stm32f10x_hd.o(RESET)
    !!!main                                  0x08010130   Section        8  __main.o(!!!main)
    !!!scatter                               0x08010138   Section       52  __scatter.o(!!!scatter)
    !!handler_copy                           0x0801016c   Section       26  __scatter_copy.o(!!handler_copy)
    !!handler_zi                             0x08010188   Section       28  __scatter_zi.o(!!handler_zi)
    .ARM.Collect$$libinit$$00000000          0x080101a4   Section        2  libinit.o(.ARM.Collect$$libinit$$00000000)
    .ARM.Collect$$libinit$$00000002          0x080101a6   Section        0  libinit2.o(.ARM.Collect$$libinit$$00000002)
    .ARM.Collect$$libinit$$00000004          0x080101a6   Section        0  libinit2.o(.ARM.Collect$$libinit$$00000004)
    .ARM.Collect$$libinit$$0000000A          0x080101a6   Section        0  libinit2.o(.ARM.Collect$$libinit$$0000000A)
    .ARM.Collect$$libinit$$0000000C          0x080101a6   Section        0  libinit2.o(.ARM.Collect$$libinit$$0000000C)
    .ARM.Collect$$libinit$$0000000E          0x080101a6   Section        0  libinit2.o(.ARM.Collect$$libinit$$0000000E)
    .ARM.Collect$$libinit$$00000011          0x080101a6   Section        0  libinit2.o(.ARM.Collect$$libinit$$00000011)
    .ARM.Collect$$libinit$$00000013          0x080101a6   Section        0  libinit2.o(.ARM.Collect$$libinit$$00000013)
    .ARM.Collect$$libinit$$00000015          0x080101a6   Section        0  libinit2.o(.ARM.Collect$$libinit$$00000015)
    .ARM.Collect$$libinit$$00000017          0x080101a6   Section        0  libinit2.o(.ARM.Collect$$libinit$$00000017)
    .ARM.Collect$$libinit$$00000019          0x080101a6   Section        0  libinit2.o(.ARM.Collect$$libinit$$00000019)
    .ARM.Collect$$libinit$$0000001B          0x080101a6   Section        0  libinit2.o(.ARM.Collect$$libinit$$0000001B)
    .ARM.Collect$$libinit$$0000001D          0x080101a6   Section        0  libinit2.o(.ARM.Collect$$libinit$$0000001D)
    .ARM.Collect$$libinit$$0000001F          0x080101a6   Section        0  libinit2.o(.ARM.Collect$$libinit$$0000001F)
    .ARM.Collect$$libinit$$00000021          0x080101a6   Section        0  libinit2.o(.ARM.Collect$$libinit$$00000021)
    .ARM.Collect$$libinit$$00000023          0x080101a6   Section        0  libinit2.o(.ARM.Collect$$libinit$$00000023)
    .ARM.Collect$$libinit$$00000025          0x080101a6   Section        0  libinit2.o(.ARM.Collect$$libinit$$00000025)
    .ARM.Collect$$libinit$$0000002C          0x080101a6   Section        0  libinit2.o(.ARM.Collect$$libinit$$0000002C)
    .ARM.Collect$$libinit$$0000002E          0x080101a6   Section        0  libinit2.o(.ARM.Collect$$libinit$$0000002E)
    .ARM.Collect$$libinit$$00000030          0x080101a6   Section        0  libinit2.o(.ARM.Collect$$libinit$$00000030)
    .ARM.Collect$$libinit$$00000032          0x080101a6   Section        0  libinit2.o(.ARM.Collect$$libinit$$00000032)
    .ARM.Collect$$libinit$$00000033          0x080101a6   Section        2  libinit2.o(.ARM.Collect$$libinit$$00000033)
    .ARM.Collect$$libshutdown$$00000000      0x080101a8   Section        2  libshutdown.o(.ARM.Collect$$libshutdown$$00000000)
    .ARM.Collect$$libshutdown$$00000002      0x080101aa   Section        0  libshutdown2.o(.ARM.Collect$$libshutdown$$00000002)
    .ARM.Collect$$libshutdown$$00000004      0x080101aa   Section        0  libshutdown2.o(.ARM.Collect$$libshutdown$$00000004)
    .ARM.Collect$$libshutdown$$00000007      0x080101aa   Section        0  libshutdown2.o(.ARM.Collect$$libshutdown$$00000007)
    .ARM.Collect$$libshutdown$$0000000A      0x080101aa   Section        0  libshutdown2.o(.ARM.Collect$$libshutdown$$0000000A)
    .ARM.Collect$$libshutdown$$0000000C      0x080101aa   Section        0  libshutdown2.o(.ARM.Collect$$libshutdown$$0000000C)
    .ARM.Collect$$libshutdown$$0000000F      0x080101aa   Section        0  libshutdown2.o(.ARM.Collect$$libshutdown$$0000000F)
    .ARM.Collect$$libshutdown$$00000010      0x080101aa   Section        2  libshutdown2.o(.ARM.Collect$$libshutdown$$00000010)
    .ARM.Collect$$rtentry$$00000000          0x080101ac   Section        0  __rtentry.o(.ARM.Collect$$rtentry$$00000000)
    .ARM.Collect$$rtentry$$00000002          0x080101ac   Section        0  __rtentry2.o(.ARM.Collect$$rtentry$$00000002)
    .ARM.Collect$$rtentry$$00000004          0x080101ac   Section        6  __rtentry4.o(.ARM.Collect$$rtentry$$00000004)
    .ARM.Collect$$rtentry$$00000009          0x080101b2   Section        0  __rtentry2.o(.ARM.Collect$$rtentry$$00000009)
    .ARM.Collect$$rtentry$$0000000A          0x080101b2   Section        4  __rtentry2.o(.ARM.Collect$$rtentry$$0000000A)
    .ARM.Collect$$rtentry$$0000000C          0x080101b6   Section        0  __rtentry2.o(.ARM.Collect$$rtentry$$0000000C)
    .ARM.Collect$$rtentry$$0000000D          0x080101b6   Section        8  __rtentry2.o(.ARM.Collect$$rtentry$$0000000D)
    .ARM.Collect$$rtexit$$00000000           0x080101be   Section        2  rtexit.o(.ARM.Collect$$rtexit$$00000000)
    .ARM.Collect$$rtexit$$00000002           0x080101c0   Section        0  rtexit2.o(.ARM.Collect$$rtexit$$00000002)
    .ARM.Collect$$rtexit$$00000003           0x080101c0   Section        4  rtexit2.o(.ARM.Collect$$rtexit$$00000003)
    .ARM.Collect$$rtexit$$00000004           0x080101c4   Section        6  rtexit2.o(.ARM.Collect$$rtexit$$00000004)
    .emb_text                                0x080101cc   Section        6  jumptocode.o(.emb_text)
    .text                                    0x080101d4   Section        0  main.o(.text)
    .text                                    0x0801023c   Section        0  stm32f10x_it.o(.text)
    .text                                    0x08010314   Section        0  system_stm32f10x.o(.text)
    SetSysClockTo72                          0x08010315   Thumb Code   214  system_stm32f10x.o(.text)
    SetSysClock                              0x080103eb   Thumb Code     8  system_stm32f10x.o(.text)
    .text                                    0x080104f4   Section        0  jumptocode.o(.text)
    .text                                    0x08010520   Section        0  led.o(.text)
    .text                                    0x08010590   Section        0  na7600_stm32_inflash.o(.text)
    .text                                    0x080106d4   Section        0  na7600_timer.o(.text)
    .text                                    0x0801073c   Section        0  na7600_usart.o(.text)
    .text                                    0x080108f0   Section       64  startup_stm32f10x_hd.o(.text)
    .text                                    0x08010930   Section        0  misc.o(.text)
    .text                                    0x08010a0c   Section        0  stm32f10x_flash.o(.text)
    .text                                    0x08010fc8   Section        0  stm32f10x_gpio.o(.text)
    .text                                    0x08011324   Section        0  stm32f10x_rcc.o(.text)
    .text                                    0x080116c8   Section        0  stm32f10x_tim.o(.text)
    TI4_Config                               0x08011b6f   Thumb Code   130  stm32f10x_tim.o(.text)
    TI3_Config                               0x08011c03   Thumb Code   122  stm32f10x_tim.o(.text)
    TI2_Config                               0x08011c97   Thumb Code   130  stm32f10x_tim.o(.text)
    TI1_Config                               0x08011d2b   Thumb Code   108  stm32f10x_tim.o(.text)
    .text                                    0x080124e4   Section        0  stm32f10x_usart.o(.text)
    .text                                    0x08012920   Section        0  delay.o(.text)
    .text                                    0x080129f4   Section       68  rt_memclr.o(.text)
    .text                                    0x08012a38   Section        0  heapauxi.o(.text)
    .text                                    0x08012a3e   Section       78  rt_memclr_w.o(.text)
    .text                                    0x08012a8c   Section       74  sys_stackheap_outer.o(.text)
    .text                                    0x08012ad6   Section        0  exit.o(.text)
    .text                                    0x08012ae8   Section        8  libspace.o(.text)
    .text                                    0x08012af0   Section        0  sys_exit.o(.text)
    .text                                    0x08012afc   Section        2  use_no_semi.o(.text)
    .constdata                               0x08012afe   Section        4  na7600_usart.o(.constdata)
    .text                                    0x08012afe   Section        0  indicate_semi.o(.text)
    .data                                    0x20000000   Section        3  main.o(.data)
    .data                                    0x20000004   Section       20  system_stm32f10x.o(.data)
    .data                                    0x20000018   Section        4  jumptocode.o(.data)
    .data                                    0x2000001c   Section        3  na7600_timer.o(.data)
    .data                                    0x20000020   Section       13  na7600_usart.o(.data)
    .data                                    0x2000002d   Section       20  stm32f10x_rcc.o(.data)
    APBAHBPrescTable                         0x2000002d   Data          16  stm32f10x_rcc.o(.data)
    ADCPrescTable                            0x2000003d   Data           4  stm32f10x_rcc.o(.data)
    .data                                    0x20000042   Section        4  delay.o(.data)
    fac_us                                   0x20000042   Data           1  delay.o(.data)
    fac_ms                                   0x20000044   Data           2  delay.o(.data)
    .bss                                     0x20000048   Section     2048  na7600_stm32_inflash.o(.bss)
    .bss                                     0x20000848   Section     2070  na7600_usart.o(.bss)
    .bss                                     0x20001060   Section       96  libspace.o(.bss)
    HEAP                                     0x200010c0   Section      512  startup_stm32f10x_hd.o(HEAP)
    Heap_Mem                                 0x200010c0   Data         512  startup_stm32f10x_hd.o(HEAP)
    STACK                                    0x200012c0   Section     1024  startup_stm32f10x_hd.o(STACK)
    Stack_Mem                                0x200012c0   Data        1024  startup_stm32f10x_hd.o(STACK)
    __initial_sp                             0x200016c0   Data           0  startup_stm32f10x_hd.o(STACK)

    Global Symbols

    Symbol Name                              Value     Ov Type        Size  Object(Section)

    BuildAttributes$$THM_ISAv4$P$D$K$B$S$PE$A:L22UL41UL21$X:L11$S22US41US21$IEEE1$IW$USESV6$~STKCKD$USESV7$~SHL$OSPACE$ROPI$EBA8$UX$STANDARDLIB$REQ8$PRES8$EABIv2 0x00000000   Number         0  anon$$obj.o ABSOLUTE
    __ARM_use_no_argv                        0x00000000   Number         0  main.o ABSOLUTE
    __ARM_exceptions_init                     - Undefined Weak Reference
    __alloca_initialize                       - Undefined Weak Reference
    __arm_preinit_                            - Undefined Weak Reference
    __cpp_initialize__aeabi_                  - Undefined Weak Reference
    __cxa_finalize                            - Undefined Weak Reference
    __rt_locale                               - Undefined Weak Reference
    __sigvec_lookup                           - Undefined Weak Reference
    _atexit_init                              - Undefined Weak Reference
    _call_atexit_fns                          - Undefined Weak Reference
    _clock_init                               - Undefined Weak Reference
    _fp_trap_init                             - Undefined Weak Reference
    _fp_trap_shutdown                         - Undefined Weak Reference
    _get_lc_collate                           - Undefined Weak Reference
    _get_lc_ctype                             - Undefined Weak Reference
    _get_lc_monetary                          - Undefined Weak Reference
    _get_lc_numeric                           - Undefined Weak Reference
    _get_lc_time                              - Undefined Weak Reference
    _getenv_init                              - Undefined Weak Reference
    _handle_redirection                       - Undefined Weak Reference
    _init_alloc                               - Undefined Weak Reference
    _init_user_alloc                          - Undefined Weak Reference
    _initio                                   - Undefined Weak Reference
    _rand_init                                - Undefined Weak Reference
    _signal_finish                            - Undefined Weak Reference
    _signal_init                              - Undefined Weak Reference
    _terminate_alloc                          - Undefined Weak Reference
    _terminate_user_alloc                     - Undefined Weak Reference
    _terminateio                              - Undefined Weak Reference
    __Vectors_Size                           0x00000130   Number         0  startup_stm32f10x_hd.o ABSOLUTE
    __Vectors                                0x08010000   Data           4  startup_stm32f10x_hd.o(RESET)
    __Vectors_End                            0x08010130   Data           0  startup_stm32f10x_hd.o(RESET)
    __main                                   0x08010131   Thumb Code     8  __main.o(!!!main)
    __scatterload                            0x08010139   Thumb Code     0  __scatter.o(!!!scatter)
    __scatterload_rt2                        0x08010139   Thumb Code    44  __scatter.o(!!!scatter)
    __scatterload_rt2_thumb_only             0x08010139   Thumb Code     0  __scatter.o(!!!scatter)
    __scatterload_null                       0x08010147   Thumb Code     0  __scatter.o(!!!scatter)
    __scatterload_copy                       0x0801016d   Thumb Code    26  __scatter_copy.o(!!handler_copy)
    __scatterload_zeroinit                   0x08010189   Thumb Code    28  __scatter_zi.o(!!handler_zi)
    __rt_lib_init                            0x080101a5   Thumb Code     0  libinit.o(.ARM.Collect$$libinit$$00000000)
    __rt_lib_init_alloca_1                   0x080101a7   Thumb Code     0  libinit2.o(.ARM.Collect$$libinit$$0000002E)
    __rt_lib_init_argv_1                     0x080101a7   Thumb Code     0  libinit2.o(.ARM.Collect$$libinit$$0000002C)
    __rt_lib_init_atexit_1                   0x080101a7   Thumb Code     0  libinit2.o(.ARM.Collect$$libinit$$0000001B)
    __rt_lib_init_clock_1                    0x080101a7   Thumb Code     0  libinit2.o(.ARM.Collect$$libinit$$00000021)
    __rt_lib_init_cpp_1                      0x080101a7   Thumb Code     0  libinit2.o(.ARM.Collect$$libinit$$00000032)
    __rt_lib_init_exceptions_1               0x080101a7   Thumb Code     0  libinit2.o(.ARM.Collect$$libinit$$00000030)
    __rt_lib_init_fp_1                       0x080101a7   Thumb Code     0  libinit2.o(.ARM.Collect$$libinit$$00000002)
    __rt_lib_init_fp_trap_1                  0x080101a7   Thumb Code     0  libinit2.o(.ARM.Collect$$libinit$$0000001F)
    __rt_lib_init_getenv_1                   0x080101a7   Thumb Code     0  libinit2.o(.ARM.Collect$$libinit$$00000023)
    __rt_lib_init_heap_1                     0x080101a7   Thumb Code     0  libinit2.o(.ARM.Collect$$libinit$$0000000A)
    __rt_lib_init_lc_collate_1               0x080101a7   Thumb Code     0  libinit2.o(.ARM.Collect$$libinit$$00000011)
    __rt_lib_init_lc_ctype_1                 0x080101a7   Thumb Code     0  libinit2.o(.ARM.Collect$$libinit$$00000013)
    __rt_lib_init_lc_monetary_1              0x080101a7   Thumb Code     0  libinit2.o(.ARM.Collect$$libinit$$00000015)
    __rt_lib_init_lc_numeric_1               0x080101a7   Thumb Code     0  libinit2.o(.ARM.Collect$$libinit$$00000017)
    __rt_lib_init_lc_time_1                  0x080101a7   Thumb Code     0  libinit2.o(.ARM.Collect$$libinit$$00000019)
    __rt_lib_init_preinit_1                  0x080101a7   Thumb Code     0  libinit2.o(.ARM.Collect$$libinit$$00000004)
    __rt_lib_init_rand_1                     0x080101a7   Thumb Code     0  libinit2.o(.ARM.Collect$$libinit$$0000000E)
    __rt_lib_init_return                     0x080101a7   Thumb Code     0  libinit2.o(.ARM.Collect$$libinit$$00000033)
    __rt_lib_init_signal_1                   0x080101a7   Thumb Code     0  libinit2.o(.ARM.Collect$$libinit$$0000001D)
    __rt_lib_init_stdio_1                    0x080101a7   Thumb Code     0  libinit2.o(.ARM.Collect$$libinit$$00000025)
    __rt_lib_init_user_alloc_1               0x080101a7   Thumb Code     0  libinit2.o(.ARM.Collect$$libinit$$0000000C)
    __rt_lib_shutdown                        0x080101a9   Thumb Code     0  libshutdown.o(.ARM.Collect$$libshutdown$$00000000)
    __rt_lib_shutdown_cpp_1                  0x080101ab   Thumb Code     0  libshutdown2.o(.ARM.Collect$$libshutdown$$00000002)
    __rt_lib_shutdown_fp_trap_1              0x080101ab   Thumb Code     0  libshutdown2.o(.ARM.Collect$$libshutdown$$00000007)
    __rt_lib_shutdown_heap_1                 0x080101ab   Thumb Code     0  libshutdown2.o(.ARM.Collect$$libshutdown$$0000000F)
    __rt_lib_shutdown_return                 0x080101ab   Thumb Code     0  libshutdown2.o(.ARM.Collect$$libshutdown$$00000010)
    __rt_lib_shutdown_signal_1               0x080101ab   Thumb Code     0  libshutdown2.o(.ARM.Collect$$libshutdown$$0000000A)
    __rt_lib_shutdown_stdio_1                0x080101ab   Thumb Code     0  libshutdown2.o(.ARM.Collect$$libshutdown$$00000004)
    __rt_lib_shutdown_user_alloc_1           0x080101ab   Thumb Code     0  libshutdown2.o(.ARM.Collect$$libshutdown$$0000000C)
    __rt_entry                               0x080101ad   Thumb Code     0  __rtentry.o(.ARM.Collect$$rtentry$$00000000)
    __rt_entry_presh_1                       0x080101ad   Thumb Code     0  __rtentry2.o(.ARM.Collect$$rtentry$$00000002)
    __rt_entry_sh                            0x080101ad   Thumb Code     0  __rtentry4.o(.ARM.Collect$$rtentry$$00000004)
    __rt_entry_li                            0x080101b3   Thumb Code     0  __rtentry2.o(.ARM.Collect$$rtentry$$0000000A)
    __rt_entry_postsh_1                      0x080101b3   Thumb Code     0  __rtentry2.o(.ARM.Collect$$rtentry$$00000009)
    __rt_entry_main                          0x080101b7   Thumb Code     0  __rtentry2.o(.ARM.Collect$$rtentry$$0000000D)
    __rt_entry_postli_1                      0x080101b7   Thumb Code     0  __rtentry2.o(.ARM.Collect$$rtentry$$0000000C)
    __rt_exit                                0x080101bf   Thumb Code     0  rtexit.o(.ARM.Collect$$rtexit$$00000000)
    __rt_exit_ls                             0x080101c1   Thumb Code     0  rtexit2.o(.ARM.Collect$$rtexit$$00000003)
    __rt_exit_prels_1                        0x080101c1   Thumb Code     0  rtexit2.o(.ARM.Collect$$rtexit$$00000002)
    __rt_exit_exit                           0x080101c5   Thumb Code     0  rtexit2.o(.ARM.Collect$$rtexit$$00000004)
    MSR_MSP                                  0x080101cd   Thumb Code     6  jumptocode.o(.emb_text)
    main                                     0x080101d5   Thumb Code    80  main.o(.text)
    NMI_Handler                              0x0801023d   Thumb Code     2  stm32f10x_it.o(.text)
    HardFault_Handler                        0x0801023f   Thumb Code     4  stm32f10x_it.o(.text)
    MemManage_Handler                        0x08010243   Thumb Code     4  stm32f10x_it.o(.text)
    BusFault_Handler                         0x08010247   Thumb Code     4  stm32f10x_it.o(.text)
    UsageFault_Handler                       0x0801024b   Thumb Code     4  stm32f10x_it.o(.text)
    SVC_Handler                              0x0801024f   Thumb Code     2  stm32f10x_it.o(.text)
    DebugMon_Handler                         0x08010251   Thumb Code     2  stm32f10x_it.o(.text)
    PendSV_Handler                           0x08010253   Thumb Code     2  stm32f10x_it.o(.text)
    SysTick_Handler                          0x08010255   Thumb Code     2  stm32f10x_it.o(.text)
    TIM3_IRQHandler                          0x08010257   Thumb Code    28  stm32f10x_it.o(.text)
    USART1_IRQHandler                        0x08010273   Thumb Code   120  stm32f10x_it.o(.text)
    SystemInit                               0x080103f3   Thumb Code    78  system_stm32f10x.o(.text)
    SystemCoreClockUpdate                    0x08010441   Thumb Code   142  system_stm32f10x.o(.text)
    Iap_Load_App                             0x080104f5   Thumb Code    36  jumptocode.o(.text)
    LED_Init                                 0x08010521   Thumb Code   100  led.o(.text)
    STMFLASH_Write_NoCheck                   0x08010591   Thumb Code    38  na7600_stm32_inflash.o(.text)
    STMFLASH_ReadHalfWord                    0x080105b7   Thumb Code     6  na7600_stm32_inflash.o(.text)
    STMFLASH_Read                            0x080105bd   Thumb Code    34  na7600_stm32_inflash.o(.text)
    STMFLASH_Write                           0x080105df   Thumb Code   222  na7600_stm32_inflash.o(.text)
    STMFLASH_WtiteU16DataToFlash             0x080106bd   Thumb Code    16  na7600_stm32_inflash.o(.text)
    TIM3_Init                                0x080106d5   Thumb Code    96  na7600_timer.o(.text)
    uart_init                                0x0801073d   Thumb Code   166  na7600_usart.o(.text)
    fputc                                    0x080107e3   Thumb Code    24  na7600_usart.o(.text)
    ReceiveUsartData                         0x080107fb   Thumb Code   128  na7600_usart.o(.text)
    USARTxSendRespondToServer                0x0801087b   Thumb Code    90  na7600_usart.o(.text)
    Reset_Handler                            0x080108f1   Thumb Code     8  startup_stm32f10x_hd.o(.text)
    ADC1_2_IRQHandler                        0x0801090b   Thumb Code     0  startup_stm32f10x_hd.o(.text)
    ADC3_IRQHandler                          0x0801090b   Thumb Code     0  startup_stm32f10x_hd.o(.text)
    CAN1_RX1_IRQHandler                      0x0801090b   Thumb Code     0  startup_stm32f10x_hd.o(.text)
    CAN1_SCE_IRQHandler                      0x0801090b   Thumb Code     0  startup_stm32f10x_hd.o(.text)
    DMA1_Channel1_IRQHandler                 0x0801090b   Thumb Code     0  startup_stm32f10x_hd.o(.text)
    DMA1_Channel2_IRQHandler                 0x0801090b   Thumb Code     0  startup_stm32f10x_hd.o(.text)
    DMA1_Channel3_IRQHandler                 0x0801090b   Thumb Code     0  startup_stm32f10x_hd.o(.text)
    DMA1_Channel4_IRQHandler                 0x0801090b   Thumb Code     0  startup_stm32f10x_hd.o(.text)
    DMA1_Channel5_IRQHandler                 0x0801090b   Thumb Code     0  startup_stm32f10x_hd.o(.text)
    DMA1_Channel6_IRQHandler                 0x0801090b   Thumb Code     0  startup_stm32f10x_hd.o(.text)
    DMA1_Channel7_IRQHandler                 0x0801090b   Thumb Code     0  startup_stm32f10x_hd.o(.text)
    DMA2_Channel1_IRQHandler                 0x0801090b   Thumb Code     0  startup_stm32f10x_hd.o(.text)
    DMA2_Channel2_IRQHandler                 0x0801090b   Thumb Code     0  startup_stm32f10x_hd.o(.text)
    DMA2_Channel3_IRQHandler                 0x0801090b   Thumb Code     0  startup_stm32f10x_hd.o(.text)
    DMA2_Channel4_5_IRQHandler               0x0801090b   Thumb Code     0  startup_stm32f10x_hd.o(.text)
    EXTI0_IRQHandler                         0x0801090b   Thumb Code     0  startup_stm32f10x_hd.o(.text)
    EXTI15_10_IRQHandler                     0x0801090b   Thumb Code     0  startup_stm32f10x_hd.o(.text)
    EXTI1_IRQHandler                         0x0801090b   Thumb Code     0  startup_stm32f10x_hd.o(.text)
    EXTI2_IRQHandler                         0x0801090b   Thumb Code     0  startup_stm32f10x_hd.o(.text)
    EXTI3_IRQHandler                         0x0801090b   Thumb Code     0  startup_stm32f10x_hd.o(.text)
    EXTI4_IRQHandler                         0x0801090b   Thumb Code     0  startup_stm32f10x_hd.o(.text)
    EXTI9_5_IRQHandler                       0x0801090b   Thumb Code     0  startup_stm32f10x_hd.o(.text)
    FLASH_IRQHandler                         0x0801090b   Thumb Code     0  startup_stm32f10x_hd.o(.text)
    FSMC_IRQHandler                          0x0801090b   Thumb Code     0  startup_stm32f10x_hd.o(.text)
    I2C1_ER_IRQHandler                       0x0801090b   Thumb Code     0  startup_stm32f10x_hd.o(.text)
    I2C1_EV_IRQHandler                       0x0801090b   Thumb Code     0  startup_stm32f10x_hd.o(.text)
    I2C2_ER_IRQHandler                       0x0801090b   Thumb Code     0  startup_stm32f10x_hd.o(.text)
    I2C2_EV_IRQHandler                       0x0801090b   Thumb Code     0  startup_stm32f10x_hd.o(.text)
    PVD_IRQHandler                           0x0801090b   Thumb Code     0  startup_stm32f10x_hd.o(.text)
    RCC_IRQHandler                           0x0801090b   Thumb Code     0  startup_stm32f10x_hd.o(.text)
    RTCAlarm_IRQHandler                      0x0801090b   Thumb Code     0  startup_stm32f10x_hd.o(.text)
    RTC_IRQHandler                           0x0801090b   Thumb Code     0  startup_stm32f10x_hd.o(.text)
    SDIO_IRQHandler                          0x0801090b   Thumb Code     0  startup_stm32f10x_hd.o(.text)
    SPI1_IRQHandler                          0x0801090b   Thumb Code     0  startup_stm32f10x_hd.o(.text)
    SPI2_IRQHandler                          0x0801090b   Thumb Code     0  startup_stm32f10x_hd.o(.text)
    SPI3_IRQHandler                          0x0801090b   Thumb Code     0  startup_stm32f10x_hd.o(.text)
    TAMPER_IRQHandler                        0x0801090b   Thumb Code     0  startup_stm32f10x_hd.o(.text)
    TIM1_BRK_IRQHandler                      0x0801090b   Thumb Code     0  startup_stm32f10x_hd.o(.text)
    TIM1_CC_IRQHandler                       0x0801090b   Thumb Code     0  startup_stm32f10x_hd.o(.text)
    TIM1_TRG_COM_IRQHandler                  0x0801090b   Thumb Code     0  startup_stm32f10x_hd.o(.text)
    TIM1_UP_IRQHandler                       0x0801090b   Thumb Code     0  startup_stm32f10x_hd.o(.text)
    TIM2_IRQHandler                          0x0801090b   Thumb Code     0  startup_stm32f10x_hd.o(.text)
    TIM4_IRQHandler                          0x0801090b   Thumb Code     0  startup_stm32f10x_hd.o(.text)
    TIM5_IRQHandler                          0x0801090b   Thumb Code     0  startup_stm32f10x_hd.o(.text)
    TIM6_IRQHandler                          0x0801090b   Thumb Code     0  startup_stm32f10x_hd.o(.text)
    TIM7_IRQHandler                          0x0801090b   Thumb Code     0  startup_stm32f10x_hd.o(.text)
    TIM8_BRK_IRQHandler                      0x0801090b   Thumb Code     0  startup_stm32f10x_hd.o(.text)
    TIM8_CC_IRQHandler                       0x0801090b   Thumb Code     0  startup_stm32f10x_hd.o(.text)
    TIM8_TRG_COM_IRQHandler                  0x0801090b   Thumb Code     0  startup_stm32f10x_hd.o(.text)
    TIM8_UP_IRQHandler                       0x0801090b   Thumb Code     0  startup_stm32f10x_hd.o(.text)
    UART4_IRQHandler                         0x0801090b   Thumb Code     0  startup_stm32f10x_hd.o(.text)
    UART5_IRQHandler                         0x0801090b   Thumb Code     0  startup_stm32f10x_hd.o(.text)
    USART2_IRQHandler                        0x0801090b   Thumb Code     0  startup_stm32f10x_hd.o(.text)
    USART3_IRQHandler                        0x0801090b   Thumb Code     0  startup_stm32f10x_hd.o(.text)
    USBWakeUp_IRQHandler                     0x0801090b   Thumb Code     0  startup_stm32f10x_hd.o(.text)
    USB_HP_CAN1_TX_IRQHandler                0x0801090b   Thumb Code     0  startup_stm32f10x_hd.o(.text)
    USB_LP_CAN1_RX0_IRQHandler               0x0801090b   Thumb Code     0  startup_stm32f10x_hd.o(.text)
    WWDG_IRQHandler                          0x0801090b   Thumb Code     0  startup_stm32f10x_hd.o(.text)
    __user_initial_stackheap                 0x0801090d   Thumb Code     0  startup_stm32f10x_hd.o(.text)
    NVIC_PriorityGroupConfig                 0x08010931   Thumb Code    10  misc.o(.text)
    NVIC_Init                                0x0801093b   Thumb Code   100  misc.o(.text)
    NVIC_SetVectorTable                      0x0801099f   Thumb Code    14  misc.o(.text)
    NVIC_SystemLPConfig                      0x080109ad   Thumb Code    34  misc.o(.text)
    SysTick_CLKSourceConfig                  0x080109cf   Thumb Code    40  misc.o(.text)
    FLASH_SetLatency                         0x08010a0d   Thumb Code    18  stm32f10x_flash.o(.text)
    FLASH_HalfCycleAccessCmd                 0x08010a1f   Thumb Code    22  stm32f10x_flash.o(.text)
    FLASH_PrefetchBufferCmd                  0x08010a35   Thumb Code    22  stm32f10x_flash.o(.text)
    FLASH_Unlock                             0x08010a4b   Thumb Code    12  stm32f10x_flash.o(.text)
    FLASH_UnlockBank1                        0x08010a57   Thumb Code    12  stm32f10x_flash.o(.text)
    FLASH_Lock                               0x08010a63   Thumb Code    14  stm32f10x_flash.o(.text)
    FLASH_LockBank1                          0x08010a71   Thumb Code    14  stm32f10x_flash.o(.text)
    FLASH_GetBank1Status                     0x08010a7f   Thumb Code    48  stm32f10x_flash.o(.text)
    FLASH_WaitForLastOperation               0x08010aaf   Thumb Code    38  stm32f10x_flash.o(.text)
    FLASH_ErasePage                          0x08010ad5   Thumb Code    72  stm32f10x_flash.o(.text)
    FLASH_EraseAllPages                      0x08010b1d   Thumb Code    68  stm32f10x_flash.o(.text)
    FLASH_WaitForLastBank1Operation          0x08010b61   Thumb Code    38  stm32f10x_flash.o(.text)
    FLASH_EraseAllBank1Pages                 0x08010b87   Thumb Code    68  stm32f10x_flash.o(.text)
    FLASH_GetReadOutProtectionStatus         0x08010bcb   Thumb Code    20  stm32f10x_flash.o(.text)
    FLASH_EraseOptionBytes                   0x08010bdf   Thumb Code   150  stm32f10x_flash.o(.text)
    FLASH_ProgramWord                        0x08010c75   Thumb Code   102  stm32f10x_flash.o(.text)
    FLASH_ProgramHalfWord                    0x08010cdb   Thumb Code    60  stm32f10x_flash.o(.text)
    FLASH_ProgramOptionByteData              0x08010d17   Thumb Code    72  stm32f10x_flash.o(.text)
    FLASH_EnableWriteProtection              0x08010d5f   Thumb Code   200  stm32f10x_flash.o(.text)
    FLASH_ReadOutProtection                  0x08010e27   Thumb Code   156  stm32f10x_flash.o(.text)
    FLASH_UserOptionByteConfig               0x08010ec3   Thumb Code    88  stm32f10x_flash.o(.text)
    FLASH_GetUserOptionByte                  0x08010f1b   Thumb Code     8  stm32f10x_flash.o(.text)
    FLASH_GetWriteProtectionOptionByte       0x08010f23   Thumb Code     6  stm32f10x_flash.o(.text)
    FLASH_GetPrefetchBufferStatus            0x08010f29   Thumb Code    20  stm32f10x_flash.o(.text)
    FLASH_ITConfig                           0x08010f3d   Thumb Code    26  stm32f10x_flash.o(.text)
    FLASH_GetFlagStatus                      0x08010f57   Thumb Code    42  stm32f10x_flash.o(.text)
    FLASH_ClearFlag                          0x08010f81   Thumb Code     6  stm32f10x_flash.o(.text)
    FLASH_GetStatus                          0x08010f87   Thumb Code    48  stm32f10x_flash.o(.text)
    GPIO_DeInit                              0x08010fc9   Thumb Code   172  stm32f10x_gpio.o(.text)
    GPIO_AFIODeInit                          0x08011075   Thumb Code    20  stm32f10x_gpio.o(.text)
    GPIO_Init                                0x08011089   Thumb Code   278  stm32f10x_gpio.o(.text)
    GPIO_StructInit                          0x0801119f   Thumb Code    16  stm32f10x_gpio.o(.text)
    GPIO_ReadInputDataBit                    0x080111af   Thumb Code    18  stm32f10x_gpio.o(.text)
    GPIO_ReadInputData                       0x080111c1   Thumb Code     8  stm32f10x_gpio.o(.text)
    GPIO_ReadOutputDataBit                   0x080111c9   Thumb Code    18  stm32f10x_gpio.o(.text)
    GPIO_ReadOutputData                      0x080111db   Thumb Code     8  stm32f10x_gpio.o(.text)
    GPIO_SetBits                             0x080111e3   Thumb Code     4  stm32f10x_gpio.o(.text)
    GPIO_ResetBits                           0x080111e7   Thumb Code     4  stm32f10x_gpio.o(.text)
    GPIO_WriteBit                            0x080111eb   Thumb Code    10  stm32f10x_gpio.o(.text)
    GPIO_Write                               0x080111f5   Thumb Code     4  stm32f10x_gpio.o(.text)
    GPIO_PinLockConfig                       0x080111f9   Thumb Code    18  stm32f10x_gpio.o(.text)
    GPIO_EventOutputConfig                   0x0801120b   Thumb Code    26  stm32f10x_gpio.o(.text)
    GPIO_EventOutputCmd                      0x08011225   Thumb Code     6  stm32f10x_gpio.o(.text)
    GPIO_PinRemapConfig                      0x0801122b   Thumb Code   138  stm32f10x_gpio.o(.text)
    GPIO_EXTILineConfig                      0x080112b5   Thumb Code    66  stm32f10x_gpio.o(.text)
    GPIO_ETH_MediaInterfaceConfig            0x080112f7   Thumb Code     8  stm32f10x_gpio.o(.text)
    RCC_DeInit                               0x08011325   Thumb Code    64  stm32f10x_rcc.o(.text)
    RCC_HSEConfig                            0x08011365   Thumb Code    70  stm32f10x_rcc.o(.text)
    RCC_GetFlagStatus                        0x080113ab   Thumb Code    56  stm32f10x_rcc.o(.text)
    RCC_WaitForHSEStartUp                    0x080113e3   Thumb Code    56  stm32f10x_rcc.o(.text)
    RCC_AdjustHSICalibrationValue            0x0801141b   Thumb Code    20  stm32f10x_rcc.o(.text)
    RCC_HSICmd                               0x0801142f   Thumb Code     6  stm32f10x_rcc.o(.text)
    RCC_PLLConfig                            0x08011435   Thumb Code    24  stm32f10x_rcc.o(.text)
    RCC_PLLCmd                               0x0801144d   Thumb Code     6  stm32f10x_rcc.o(.text)
    RCC_SYSCLKConfig                         0x08011453   Thumb Code    18  stm32f10x_rcc.o(.text)
    RCC_GetSYSCLKSource                      0x08011465   Thumb Code    10  stm32f10x_rcc.o(.text)
    RCC_HCLKConfig                           0x0801146f   Thumb Code    18  stm32f10x_rcc.o(.text)
    RCC_PCLK1Config                          0x08011481   Thumb Code    18  stm32f10x_rcc.o(.text)
    RCC_PCLK2Config                          0x08011493   Thumb Code    20  stm32f10x_rcc.o(.text)
    RCC_ITConfig                             0x080114a7   Thumb Code    26  stm32f10x_rcc.o(.text)
    RCC_USBCLKConfig                         0x080114c1   Thumb Code     8  stm32f10x_rcc.o(.text)
    RCC_ADCCLKConfig                         0x080114c9   Thumb Code    18  stm32f10x_rcc.o(.text)
    RCC_LSEConfig                            0x080114db   Thumb Code    50  stm32f10x_rcc.o(.text)
    RCC_LSICmd                               0x0801150d   Thumb Code     6  stm32f10x_rcc.o(.text)
    RCC_RTCCLKConfig                         0x08011513   Thumb Code    12  stm32f10x_rcc.o(.text)
    RCC_RTCCLKCmd                            0x0801151f   Thumb Code     8  stm32f10x_rcc.o(.text)
    RCC_GetClocksFreq                        0x08011527   Thumb Code   192  stm32f10x_rcc.o(.text)
    RCC_AHBPeriphClockCmd                    0x080115e7   Thumb Code    26  stm32f10x_rcc.o(.text)
    RCC_APB2PeriphClockCmd                   0x08011601   Thumb Code    26  stm32f10x_rcc.o(.text)
    RCC_APB1PeriphClockCmd                   0x0801161b   Thumb Code    26  stm32f10x_rcc.o(.text)
    RCC_APB2PeriphResetCmd                   0x08011635   Thumb Code    26  stm32f10x_rcc.o(.text)
    RCC_APB1PeriphResetCmd                   0x0801164f   Thumb Code    26  stm32f10x_rcc.o(.text)
    RCC_BackupResetCmd                       0x08011669   Thumb Code     8  stm32f10x_rcc.o(.text)
    RCC_ClockSecuritySystemCmd               0x08011671   Thumb Code     6  stm32f10x_rcc.o(.text)
    RCC_MCOConfig                            0x08011677   Thumb Code     6  stm32f10x_rcc.o(.text)
    RCC_ClearFlag                            0x0801167d   Thumb Code    14  stm32f10x_rcc.o(.text)
    RCC_GetITStatus                          0x0801168b   Thumb Code    20  stm32f10x_rcc.o(.text)
    RCC_ClearITPendingBit                    0x0801169f   Thumb Code     6  stm32f10x_rcc.o(.text)
    TIM_DeInit                               0x080116c9   Thumb Code   424  stm32f10x_tim.o(.text)
    TIM_TimeBaseInit                         0x08011871   Thumb Code   122  stm32f10x_tim.o(.text)
    TIM_OC1Init                              0x080118eb   Thumb Code   132  stm32f10x_tim.o(.text)
    TIM_OC2Init                              0x0801196f   Thumb Code   154  stm32f10x_tim.o(.text)
    TIM_OC3Init                              0x08011a09   Thumb Code   150  stm32f10x_tim.o(.text)
    TIM_OC4Init                              0x08011a9f   Thumb Code   182  stm32f10x_tim.o(.text)
    TIM_SetIC4Prescaler                      0x08011b55   Thumb Code    26  stm32f10x_tim.o(.text)
    TIM_SetIC3Prescaler                      0x08011bf1   Thumb Code    18  stm32f10x_tim.o(.text)
    TIM_SetIC2Prescaler                      0x08011c7d   Thumb Code    26  stm32f10x_tim.o(.text)
    TIM_SetIC1Prescaler                      0x08011d19   Thumb Code    18  stm32f10x_tim.o(.text)
    TIM_ICInit                               0x08011d97   Thumb Code   150  stm32f10x_tim.o(.text)
    TIM_PWMIConfig                           0x08011e2d   Thumb Code   124  stm32f10x_tim.o(.text)
    TIM_BDTRConfig                           0x08011ea9   Thumb Code    32  stm32f10x_tim.o(.text)
    TIM_TimeBaseStructInit                   0x08011ec9   Thumb Code    18  stm32f10x_tim.o(.text)
    TIM_OCStructInit                         0x08011edb   Thumb Code    20  stm32f10x_tim.o(.text)
    TIM_ICStructInit                         0x08011eef   Thumb Code    18  stm32f10x_tim.o(.text)
    TIM_BDTRStructInit                       0x08011f01   Thumb Code    40  stm32f10x_tim.o(.text)
    TIM_Cmd                                  0x08011f29   Thumb Code    24  stm32f10x_tim.o(.text)
    TIM_CtrlPWMOutputs                       0x08011f41   Thumb Code    30  stm32f10x_tim.o(.text)
    TIM_ITConfig                             0x08011f5f   Thumb Code    18  stm32f10x_tim.o(.text)
    TIM_GenerateEvent                        0x08011f71   Thumb Code     4  stm32f10x_tim.o(.text)
    TIM_DMAConfig                            0x08011f75   Thumb Code    10  stm32f10x_tim.o(.text)
    TIM_DMACmd                               0x08011f7f   Thumb Code    18  stm32f10x_tim.o(.text)
    TIM_InternalClockConfig                  0x08011f91   Thumb Code    12  stm32f10x_tim.o(.text)
    TIM_SelectInputTrigger                   0x08011f9d   Thumb Code    18  stm32f10x_tim.o(.text)
    TIM_ITRxExternalClockConfig              0x08011faf   Thumb Code    24  stm32f10x_tim.o(.text)
    TIM_TIxExternalClockConfig               0x08011fc7   Thumb Code    62  stm32f10x_tim.o(.text)
    TIM_ETRConfig                            0x08012005   Thumb Code    28  stm32f10x_tim.o(.text)
    TIM_ETRClockMode1Config                  0x08012021   Thumb Code    54  stm32f10x_tim.o(.text)
    TIM_ETRClockMode2Config                  0x08012057   Thumb Code    32  stm32f10x_tim.o(.text)
    TIM_PrescalerConfig                      0x08012077   Thumb Code     6  stm32f10x_tim.o(.text)
    TIM_CounterModeConfig                    0x0801207d   Thumb Code    18  stm32f10x_tim.o(.text)
    TIM_EncoderInterfaceConfig               0x0801208f   Thumb Code    66  stm32f10x_tim.o(.text)
    TIM_ForcedOC1Config                      0x080120d1   Thumb Code    18  stm32f10x_tim.o(.text)
    TIM_ForcedOC2Config                      0x080120e3   Thumb Code    26  stm32f10x_tim.o(.text)
    TIM_ForcedOC3Config                      0x080120fd   Thumb Code    18  stm32f10x_tim.o(.text)
    TIM_ForcedOC4Config                      0x0801210f   Thumb Code    26  stm32f10x_tim.o(.text)
    TIM_ARRPreloadConfig                     0x08012129   Thumb Code    24  stm32f10x_tim.o(.text)
    TIM_SelectCOM                            0x08012141   Thumb Code    24  stm32f10x_tim.o(.text)
    TIM_SelectCCDMA                          0x08012159   Thumb Code    24  stm32f10x_tim.o(.text)
    TIM_CCPreloadControl                     0x08012171   Thumb Code    24  stm32f10x_tim.o(.text)
    TIM_OC1PreloadConfig                     0x08012189   Thumb Code    18  stm32f10x_tim.o(.text)
    TIM_OC2PreloadConfig                     0x0801219b   Thumb Code    26  stm32f10x_tim.o(.text)
    TIM_OC3PreloadConfig                     0x080121b5   Thumb Code    18  stm32f10x_tim.o(.text)
    TIM_OC4PreloadConfig                     0x080121c7   Thumb Code    26  stm32f10x_tim.o(.text)
    TIM_OC1FastConfig                        0x080121e1   Thumb Code    18  stm32f10x_tim.o(.text)
    TIM_OC2FastConfig                        0x080121f3   Thumb Code    26  stm32f10x_tim.o(.text)
    TIM_OC3FastConfig                        0x0801220d   Thumb Code    18  stm32f10x_tim.o(.text)
    TIM_OC4FastConfig                        0x0801221f   Thumb Code    26  stm32f10x_tim.o(.text)
    TIM_ClearOC1Ref                          0x08012239   Thumb Code    18  stm32f10x_tim.o(.text)
    TIM_ClearOC2Ref                          0x0801224b   Thumb Code    24  stm32f10x_tim.o(.text)
    TIM_ClearOC3Ref                          0x08012263   Thumb Code    18  stm32f10x_tim.o(.text)
    TIM_ClearOC4Ref                          0x08012275   Thumb Code    24  stm32f10x_tim.o(.text)
    TIM_OC1PolarityConfig                    0x0801228d   Thumb Code    18  stm32f10x_tim.o(.text)
    TIM_OC1NPolarityConfig                   0x0801229f   Thumb Code    18  stm32f10x_tim.o(.text)
    TIM_OC2PolarityConfig                    0x080122b1   Thumb Code    26  stm32f10x_tim.o(.text)
    TIM_OC2NPolarityConfig                   0x080122cb   Thumb Code    26  stm32f10x_tim.o(.text)
    TIM_OC3PolarityConfig                    0x080122e5   Thumb Code    26  stm32f10x_tim.o(.text)
    TIM_OC3NPolarityConfig                   0x080122ff   Thumb Code    26  stm32f10x_tim.o(.text)
    TIM_OC4PolarityConfig                    0x08012319   Thumb Code    26  stm32f10x_tim.o(.text)
    TIM_CCxCmd                               0x08012333   Thumb Code    30  stm32f10x_tim.o(.text)
    TIM_CCxNCmd                              0x08012351   Thumb Code    30  stm32f10x_tim.o(.text)
    TIM_SelectOCxM                           0x0801236f   Thumb Code    82  stm32f10x_tim.o(.text)
    TIM_UpdateDisableConfig                  0x080123c1   Thumb Code    24  stm32f10x_tim.o(.text)
    TIM_UpdateRequestConfig                  0x080123d9   Thumb Code    24  stm32f10x_tim.o(.text)
    TIM_SelectHallSensor                     0x080123f1   Thumb Code    24  stm32f10x_tim.o(.text)
    TIM_SelectOnePulseMode                   0x08012409   Thumb Code    18  stm32f10x_tim.o(.text)
    TIM_SelectOutputTrigger                  0x0801241b   Thumb Code    18  stm32f10x_tim.o(.text)
    TIM_SelectSlaveMode                      0x0801242d   Thumb Code    18  stm32f10x_tim.o(.text)
    TIM_SelectMasterSlaveMode                0x0801243f   Thumb Code    18  stm32f10x_tim.o(.text)
    TIM_SetCounter                           0x08012451   Thumb Code     4  stm32f10x_tim.o(.text)
    TIM_SetAutoreload                        0x08012455   Thumb Code     4  stm32f10x_tim.o(.text)
    TIM_SetCompare1                          0x08012459   Thumb Code     4  stm32f10x_tim.o(.text)
    TIM_SetCompare2                          0x0801245d   Thumb Code     4  stm32f10x_tim.o(.text)
    TIM_SetCompare3                          0x08012461   Thumb Code     4  stm32f10x_tim.o(.text)
    TIM_SetCompare4                          0x08012465   Thumb Code     6  stm32f10x_tim.o(.text)
    TIM_SetClockDivision                     0x0801246b   Thumb Code    18  stm32f10x_tim.o(.text)
    TIM_GetCapture1                          0x0801247d   Thumb Code     6  stm32f10x_tim.o(.text)
    TIM_GetCapture2                          0x08012483   Thumb Code     6  stm32f10x_tim.o(.text)
    TIM_GetCapture3                          0x08012489   Thumb Code     6  stm32f10x_tim.o(.text)
    TIM_GetCapture4                          0x0801248f   Thumb Code     8  stm32f10x_tim.o(.text)
    TIM_GetCounter                           0x08012497   Thumb Code     6  stm32f10x_tim.o(.text)
    TIM_GetPrescaler                         0x0801249d   Thumb Code     6  stm32f10x_tim.o(.text)
    TIM_GetFlagStatus                        0x080124a3   Thumb Code    18  stm32f10x_tim.o(.text)
    TIM_ClearFlag                            0x080124b5   Thumb Code     6  stm32f10x_tim.o(.text)
    TIM_GetITStatus                          0x080124bb   Thumb Code    34  stm32f10x_tim.o(.text)
    TIM_ClearITPendingBit                    0x080124dd   Thumb Code     6  stm32f10x_tim.o(.text)
    USART_DeInit                             0x080124e5   Thumb Code   134  stm32f10x_usart.o(.text)
    USART_Init                               0x0801256b   Thumb Code   210  stm32f10x_usart.o(.text)
    USART_StructInit                         0x0801263d   Thumb Code    24  stm32f10x_usart.o(.text)
    USART_ClockInit                          0x08012655   Thumb Code    34  stm32f10x_usart.o(.text)
    USART_ClockStructInit                    0x08012677   Thumb Code    12  stm32f10x_usart.o(.text)
    USART_Cmd                                0x08012683   Thumb Code    24  stm32f10x_usart.o(.text)
    USART_ITConfig                           0x0801269b   Thumb Code    74  stm32f10x_usart.o(.text)
    USART_DMACmd                             0x080126e5   Thumb Code    18  stm32f10x_usart.o(.text)
    USART_SetAddress                         0x080126f7   Thumb Code    18  stm32f10x_usart.o(.text)
    USART_WakeUpConfig                       0x08012709   Thumb Code    18  stm32f10x_usart.o(.text)
    USART_ReceiverWakeUpCmd                  0x0801271b   Thumb Code    24  stm32f10x_usart.o(.text)
    USART_LINBreakDetectLengthConfig         0x08012733   Thumb Code    18  stm32f10x_usart.o(.text)
    USART_LINCmd                             0x08012745   Thumb Code    24  stm32f10x_usart.o(.text)
    USART_SendData                           0x0801275d   Thumb Code     8  stm32f10x_usart.o(.text)
    USART_GetFlagStatus                      0x08012765   Thumb Code    26  stm32f10x_usart.o(.text)
    USART_ClearFlag                          0x0801277f   Thumb Code    18  stm32f10x_usart.o(.text)
    USART_SendString                         0x08012791   Thumb Code    54  stm32f10x_usart.o(.text)
    USART_ReceiveData                        0x080127c7   Thumb Code    10  stm32f10x_usart.o(.text)
    USART_SendBreak                          0x080127d1   Thumb Code    10  stm32f10x_usart.o(.text)
    USART_SetGuardTime                       0x080127db   Thumb Code    16  stm32f10x_usart.o(.text)
    USART_SetPrescaler                       0x080127eb   Thumb Code    16  stm32f10x_usart.o(.text)
    USART_SmartCardCmd                       0x080127fb   Thumb Code    24  stm32f10x_usart.o(.text)
    USART_SmartCardNACKCmd                   0x08012813   Thumb Code    24  stm32f10x_usart.o(.text)
    USART_HalfDuplexCmd                      0x0801282b   Thumb Code    24  stm32f10x_usart.o(.text)
    USART_OverSampling8Cmd                   0x08012843   Thumb Code    22  stm32f10x_usart.o(.text)
    USART_OneBitMethodCmd                    0x08012859   Thumb Code    24  stm32f10x_usart.o(.text)
    USART_IrDAConfig                         0x08012871   Thumb Code    18  stm32f10x_usart.o(.text)
    USART_IrDACmd                            0x08012883   Thumb Code    24  stm32f10x_usart.o(.text)
    USART_GetITStatus                        0x0801289b   Thumb Code   104  stm32f10x_usart.o(.text)
    USART_ClearITPendingBit                  0x08012903   Thumb Code    30  stm32f10x_usart.o(.text)
    delay_init                               0x08012921   Thumb Code    50  delay.o(.text)
    delay_us                                 0x08012953   Thumb Code    72  delay.o(.text)
    delay_ms                                 0x0801299b   Thumb Code    72  delay.o(.text)
    __aeabi_memclr                           0x080129f5   Thumb Code     0  rt_memclr.o(.text)
    __rt_memclr                              0x080129f5   Thumb Code    68  rt_memclr.o(.text)
    _memset                                  0x080129f9   Thumb Code     0  rt_memclr.o(.text)
    __use_two_region_memory                  0x08012a39   Thumb Code     2  heapauxi.o(.text)
    __rt_heap_escrow$2region                 0x08012a3b   Thumb Code     2  heapauxi.o(.text)
    __rt_heap_expand$2region                 0x08012a3d   Thumb Code     2  heapauxi.o(.text)
    __aeabi_memclr4                          0x08012a3f   Thumb Code     0  rt_memclr_w.o(.text)
    __aeabi_memclr8                          0x08012a3f   Thumb Code     0  rt_memclr_w.o(.text)
    __rt_memclr_w                            0x08012a3f   Thumb Code    78  rt_memclr_w.o(.text)
    _memset_w                                0x08012a43   Thumb Code     0  rt_memclr_w.o(.text)
    __user_setup_stackheap                   0x08012a8d   Thumb Code    74  sys_stackheap_outer.o(.text)
    exit                                     0x08012ad7   Thumb Code    18  exit.o(.text)
    __user_libspace                          0x08012ae9   Thumb Code     8  libspace.o(.text)
    __user_perproc_libspace                  0x08012ae9   Thumb Code     0  libspace.o(.text)
    __user_perthread_libspace                0x08012ae9   Thumb Code     0  libspace.o(.text)
    _sys_exit                                0x08012af1   Thumb Code     8  sys_exit.o(.text)
    __I$use$semihosting                      0x08012afd   Thumb Code     0  use_no_semi.o(.text)
    __use_no_semihosting_swi                 0x08012afd   Thumb Code     2  use_no_semi.o(.text)
    ToBoot                                   0x08012afe   Data           4  na7600_usart.o(.constdata)
    __semihosting_library_function           0x08012aff   Thumb Code     0  indicate_semi.o(.text)
    Region$$Table$$Base                      0x08012b04   Number         0  anon$$obj.o(Region$$Table)
    Region$$Table$$Limit                     0x08012b24   Number         0  anon$$obj.o(Region$$Table)
    SendBufTemp                              0x20000000   Data           3  main.o(.data)
    SystemCoreClock                          0x20000004   Data           4  system_stm32f10x.o(.data)
    AHBPrescTable                            0x20000008   Data          16  system_stm32f10x.o(.data)
    JumpToApp                                0x20000018   Data           4  jumptocode.o(.data)
    Flag10MS                                 0x2000001c   Data           1  na7600_timer.o(.data)
    TouchCheckFlag10MsCount                  0x2000001d   Data           1  na7600_timer.o(.data)
    TouchAdjustFlag10MsCount                 0x2000001e   Data           1  na7600_timer.o(.data)
    UsartRxCount                             0x20000020   Data           4  na7600_usart.o(.data)
    UsartRxCodeCount                         0x20000024   Data           4  na7600_usart.o(.data)
    UsartReceiveFlag                         0x20000028   Data           1  na7600_usart.o(.data)
    UpdateFlag                               0x20000029   Data           1  na7600_usart.o(.data)
    NextPageFlag                             0x2000002a   Data           1  na7600_usart.o(.data)
    nPageCount                               0x2000002b   Data           1  na7600_usart.o(.data)
    nPageTotal                               0x2000002c   Data           1  na7600_usart.o(.data)
    STMFLASH_BUF                             0x20000048   Data        2048  na7600_stm32_inflash.o(.bss)
    USART_Receive                            0x20000848   Data          16  na7600_usart.o(.bss)
    USART_ReCodeData                         0x20000858   Data        2054  na7600_usart.o(.bss)
    __libspace_start                         0x20001060   Data          96  libspace.o(.bss)
    __temporary_stack_top$libspace           0x200010c0   Data           0  libspace.o(.bss)



==============================================================================

Memory Map of the image

  Image Entry point : 0x08010131

  Load Region LR_IROM1 (Base: 0x08010000, Size: 0x00002b6c, Max: 0x00020000, ABSOLUTE)

    Execution Region ER_IROM1 (Base: 0x08010000, Size: 0x00002b24, Max: 0x00020000, ABSOLUTE)

    Base Addr    Size         Type   Attr      Idx    E Section Name        Object

    0x08010000   0x00000130   Data   RO          309    RESET               startup_stm32f10x_hd.o
    0x08010130   0x00000008   Code   RO          540  * !!!main             c_w.l(__main.o)
    0x08010138   0x00000034   Code   RO          699    !!!scatter          c_w.l(__scatter.o)
    0x0801016c   0x0000001a   Code   RO          701    !!handler_copy      c_w.l(__scatter_copy.o)
    0x08010186   0x00000002   PAD
    0x08010188   0x0000001c   Code   RO          703    !!handler_zi        c_w.l(__scatter_zi.o)
    0x080101a4   0x00000002   Code   RO          569    .ARM.Collect$$libinit$$00000000  c_w.l(libinit.o)
    0x080101a6   0x00000000   Code   RO          576    .ARM.Collect$$libinit$$00000002  c_w.l(libinit2.o)
    0x080101a6   0x00000000   Code   RO          578    .ARM.Collect$$libinit$$00000004  c_w.l(libinit2.o)
    0x080101a6   0x00000000   Code   RO          581    .ARM.Collect$$libinit$$0000000A  c_w.l(libinit2.o)
    0x080101a6   0x00000000   Code   RO          583    .ARM.Collect$$libinit$$0000000C  c_w.l(libinit2.o)
    0x080101a6   0x00000000   Code   RO          585    .ARM.Collect$$libinit$$0000000E  c_w.l(libinit2.o)
    0x080101a6   0x00000000   Code   RO          588    .ARM.Collect$$libinit$$00000011  c_w.l(libinit2.o)
    0x080101a6   0x00000000   Code   RO          590    .ARM.Collect$$libinit$$00000013  c_w.l(libinit2.o)
    0x080101a6   0x00000000   Code   RO          592    .ARM.Collect$$libinit$$00000015  c_w.l(libinit2.o)
    0x080101a6   0x00000000   Code   RO          594    .ARM.Collect$$libinit$$00000017  c_w.l(libinit2.o)
    0x080101a6   0x00000000   Code   RO          596    .ARM.Collect$$libinit$$00000019  c_w.l(libinit2.o)
    0x080101a6   0x00000000   Code   RO          598    .ARM.Collect$$libinit$$0000001B  c_w.l(libinit2.o)
    0x080101a6   0x00000000   Code   RO          600    .ARM.Collect$$libinit$$0000001D  c_w.l(libinit2.o)
    0x080101a6   0x00000000   Code   RO          602    .ARM.Collect$$libinit$$0000001F  c_w.l(libinit2.o)
    0x080101a6   0x00000000   Code   RO          604    .ARM.Collect$$libinit$$00000021  c_w.l(libinit2.o)
    0x080101a6   0x00000000   Code   RO          606    .ARM.Collect$$libinit$$00000023  c_w.l(libinit2.o)
    0x080101a6   0x00000000   Code   RO          608    .ARM.Collect$$libinit$$00000025  c_w.l(libinit2.o)
    0x080101a6   0x00000000   Code   RO          612    .ARM.Collect$$libinit$$0000002C  c_w.l(libinit2.o)
    0x080101a6   0x00000000   Code   RO          614    .ARM.Collect$$libinit$$0000002E  c_w.l(libinit2.o)
    0x080101a6   0x00000000   Code   RO          616    .ARM.Collect$$libinit$$00000030  c_w.l(libinit2.o)
    0x080101a6   0x00000000   Code   RO          618    .ARM.Collect$$libinit$$00000032  c_w.l(libinit2.o)
    0x080101a6   0x00000002   Code   RO          619    .ARM.Collect$$libinit$$00000033  c_w.l(libinit2.o)
    0x080101a8   0x00000002   Code   RO          639    .ARM.Collect$$libshutdown$$00000000  c_w.l(libshutdown.o)
    0x080101aa   0x00000000   Code   RO          652    .ARM.Collect$$libshutdown$$00000002  c_w.l(libshutdown2.o)
    0x080101aa   0x00000000   Code   RO          654    .ARM.Collect$$libshutdown$$00000004  c_w.l(libshutdown2.o)
    0x080101aa   0x00000000   Code   RO          657    .ARM.Collect$$libshutdown$$00000007  c_w.l(libshutdown2.o)
    0x080101aa   0x00000000   Code   RO          660    .ARM.Collect$$libshutdown$$0000000A  c_w.l(libshutdown2.o)
    0x080101aa   0x00000000   Code   RO          662    .ARM.Collect$$libshutdown$$0000000C  c_w.l(libshutdown2.o)
    0x080101aa   0x00000000   Code   RO          665    .ARM.Collect$$libshutdown$$0000000F  c_w.l(libshutdown2.o)
    0x080101aa   0x00000002   Code   RO          666    .ARM.Collect$$libshutdown$$00000010  c_w.l(libshutdown2.o)
    0x080101ac   0x00000000   Code   RO          542    .ARM.Collect$$rtentry$$00000000  c_w.l(__rtentry.o)
    0x080101ac   0x00000000   Code   RO          546    .ARM.Collect$$rtentry$$00000002  c_w.l(__rtentry2.o)
    0x080101ac   0x00000006   Code   RO          558    .ARM.Collect$$rtentry$$00000004  c_w.l(__rtentry4.o)
    0x080101b2   0x00000000   Code   RO          548    .ARM.Collect$$rtentry$$00000009  c_w.l(__rtentry2.o)
    0x080101b2   0x00000004   Code   RO          549    .ARM.Collect$$rtentry$$0000000A  c_w.l(__rtentry2.o)
    0x080101b6   0x00000000   Code   RO          551    .ARM.Collect$$rtentry$$0000000C  c_w.l(__rtentry2.o)
    0x080101b6   0x00000008   Code   RO          552    .ARM.Collect$$rtentry$$0000000D  c_w.l(__rtentry2.o)
    0x080101be   0x00000002   Code   RO          573    .ARM.Collect$$rtexit$$00000000  c_w.l(rtexit.o)
    0x080101c0   0x00000000   Code   RO          621    .ARM.Collect$$rtexit$$00000002  c_w.l(rtexit2.o)
    0x080101c0   0x00000004   Code   RO          622    .ARM.Collect$$rtexit$$00000003  c_w.l(rtexit2.o)
    0x080101c4   0x00000006   Code   RO          623    .ARM.Collect$$rtexit$$00000004  c_w.l(rtexit2.o)
    0x080101ca   0x00000002   PAD
    0x080101cc   0x00000006   Code   RO          173    .emb_text           jumptocode.o
    0x080101d2   0x00000002   PAD
    0x080101d4   0x00000068   Code   RO            1    .text               main.o
    0x0801023c   0x000000d8   Code   RO          136    .text               stm32f10x_it.o
    0x08010314   0x000001e0   Code   RO          155    .text               system_stm32f10x.o
    0x080104f4   0x0000002c   Code   RO          174    .text               jumptocode.o
    0x08010520   0x00000070   Code   RO          193    .text               led.o
    0x08010590   0x00000144   Code   RO          231    .text               na7600_stm32_inflash.o
    0x080106d4   0x00000068   Code   RO          246    .text               na7600_timer.o
    0x0801073c   0x000001b4   Code   RO          277    .text               na7600_usart.o
    0x080108f0   0x00000040   Code   RO          310    .text               startup_stm32f10x_hd.o
    0x08010930   0x000000dc   Code   RO          314    .text               misc.o
    0x08010a0c   0x000005bc   Code   RO          386    .text               stm32f10x_flash.o
    0x08010fc8   0x0000035c   Code   RO          398    .text               stm32f10x_gpio.o
    0x08011324   0x000003a4   Code   RO          434    .text               stm32f10x_rcc.o
    0x080116c8   0x00000e1a   Code   RO          484    .text               stm32f10x_tim.o
    0x080124e2   0x00000002   PAD
    0x080124e4   0x0000043c   Code   RO          496    .text               stm32f10x_usart.o
    0x08012920   0x000000d4   Code   RO          508    .text               delay.o
    0x080129f4   0x00000044   Code   RO          536    .text               c_w.l(rt_memclr.o)
    0x08012a38   0x00000006   Code   RO          538    .text               c_w.l(heapauxi.o)
    0x08012a3e   0x0000004e   Code   RO          543    .text               c_w.l(rt_memclr_w.o)
    0x08012a8c   0x0000004a   Code   RO          560    .text               c_w.l(sys_stackheap_outer.o)
    0x08012ad6   0x00000012   Code   RO          562    .text               c_w.l(exit.o)
    0x08012ae8   0x00000008   Code   RO          570    .text               c_w.l(libspace.o)
    0x08012af0   0x0000000c   Code   RO          631    .text               c_w.l(sys_exit.o)
    0x08012afc   0x00000002   Code   RO          642    .text               c_w.l(use_no_semi.o)
    0x08012afe   0x00000000   Code   RO          644    .text               c_w.l(indicate_semi.o)
    0x08012afe   0x00000004   Data   RO          279    .constdata          na7600_usart.o
    0x08012b02   0x00000002   PAD
    0x08012b04   0x00000020   Data   RO          697    Region$$Table       anon$$obj.o


    Execution Region RW_IRAM1 (Base: 0x20000000, Size: 0x000016c0, Max: 0x0000c000, ABSOLUTE)

    Base Addr    Size         Type   Attr      Idx    E Section Name        Object

    0x20000000   0x00000003   Data   RW            2    .data               main.o
    0x20000003   0x00000001   PAD
    0x20000004   0x00000014   Data   RW          156    .data               system_stm32f10x.o
    0x20000018   0x00000004   Data   RW          175    .data               jumptocode.o
    0x2000001c   0x00000003   Data   RW          247    .data               na7600_timer.o
    0x2000001f   0x00000001   PAD
    0x20000020   0x0000000d   Data   RW          280    .data               na7600_usart.o
    0x2000002d   0x00000014   Data   RW          435    .data               stm32f10x_rcc.o
    0x20000041   0x00000001   PAD
    0x20000042   0x00000004   Data   RW          509    .data               delay.o
    0x20000046   0x00000002   PAD
    0x20000048   0x00000800   Zero   RW          232    .bss                na7600_stm32_inflash.o
    0x20000848   0x00000816   Zero   RW          278    .bss                na7600_usart.o
    0x2000105e   0x00000002   PAD
    0x20001060   0x00000060   Zero   RW          571    .bss                c_w.l(libspace.o)
    0x200010c0   0x00000200   Zero   RW          308    HEAP                startup_stm32f10x_hd.o
    0x200012c0   0x00000400   Zero   RW          307    STACK               startup_stm32f10x_hd.o


==============================================================================

Image component sizes


      Code (inc. data)   RO Data    RW Data    ZI Data      Debug   Object Name

       212         18          0          4          0        987   delay.o
        50          8          0          4          0       1267   jumptocode.o
       112         12          0          0          0     205187   led.o
       104         24          0          3          0     261261   main.o
       220         22          0          0          0       1753   misc.o
       324          8          0          0       2048       2576   na7600_stm32_inflash.o
       104          8          0          3          0        936   na7600_timer.o
       436         28          4         13       2070       2594   na7600_usart.o
        64         26        304          0       1536        780   startup_stm32f10x_hd.o
      1468         34          0          0          0       8162   stm32f10x_flash.o
       860         38          0          0          0       5685   stm32f10x_gpio.o
       216         42          0          0          0       1540   stm32f10x_it.o
       932         36          0         20          0       8840   stm32f10x_rcc.o
      3610         88          0          0          0      22792   stm32f10x_tim.o
      1084         20          0          0          0       8741   stm32f10x_usart.o
       480         38          0         20          0       1671   system_stm32f10x.o

    ----------------------------------------------------------------------
     10280        450        342         72       5656     534772   Object Totals
         0          0         32          0          0          0   (incl. Generated)
         4          0          2          5          2          0   (incl. Padding)

    ----------------------------------------------------------------------

      Code (inc. data)   RO Data    RW Data    ZI Data      Debug   Library Member Name

         8          0          0          0          0         68   __main.o
         0          0          0          0          0          0   __rtentry.o
        12          0          0          0          0          0   __rtentry2.o
         6          0          0          0          0          0   __rtentry4.o
        52          8          0          0          0          0   __scatter.o
        26          0          0          0          0          0   __scatter_copy.o
        28          0          0          0          0          0   __scatter_zi.o
        18          0          0          0          0         80   exit.o
         6          0          0          0          0        152   heapauxi.o
         0          0          0          0          0          0   indicate_semi.o
         2          0          0          0          0          0   libinit.o
         2          0          0          0          0          0   libinit2.o
         2          0          0          0          0          0   libshutdown.o
         2          0          0          0          0          0   libshutdown2.o
         8          4          0          0         96         68   libspace.o
        68          0          0          0          0         68   rt_memclr.o
        78          0          0          0          0         80   rt_memclr_w.o
         2          0          0          0          0          0   rtexit.o
        10          0          0          0          0          0   rtexit2.o
        12          4          0          0          0         68   sys_exit.o
        74          0          0          0          0         80   sys_stackheap_outer.o
         2          0          0          0          0         68   use_no_semi.o

    ----------------------------------------------------------------------
       422         16          0          0         96        732   Library Totals
         4          0          0          0          0          0   (incl. Padding)

    ----------------------------------------------------------------------

      Code (inc. data)   RO Data    RW Data    ZI Data      Debug   Library Name

       418         16          0          0         96        732   c_w.l

    ----------------------------------------------------------------------
       422         16          0          0         96        732   Library Totals

    ----------------------------------------------------------------------

==============================================================================


      Code (inc. data)   RO Data    RW Data    ZI Data      Debug   

     10702        466        342         72       5752     533888   Grand Totals
     10702        466        342         72       5752     533888   ELF Image Totals
     10702        466        342         72          0          0   ROM Totals

==============================================================================

    Total RO  Size (Code + RO Data)                11044 (  10.79kB)
    Total RW  Size (RW Data + ZI Data)              5824 (   5.69kB)
    Total ROM Size (Code + RO Data + RW Data)      11116 (  10.86kB)

==============================================================================

