###############################################################################
#                                                                             #
# IAR ELF Linker V5.50.0.51878/W32 for ARM              05/Jun/2018  10:57:13 #
# Copyright (C) 2007-2010 IAR Systems AB.                                     #
#                                                                             #
#    Output file  =  F:\my_new_Svn_working\my_project\STM32\STM32_Update\STM3 #
#                    2_App\Project\EWARM5\Debug\Exe\STM32F103Template.out     #
#    Map file     =  F:\my_new_Svn_working\my_project\STM32\STM32_Update\STM3 #
#                    2_App\Project\EWARM5\Debug\List\STM32F103Template.map    #
#    Command line =  F:\my_new_Svn_working\my_project\STM32\STM32_Update\STM3 #
#                    2_App\Project\EWARM5\Debug\Obj\JumpToCode.o              #
#                    F:\my_new_Svn_working\my_project\STM32\STM32_Update\STM3 #
#                    2_App\Project\EWARM5\Debug\Obj\NA7600_STM32_INFLASH.o    #
#                    F:\my_new_Svn_working\my_project\STM32\STM32_Update\STM3 #
#                    2_App\Project\EWARM5\Debug\Obj\NA7600_Timer.o            #
#                    F:\my_new_Svn_working\my_project\STM32\STM32_Update\STM3 #
#                    2_App\Project\EWARM5\Debug\Obj\NA7600_Usart.o            #
#                    F:\my_new_Svn_working\my_project\STM32\STM32_Update\STM3 #
#                    2_App\Project\EWARM5\Debug\Obj\SPI_FLASH.o               #
#                    F:\my_new_Svn_working\my_project\STM32\STM32_Update\STM3 #
#                    2_App\Project\EWARM5\Debug\Obj\core_cm3.o                #
#                    F:\my_new_Svn_working\my_project\STM32\STM32_Update\STM3 #
#                    2_App\Project\EWARM5\Debug\Obj\delay.o                   #
#                    F:\my_new_Svn_working\my_project\STM32\STM32_Update\STM3 #
#                    2_App\Project\EWARM5\Debug\Obj\led.o                     #
#                    F:\my_new_Svn_working\my_project\STM32\STM32_Update\STM3 #
#                    2_App\Project\EWARM5\Debug\Obj\main.o                    #
#                    F:\my_new_Svn_working\my_project\STM32\STM32_Update\STM3 #
#                    2_App\Project\EWARM5\Debug\Obj\misc.o                    #
#                    F:\my_new_Svn_working\my_project\STM32\STM32_Update\STM3 #
#                    2_App\Project\EWARM5\Debug\Obj\startup_stm32f10x_hd.o    #
#                    F:\my_new_Svn_working\my_project\STM32\STM32_Update\STM3 #
#                    2_App\Project\EWARM5\Debug\Obj\stm32f10x_adc.o           #
#                    F:\my_new_Svn_working\my_project\STM32\STM32_Update\STM3 #
#                    2_App\Project\EWARM5\Debug\Obj\stm32f10x_bkp.o           #
#                    F:\my_new_Svn_working\my_project\STM32\STM32_Update\STM3 #
#                    2_App\Project\EWARM5\Debug\Obj\stm32f10x_cec.o           #
#                    F:\my_new_Svn_working\my_project\STM32\STM32_Update\STM3 #
#                    2_App\Project\EWARM5\Debug\Obj\stm32f10x_crc.o           #
#                    F:\my_new_Svn_working\my_project\STM32\STM32_Update\STM3 #
#                    2_App\Project\EWARM5\Debug\Obj\stm32f10x_dac.o           #
#                    F:\my_new_Svn_working\my_project\STM32\STM32_Update\STM3 #
#                    2_App\Project\EWARM5\Debug\Obj\stm32f10x_dbgmcu.o        #
#                    F:\my_new_Svn_working\my_project\STM32\STM32_Update\STM3 #
#                    2_App\Project\EWARM5\Debug\Obj\stm32f10x_exti.o          #
#                    F:\my_new_Svn_working\my_project\STM32\STM32_Update\STM3 #
#                    2_App\Project\EWARM5\Debug\Obj\stm32f10x_flash.o         #
#                    F:\my_new_Svn_working\my_project\STM32\STM32_Update\STM3 #
#                    2_App\Project\EWARM5\Debug\Obj\stm32f10x_gpio.o          #
#                    F:\my_new_Svn_working\my_project\STM32\STM32_Update\STM3 #
#                    2_App\Project\EWARM5\Debug\Obj\stm32f10x_it.o            #
#                    F:\my_new_Svn_working\my_project\STM32\STM32_Update\STM3 #
#                    2_App\Project\EWARM5\Debug\Obj\stm32f10x_pwr.o           #
#                    F:\my_new_Svn_working\my_project\STM32\STM32_Update\STM3 #
#                    2_App\Project\EWARM5\Debug\Obj\stm32f10x_rcc.o           #
#                    F:\my_new_Svn_working\my_project\STM32\STM32_Update\STM3 #
#                    2_App\Project\EWARM5\Debug\Obj\stm32f10x_rtc.o           #
#                    F:\my_new_Svn_working\my_project\STM32\STM32_Update\STM3 #
#                    2_App\Project\EWARM5\Debug\Obj\stm32f10x_sdio.o          #
#                    F:\my_new_Svn_working\my_project\STM32\STM32_Update\STM3 #
#                    2_App\Project\EWARM5\Debug\Obj\stm32f10x_spi.o           #
#                    F:\my_new_Svn_working\my_project\STM32\STM32_Update\STM3 #
#                    2_App\Project\EWARM5\Debug\Obj\stm32f10x_tim.o           #
#                    F:\my_new_Svn_working\my_project\STM32\STM32_Update\STM3 #
#                    2_App\Project\EWARM5\Debug\Obj\stm32f10x_usart.o         #
#                    F:\my_new_Svn_working\my_project\STM32\STM32_Update\STM3 #
#                    2_App\Project\EWARM5\Debug\Obj\sys.o                     #
#                    F:\my_new_Svn_working\my_project\STM32\STM32_Update\STM3 #
#                    2_App\Project\EWARM5\Debug\Obj\system_stm32f10x.o -o     #
#                    F:\my_new_Svn_working\my_project\STM32\STM32_Update\STM3 #
#                    2_App\Project\EWARM5\Debug\Exe\STM32F103Template.out     #
#                    --map F:\my_new_Svn_working\my_project\STM32\STM32_Updat #
#                    e\STM32_App\Project\EWARM5\Debug\List\STM32F103Template. #
#                    map --config F:\my_new_Svn_working\my_project\STM32\STM3 #
#                    2_Update\STM32_App\Project\EWARM5\stm32f10x_flash.icf    #
#                    --semihosting --entry __iar_program_start                #
#                                                                             #
#                                                                             #
###############################################################################

*******************************************************************************
*** PLACEMENT SUMMARY
***

"A1":  place at 0x08010000 { ro section .intvec };
"P1":  place in [from 0x08010000 to 0x080fffff] { ro };
"P2":  place in [from 0x20000000 to 0x20017fff] {
          rw, block CSTACK, block HEAP };

  Section            Kind        Address    Size  Object
  -------            ----        -------    ----  ------
"A1":                                      0x130
  .intvec            ro code  0x08010000   0x130  startup_stm32f10x_hd.o [1]
                            - 0x08010130   0x130

"P1":                                     0x10a0
  .text              ro code  0x08010130   0x25a  stm32f10x_usart.o [1]
  .text              ro code  0x0801038c   0x182  NA7600_STM32_INFLASH.o [1]
  .text              ro code  0x08010510   0x164  stm32f10x_rcc.o [1]
  .text              ro code  0x08010674   0x14c  NA7600_Usart.o [1]
  .text              ro code  0x080107c0   0x144  stm32f10x_flash.o [1]
  .text              ro code  0x08010904   0x124  stm32f10x_tim.o [1]
  .text              ro code  0x08010a28    0xd4  stm32f10x_it.o [1]
  .text              ro code  0x08010afc    0xd2  stm32f10x_gpio.o [1]
  .text              ro code  0x08010bd0    0x9c  misc.o [1]
  .text              ro code  0x08010c6c    0x84  delay.o [1]
  .text              ro code  0x08010cf0    0x74  main.o [1]
  .text              ro code  0x08010d64    0x70  NA7600_Timer.o [1]
  .text              ro code  0x08010dd4    0x70  led.o [1]
  .text              ro code  0x08010e44    0x6e  system_stm32f10x.o [1]
  .text              ro code  0x08010eb4    0x66  ABImemset.o [4]
  .text              ro code  0x08010f1c    0x34  JumpToCode.o [1]
  .text              ro code  0x08010f50    0x30  copy_init3.o [4]
  .text              ro code  0x08010f80    0x2c  data_init3.o [4]
  .text              ro code  0x08010fac    0x28  iarttio.o [5]
  .text              ro code  0x08010fd4    0x24  zero_init3.o [4]
  .iar.init_table    const    0x08010ff8    0x24  - Linker created -
  .text              ro code  0x0801101c    0x16  cmain.o [4]
  .text              ro code  0x08011034    0x14  exit.o [5]
  .text              ro code  0x08011048    0x14  NA7600_Usart.o [1]
  .text              ro code  0x0801105c    0x10  startup_stm32f10x_hd.o [1]
  .text              ro code  0x0801106c     0xc  cstartup_M.o [4]
  .text              ro code  0x08011078     0xa  cexit.o [4]
  .text              ro code  0x08011084     0x8  XShttio.o [3]
  .text              ro code  0x0801108c     0x6  exit.o [3]
  .rodata            const    0x08011094     0x4  NA7600_Usart.o [1]
  .text              ro code  0x08011098     0x4  startup_stm32f10x_hd.o [1]
  .text              ro code  0x0801109c     0x4  startup_stm32f10x_hd.o [1]
  .text              ro code  0x080110a0     0x4  startup_stm32f10x_hd.o [1]
  .text              ro code  0x080110a4     0x4  startup_stm32f10x_hd.o [1]
  .text              ro code  0x080110a8     0x4  startup_stm32f10x_hd.o [1]
  .text              ro code  0x080110ac     0x4  startup_stm32f10x_hd.o [1]
  .text              ro code  0x080110b0     0x4  startup_stm32f10x_hd.o [1]
  .text              ro code  0x080110b4     0x4  startup_stm32f10x_hd.o [1]
  .text              ro code  0x080110b8     0x4  startup_stm32f10x_hd.o [1]
  .text              ro code  0x080110bc     0x4  startup_stm32f10x_hd.o [1]
  .text              ro code  0x080110c0     0x4  startup_stm32f10x_hd.o [1]
  .text              ro code  0x080110c4     0x4  startup_stm32f10x_hd.o [1]
  .text              ro code  0x080110c8     0x4  startup_stm32f10x_hd.o [1]
  .text              ro code  0x080110cc     0x4  startup_stm32f10x_hd.o [1]
  .text              ro code  0x080110d0     0x4  startup_stm32f10x_hd.o [1]
  .text              ro code  0x080110d4     0x4  startup_stm32f10x_hd.o [1]
  .text              ro code  0x080110d8     0x4  startup_stm32f10x_hd.o [1]
  .text              ro code  0x080110dc     0x4  startup_stm32f10x_hd.o [1]
  .text              ro code  0x080110e0     0x4  startup_stm32f10x_hd.o [1]
  .text              ro code  0x080110e4     0x4  startup_stm32f10x_hd.o [1]
  .text              ro code  0x080110e8     0x4  startup_stm32f10x_hd.o [1]
  .text              ro code  0x080110ec     0x4  startup_stm32f10x_hd.o [1]
  .text              ro code  0x080110f0     0x4  startup_stm32f10x_hd.o [1]
  .text              ro code  0x080110f4     0x4  startup_stm32f10x_hd.o [1]
  .text              ro code  0x080110f8     0x4  startup_stm32f10x_hd.o [1]
  .text              ro code  0x080110fc     0x4  startup_stm32f10x_hd.o [1]
  .text              ro code  0x08011100     0x4  startup_stm32f10x_hd.o [1]
  .text              ro code  0x08011104     0x4  startup_stm32f10x_hd.o [1]
  .text              ro code  0x08011108     0x4  startup_stm32f10x_hd.o [1]
  .text              ro code  0x0801110c     0x4  startup_stm32f10x_hd.o [1]
  .text              ro code  0x08011110     0x4  startup_stm32f10x_hd.o [1]
  .text              ro code  0x08011114     0x4  startup_stm32f10x_hd.o [1]
  .text              ro code  0x08011118     0x4  startup_stm32f10x_hd.o [1]
  .text              ro code  0x0801111c     0x4  startup_stm32f10x_hd.o [1]
  .text              ro code  0x08011120     0x4  startup_stm32f10x_hd.o [1]
  .text              ro code  0x08011124     0x4  startup_stm32f10x_hd.o [1]
  .text              ro code  0x08011128     0x4  startup_stm32f10x_hd.o [1]
  .text              ro code  0x0801112c     0x4  startup_stm32f10x_hd.o [1]
  .text              ro code  0x08011130     0x4  startup_stm32f10x_hd.o [1]
  .text              ro code  0x08011134     0x4  startup_stm32f10x_hd.o [1]
  .text              ro code  0x08011138     0x4  startup_stm32f10x_hd.o [1]
  .text              ro code  0x0801113c     0x4  startup_stm32f10x_hd.o [1]
  .text              ro code  0x08011140     0x4  startup_stm32f10x_hd.o [1]
  .text              ro code  0x08011144     0x4  startup_stm32f10x_hd.o [1]
  .text              ro code  0x08011148     0x4  startup_stm32f10x_hd.o [1]
  .text              ro code  0x0801114c     0x4  startup_stm32f10x_hd.o [1]
  .text              ro code  0x08011150     0x4  startup_stm32f10x_hd.o [1]
  .text              ro code  0x08011154     0x4  startup_stm32f10x_hd.o [1]
  .text              ro code  0x08011158     0x4  startup_stm32f10x_hd.o [1]
  .text              ro code  0x0801115c     0x4  startup_stm32f10x_hd.o [1]
  .text              ro code  0x08011160     0x4  startup_stm32f10x_hd.o [1]
  .text              ro code  0x08011164     0x4  startup_stm32f10x_hd.o [1]
  .text              ro code  0x08011168     0x4  startup_stm32f10x_hd.o [1]
  .text              ro code  0x0801116c     0x4  startup_stm32f10x_hd.o [1]
  .text              ro code  0x08011170     0x4  startup_stm32f10x_hd.o [1]
  .text              ro code  0x08011174     0x4  startup_stm32f10x_hd.o [1]
  .text              ro code  0x08011178     0x4  startup_stm32f10x_hd.o [1]
  .text              ro code  0x0801117c     0x4  startup_stm32f10x_hd.o [1]
  .text              ro code  0x08011180     0x4  startup_stm32f10x_hd.o [1]
  .text              ro code  0x08011184     0x4  startup_stm32f10x_hd.o [1]
  .text              ro code  0x08011188     0x4  startup_stm32f10x_hd.o [1]
  .text              ro code  0x0801118c     0x4  startup_stm32f10x_hd.o [1]
  .text              ro code  0x08011190     0x4  startup_stm32f10x_hd.o [1]
  .text              ro code  0x08011194     0x4  startup_stm32f10x_hd.o [1]
  .text              ro code  0x08011198     0x4  startup_stm32f10x_hd.o [1]
  .text              ro code  0x0801119c     0x4  startup_stm32f10x_hd.o [1]
  .text              ro code  0x080111a0     0x4  startup_stm32f10x_hd.o [1]
  .text              ro code  0x080111a4     0x4  startup_stm32f10x_hd.o [1]
  .text              ro code  0x080111a8     0x4  startup_stm32f10x_hd.o [1]
  .text              ro code  0x080111ac     0x4  low_level_init.o [3]
  Initializer bytes  ro data  0x080111b0    0x20  <for P2 s0>
                            - 0x080111d0  0x10a0

"P2", part 1 of 3:                         0x400
  CSTACK                      0x20000000   0x400  <Block>
    CSTACK           uninit   0x20000000   0x400  <Block tail>
                            - 0x20000400   0x400

"P2", part 2 of 3:                          0x20
  P2 s0                       0x20000400    0x20  <Init block>
    .data            inited   0x20000400    0x10  stm32f10x_rcc.o [1]
    .data            inited   0x20000410     0x8  XShttio.o [3]
    .data            inited   0x20000418     0x4  stm32f10x_rcc.o [1]
    .data            inited   0x2000041c     0x4  system_stm32f10x.o [1]
                            - 0x20000420    0x20

"P2", part 3 of 3:                        0x102c
  .bss               zero     0x20000420   0x808  NA7600_Usart.o [1]
  .bss               zero     0x20000c28   0x800  NA7600_STM32_INFLASH.o [1]
  .bss               zero     0x20001428    0x10  NA7600_Usart.o [1]
  .bss               zero     0x20001438     0x4  JumpToCode.o [1]
  .bss               zero     0x2000143c     0x4  NA7600_Usart.o [1]
  .bss               zero     0x20001440     0x4  NA7600_Usart.o [1]
  .bss               zero     0x20001444     0x2  delay.o [1]
  .bss               zero     0x20001446     0x1  NA7600_Timer.o [1]
  .bss               zero     0x20001447     0x1  NA7600_Usart.o [1]
  .bss               zero     0x20001448     0x1  NA7600_Usart.o [1]
  .bss               zero     0x20001449     0x1  NA7600_Usart.o [1]
  .bss               zero     0x2000144a     0x1  delay.o [1]
                            - 0x2000144b  0x102b


*******************************************************************************
*** INIT TABLE
***

          Address     Size
          -------     ----
Zero (__iar_zero_init3)
    1 destination range, total size 0x102b:
          0x20000420  0x102b

Copy (__iar_copy_init3)
    1 source range, total size 0x20 (100% of destination):
          0x080111b0    0x20
    1 destination range, total size 0x20:
          0x20000400    0x20


*******************************************************************************
*** MODULE SUMMARY
***

    Module                  ro code  ro data  rw data
    ------                  -------  -------  -------
F:\my_new_Svn_working\my_project\STM32\STM32_Update\STM32_App\Project\EWARM5\Debug\Obj: [1]
    JumpToCode.o                 52                 4
    NA7600_STM32_INFLASH.o      386             2 048
    NA7600_Timer.o              112                 1
    NA7600_Usart.o              352        4    2 083
    delay.o                     132                 3
    led.o                       112
    main.o                      116
    misc.o                      156
    startup_stm32f10x_hd.o      596
    stm32f10x_flash.o           324
    stm32f10x_gpio.o            210
    stm32f10x_it.o              212
    stm32f10x_rcc.o             356       20       20
    stm32f10x_tim.o             292
    stm32f10x_usart.o           602
    system_stm32f10x.o          110        4        4
    -------------------------------------------------
    Total:                    4 120       28    4 163

command line: [2]
    -------------------------------------------------
    Total:

dl7M_tl_if.a: [3]
    XShttio.o                     8        8        8
    exit.o                        6
    low_level_init.o              4
    -------------------------------------------------
    Total:                       18        8        8

rt7M_tl.a: [4]
    ABImemset.o                 102
    cexit.o                      10
    cmain.o                      22
    copy_init3.o                 48
    cstartup_M.o                 12
    data_init3.o                 44
    zero_init3.o                 36
    -------------------------------------------------
    Total:                      274

shb_l.a: [5]
    exit.o                       20
    iarttio.o                    40
    -------------------------------------------------
    Total:                       60

    Gaps                         14        2
    Linker created                        36    1 024
-----------------------------------------------------
    Grand Total:              4 486       74    5 195


*******************************************************************************
*** ENTRY LIST
***

Entry                      Address   Size  Type      Object
-----                      -------   ----  ----      ------
ADC1_2_IRQHandler       0x08011105         Code  Wk  startup_stm32f10x_hd.o [1]
ADC3_IRQHandler         0x08011179         Code  Wk  startup_stm32f10x_hd.o [1]
ADCPrescTable           0x20000418    0x4  Data  Lc  stm32f10x_rcc.o [1]
APBAHBPrescTable        0x20000400   0x10  Data  Lc  stm32f10x_rcc.o [1]
BusFault_Handler        0x08010a2f    0x2  Code  Gb  stm32f10x_it.o [1]
CAN1_RX1_IRQHandler     0x08011111         Code  Wk  startup_stm32f10x_hd.o [1]
CAN1_SCE_IRQHandler     0x08011115         Code  Wk  startup_stm32f10x_hd.o [1]
CSTACK$$Base            0x20000000          --   Gb  - Linker created -
CSTACK$$Limit           0x20000400          --   Gb  - Linker created -
DMA1_Channel1_IRQHandler
                        0x080110e9         Code  Wk  startup_stm32f10x_hd.o [1]
DMA1_Channel2_IRQHandler
                        0x080110ed         Code  Wk  startup_stm32f10x_hd.o [1]
DMA1_Channel3_IRQHandler
                        0x080110f1         Code  Wk  startup_stm32f10x_hd.o [1]
DMA1_Channel4_IRQHandler
                        0x080110f5         Code  Wk  startup_stm32f10x_hd.o [1]
DMA1_Channel5_IRQHandler
                        0x080110f9         Code  Wk  startup_stm32f10x_hd.o [1]
DMA1_Channel6_IRQHandler
                        0x080110fd         Code  Wk  startup_stm32f10x_hd.o [1]
DMA1_Channel7_IRQHandler
                        0x08011101         Code  Wk  startup_stm32f10x_hd.o [1]
DMA2_Channel1_IRQHandler
                        0x0801119d         Code  Wk  startup_stm32f10x_hd.o [1]
DMA2_Channel2_IRQHandler
                        0x080111a1         Code  Wk  startup_stm32f10x_hd.o [1]
DMA2_Channel3_IRQHandler
                        0x080111a5         Code  Wk  startup_stm32f10x_hd.o [1]
DMA2_Channel4_5_IRQHandler
                        0x080111a9         Code  Wk  startup_stm32f10x_hd.o [1]
DebugMon_Handler        0x08010a35    0x2  Code  Gb  stm32f10x_it.o [1]
EXTI0_IRQHandler        0x080110d5         Code  Wk  startup_stm32f10x_hd.o [1]
EXTI15_10_IRQHandler    0x0801115d         Code  Wk  startup_stm32f10x_hd.o [1]
EXTI1_IRQHandler        0x080110d9         Code  Wk  startup_stm32f10x_hd.o [1]
EXTI2_IRQHandler        0x080110dd         Code  Wk  startup_stm32f10x_hd.o [1]
EXTI3_IRQHandler        0x080110e1         Code  Wk  startup_stm32f10x_hd.o [1]
EXTI4_IRQHandler        0x080110e5         Code  Wk  startup_stm32f10x_hd.o [1]
EXTI9_5_IRQHandler      0x08011119         Code  Wk  startup_stm32f10x_hd.o [1]
FLASH_ErasePage         0x080107e9   0x5e  Code  Gb  stm32f10x_flash.o [1]
FLASH_GetBank1Status    0x08010893   0x2c  Code  Gb  stm32f10x_flash.o [1]
FLASH_IRQHandler        0x080110cd         Code  Wk  startup_stm32f10x_hd.o [1]
FLASH_Lock              0x080107d7   0x12  Code  Gb  stm32f10x_flash.o [1]
FLASH_ProgramHalfWord   0x08010847   0x4c  Code  Gb  stm32f10x_flash.o [1]
FLASH_Unlock            0x080107c1   0x16  Code  Gb  stm32f10x_flash.o [1]
FLASH_WaitForLastOperation
                        0x080108d9   0x2c  Code  Gb  stm32f10x_flash.o [1]
FSMC_IRQHandler         0x0801117d         Code  Wk  startup_stm32f10x_hd.o [1]
Flag10MS                0x20001446    0x1  Data  Gb  NA7600_Timer.o [1]
GPIO_Init               0x08010afd   0xcc  Code  Gb  stm32f10x_gpio.o [1]
GPIO_SetBits            0x08010bc9    0x6  Code  Gb  stm32f10x_gpio.o [1]
HardFault_Handler       0x08010a2b    0x2  Code  Gb  stm32f10x_it.o [1]
I2C1_ER_IRQHandler      0x0801113d         Code  Wk  startup_stm32f10x_hd.o [1]
I2C1_EV_IRQHandler      0x08011139         Code  Wk  startup_stm32f10x_hd.o [1]
I2C2_ER_IRQHandler      0x08011145         Code  Wk  startup_stm32f10x_hd.o [1]
I2C2_EV_IRQHandler      0x08011141         Code  Wk  startup_stm32f10x_hd.o [1]
LED_Init                0x08010dd5   0x70  Code  Gb  led.o [1]
MSR_MSP                 0x08010f1d    0x8  Code  Gb  JumpToCode.o [1]
MemManage_Handler       0x08010a2d    0x2  Code  Gb  stm32f10x_it.o [1]
NMI_Handler             0x08010a29    0x2  Code  Gb  stm32f10x_it.o [1]
NVIC_Init               0x08010bd1   0x66  Code  Gb  misc.o [1]
NextPageFlag            0x20001449    0x1  Data  Gb  NA7600_Usart.o [1]
PVD_IRQHandler          0x080110c1         Code  Wk  startup_stm32f10x_hd.o [1]
PendSV_Handler          0x08010a37    0x2  Code  Gb  stm32f10x_it.o [1]
RCC_APB1PeriphClockCmd  0x080105f1   0x20  Code  Gb  stm32f10x_rcc.o [1]
RCC_APB1PeriphResetCmd  0x08010631   0x20  Code  Gb  stm32f10x_rcc.o [1]
RCC_APB2PeriphClockCmd  0x080105d1   0x20  Code  Gb  stm32f10x_rcc.o [1]
RCC_APB2PeriphResetCmd  0x08010611   0x20  Code  Gb  stm32f10x_rcc.o [1]
RCC_GetClocksFreq       0x08010511   0xc0  Code  Gb  stm32f10x_rcc.o [1]
RCC_IRQHandler          0x080110d1         Code  Wk  startup_stm32f10x_hd.o [1]
RTCAlarm_IRQHandler     0x08011161         Code  Wk  startup_stm32f10x_hd.o [1]
RTC_IRQHandler          0x080110c9         Code  Wk  startup_stm32f10x_hd.o [1]
ReceiveUsartData        0x08010721   0x7e  Code  Gb  NA7600_Usart.o [1]
Region$$Table$$Base     0x08010ff8          --   Gb  - Linker created -
Region$$Table$$Limit    0x0801101c          --   Gb  - Linker created -
Reset_Handler           0x0801105d         Code  Wk  startup_stm32f10x_hd.o [1]
SDIO_IRQHandler         0x08011181         Code  Wk  startup_stm32f10x_hd.o [1]
SPI1_IRQHandler         0x08011149         Code  Wk  startup_stm32f10x_hd.o [1]
SPI2_IRQHandler         0x0801114d         Code  Wk  startup_stm32f10x_hd.o [1]
SPI3_IRQHandler         0x08011189         Code  Wk  startup_stm32f10x_hd.o [1]
STMFLASH_BUF            0x20000c28  0x800  Data  Gb  NA7600_STM32_INFLASH.o [1]
STMFLASH_Read           0x080104dd   0x26  Code  Gb  NA7600_STM32_INFLASH.o [1]
STMFLASH_ReadHalfWord   0x080104d9    0x4  Code  Gb  NA7600_STM32_INFLASH.o [1]
STMFLASH_Write          0x080103b3  0x122  Code  Gb  NA7600_STM32_INFLASH.o [1]
STMFLASH_Write_NoCheck  0x0801038d   0x26  Code  Gb  NA7600_STM32_INFLASH.o [1]
STMFLASH_WtiteU16DataToFlash
                        0x08010503    0xc  Code  Gb  NA7600_STM32_INFLASH.o [1]
SVC_Handler             0x08010a33    0x2  Code  Gb  stm32f10x_it.o [1]
SetSysClock             0x08010eb1    0x2  Code  Lc  system_stm32f10x.o [1]
SysTick_CLKSourceConfig
                        0x08010c37   0x1e  Code  Gb  misc.o [1]
SysTick_Handler         0x08010a39    0x2  Code  Gb  stm32f10x_it.o [1]
SystemCoreClock         0x2000041c    0x4  Data  Gb  system_stm32f10x.o [1]
SystemInit              0x08010e45   0x52  Code  Gb  system_stm32f10x.o [1]
TAMPER_IRQHandler       0x080110c5         Code  Wk  startup_stm32f10x_hd.o [1]
TIM1_BRK_IRQHandler     0x0801111d         Code  Wk  startup_stm32f10x_hd.o [1]
TIM1_CC_IRQHandler      0x08011129         Code  Wk  startup_stm32f10x_hd.o [1]
TIM1_TRG_COM_IRQHandler
                        0x08011125         Code  Wk  startup_stm32f10x_hd.o [1]
TIM1_UP_IRQHandler      0x08011121         Code  Wk  startup_stm32f10x_hd.o [1]
TIM2_IRQHandler         0x0801112d         Code  Wk  startup_stm32f10x_hd.o [1]
TIM3_IRQHandler         0x08010a3b   0x1e  Code  Gb  stm32f10x_it.o [1]
TIM3_Init               0x08010d65   0x70  Code  Gb  NA7600_Timer.o [1]
TIM4_IRQHandler         0x08011135         Code  Wk  startup_stm32f10x_hd.o [1]
TIM5_IRQHandler         0x08011185         Code  Wk  startup_stm32f10x_hd.o [1]
TIM6_IRQHandler         0x08011195         Code  Wk  startup_stm32f10x_hd.o [1]
TIM7_IRQHandler         0x08011199         Code  Wk  startup_stm32f10x_hd.o [1]
TIM8_BRK_IRQHandler     0x08011169         Code  Wk  startup_stm32f10x_hd.o [1]
TIM8_CC_IRQHandler      0x08011175         Code  Wk  startup_stm32f10x_hd.o [1]
TIM8_TRG_COM_IRQHandler
                        0x08011171         Code  Wk  startup_stm32f10x_hd.o [1]
TIM8_UP_IRQHandler      0x0801116d         Code  Wk  startup_stm32f10x_hd.o [1]
TIM_ClearITPendingBit   0x080109f9    0x8  Code  Gb  stm32f10x_tim.o [1]
TIM_Cmd                 0x08010999   0x1a  Code  Gb  stm32f10x_tim.o [1]
TIM_GetITStatus         0x080109cb   0x2e  Code  Gb  stm32f10x_tim.o [1]
TIM_ITConfig            0x080109b3   0x18  Code  Gb  stm32f10x_tim.o [1]
TIM_TimeBaseInit        0x08010905   0x94  Code  Gb  stm32f10x_tim.o [1]
ToBoot                  0x08011094    0x4  Data  Gb  NA7600_Usart.o [1]
UART4_IRQHandler        0x0801118d         Code  Wk  startup_stm32f10x_hd.o [1]
UART5_IRQHandler        0x08011191         Code  Wk  startup_stm32f10x_hd.o [1]
USART1_IRQHandler       0x08010a59   0x7c  Code  Gb  stm32f10x_it.o [1]
USART2_IRQHandler       0x08011155         Code  Wk  startup_stm32f10x_hd.o [1]
USART3_IRQHandler       0x08011159         Code  Wk  startup_stm32f10x_hd.o [1]
USART_ClearITPendingBit
                        0x08010369   0x22  Code  Gb  stm32f10x_usart.o [1]
USART_Cmd               0x08010291   0x1a  Code  Gb  stm32f10x_usart.o [1]
USART_DeInit            0x08010131   0x8e  Code  Gb  stm32f10x_usart.o [1]
USART_GetITStatus       0x08010305   0x64  Code  Gb  stm32f10x_usart.o [1]
USART_ITConfig          0x080102ab   0x52  Code  Gb  stm32f10x_usart.o [1]
USART_Init              0x080101bf   0xbe  Code  Gb  stm32f10x_usart.o [1]
USART_ReCodeData        0x20000420  0x808  Data  Gb  NA7600_Usart.o [1]
USART_Receive           0x20001428   0x10  Data  Gb  NA7600_Usart.o [1]
USART_ReceiveData       0x080102fd    0x8  Code  Gb  stm32f10x_usart.o [1]
USBWakeUp_IRQHandler    0x08011165         Code  Wk  startup_stm32f10x_hd.o [1]
USB_HP_CAN1_TX_IRQHandler
                        0x08011109         Code  Wk  startup_stm32f10x_hd.o [1]
USB_LP_CAN1_RX0_IRQHandler
                        0x0801110d         Code  Wk  startup_stm32f10x_hd.o [1]
UpdateFlag              0x20001448    0x1  Data  Gb  NA7600_Usart.o [1]
UsageFault_Handler      0x08010a31    0x2  Code  Gb  stm32f10x_it.o [1]
UsartReceiveFlag        0x20001447    0x1  Data  Gb  NA7600_Usart.o [1]
UsartRxCodeCount        0x20001440    0x4  Data  Gb  NA7600_Usart.o [1]
UsartRxCount            0x2000143c    0x4  Data  Gb  NA7600_Usart.o [1]
WWDG_IRQHandler         0x080110bd         Code  Wk  startup_stm32f10x_hd.o [1]
__aeabi_memset          0x08010eb5         Code  Gb  ABImemset.o [4]
__cmain                 0x0801101d         Code  Gb  cmain.o [4]
__exit                  0x08011035   0x14  Code  Gb  exit.o [5]
__iar_Memset            0x08010eb5         Code  Gb  ABImemset.o [4]
__iar_Memset_word       0x08010ebd         Code  Gb  ABImemset.o [4]
__iar_close_ttio        0x08010fad   0x26  Code  Gb  iarttio.o [5]
__iar_copy_init3        0x08010f51   0x30  Code  Gb  copy_init3.o [4]
__iar_data_init3        0x08010f81   0x2c  Code  Gb  data_init3.o [4]
__iar_lookup_ttioh      0x08011085    0x8  Code  Gb  XShttio.o [3]
__iar_program_start     0x0801106d         Code  Gb  cstartup_M.o [4]
__iar_ttio_handles      0x20000410    0x8  Data  Lc  XShttio.o [3]
__iar_zero_init3        0x08010fd5   0x24  Code  Gb  zero_init3.o [4]
__low_level_init        0x080111ad    0x4  Code  Gb  low_level_init.o [3]
__vector_table          0x08010000         Data  Gb  startup_stm32f10x_hd.o [1]
_call_main              0x08011029         Code  Gb  cmain.o [4]
_exit                   0x08011079         Code  Gb  cexit.o [4]
_main                   0x0801102f         Code  Gb  cmain.o [4]
delay_init              0x08010c6d   0x28  Code  Gb  delay.o [1]
delay_ms                0x08010c95   0x3c  Code  Gb  delay.o [1]
exit                    0x0801108d    0x6  Code  Gb  exit.o [3]
fac_ms                  0x20001444    0x2  Data  Lc  delay.o [1]
fac_us                  0x2000144a    0x1  Data  Lc  delay.o [1]
iap_load_app            0x08010f25   0x22  Code  Gb  JumpToCode.o [1]
jump2app                0x20001438    0x4  Data  Gb  JumpToCode.o [1]
main                    0x08010cf1   0x74  Code  Gb  main.o [1]
memset                  0x08011049   0x14  Code  Gb  NA7600_Usart.o [1]
uart_init               0x08010675   0xac  Code  Gb  NA7600_Usart.o [1]


[1] = F:\my_new_Svn_working\my_project\STM32\STM32_Update\STM32_App\Project\EWARM5\Debug\Obj
[2] = command line
[3] = dl7M_tl_if.a
[4] = rt7M_tl.a
[5] = shb_l.a

  4 486 bytes of readonly  code memory
     74 bytes of readonly  data memory
  5 195 bytes of readwrite data memory

Errors: none
Warnings: none
